:10000000001F00100B010000D5000000D700000009
:1000100000000000000000000000000000000000E0
:10002000000000000000000000000000D9000000F7
:100030000000000000000000DB0000005D1D00006B
:10004000DF000000DF000000DF000000DF00000034
:10005000DF000000DF000000DF000000DF00000024
:10006000DF000000DF000000DF000000DF00000014
:10007000DF000000DF000000DF000000DF00000004
:10008000DF00000085100000DF000000DF0000003E
:10009000DF000000A91C00000000000000000000BC
:1000A000DF000000DF000000DF00000000000000B3
:1000B000DF000000DF000000DF000000DF000000C4
:1000C000CC2300000001001008000000080100100F
:1000D0002C140000FEE7FEE7FEE7FEE7FEE7FEE782
:1000E000002330B55C181D18934203D22D680433E9
:1000F0002560F7E730BD002310B51C001A188B42AD
:1001000002D214600433F9E710BD10B50D4C0E4B4C
:100110009C4206D2A26861682068FFF7E1FF0C34B8
:10012000F5E70A4B9C4205D261682068FFF7E3FFC0
:100130000834F6E700F0F8FD01F044FF00F028FA7B
:10014000FEE7C046C0000000CC000000D400000064
:1001500070B54B0602D53C231A4011430C220D4CBE
:100160000500237838351A4050235B4213430200C0
:100170002B70436B3B3253701E12030016706022CB
:100180003D333E301A700170593A2900200001F0C9
:1001900022FB70BD5C010010F0B5344D0A00AB7855
:1001A00069781B020B43A97985B0019102A9CE1D84
:1001B000002104005BBA406B9BB2317098422FD192
:1001C0002B4BA1721B6880216364D0239B001340DA
:1001D00089008B420BD1F020800010403100254A6D
:1001E00000F098FA3378002B0ED0C2200EE0E02306
:1001F000C3209B009A4209D1BFF34F8F1E4B1F4A69
:10020000DA60BFF34F8FFEE700280BD03C27019A3E
:1002100001003A402000FFF79BFF3378002B04D108
:1002200005B0F0BD38342070FAE70C222B7821009D
:100230001A4050235B4213432371636B48311A12F7
:1002400023724023E271A27A134004D0236CBA4394
:100250001A430123A2720B700F23627A211D1A40E8
:100260000732280001F0B7FADAE7C0465C01001057
:10027000F41400106301001000ED00E00400FA0522
:1002800070B5254A0400937850781B020343402040
:100290005BBA9BB2084026D0C320250001404835F8
:1002A000C22913D1297800290DD0616B99420AD156
:1002B0003C219279E36C0A40934204D0236CE264BF
:1002C00004330B40236401232B7070BDC329FAD182
:1002D000626B9A42F7D1002242392000FFF738FFC3
:1002E00000236363EFE780290ED1616B002901D001
:1002F0009942EAD1636300230849236409681363C0
:10030000616448342370E0E78129DED1616B994252
:10031000DBD160631063D8E75C010010F4140010B7
:1003200010B50E4C63797F2B0BD8E2782379E16A04
:10033000120213438B4204D1A179CB0904D0FFF7F9
:100340009FFF0023A36110BDC02309029B00194039
:10035000E3791943FFF720FFF3E7C0465C01001083
:1003600001680B4B10B50400002099420ED9802380
:1003700062685B039A4209D8914207D0521A013849
:1003800000F060F9A368181A4342584110BDC046F6
:10039000FF2F0000C068704770B5050001F07BFBBF
:1003A0000400280001F069FB201870BD13B5144C3F
:1003B0000123144A0421200000F082FEC0211248CB
:1003C000C90100F007FDC0211048C90100F002FD7D
:1003D00000220F4B9B680193FC335A600D4B0E4A71
:1003E0001B680133002B08D00C492000136000F07B
:1003F000A5FE00220A4B1A7013BD0123F4E7C04684
:1004000008010010602000004682010063823D0068
:1004100054230000F414001058010010C0FF000025
:10042000D0120010104B1868002817D00F4A11681E
:10043000091A13D4002119600D491268496B00296B
:100440000DD0FA321A60002A01D101221A60094B3C
:10045000DA68136A59424B41DB0013627047FA2194
:1004600089005218EEE7C04658010010F41400103D
:100470000801001054230000802370B5416804680F
:10048000074D5B05F0261A1836069219126804C348
:10049000AB42F7D10122034B1A60A546084770BD55
:1004A000C800001000800440FA21294B70B518687C
:1004B000890001F0FBFC274B013898420DD8C02180
:1004C000254A090650602548036A1B021B0A0B4394
:1004D000036200239360073313600025204B1D60E7
:1004E000FFF764FF1F4C2049200001F027FB1F4944
:1004F000200001F02BFB96210322C901200001F00E
:100500002DFBA5601A49E560200025616561FFF7B4
:1005100043FF18492000FFF73FFF1749200001F073
:10052000BAFA1649200001F0B6FA1549200001F088
:10053000B2FA14492000FFF72FFF13492000FFF7FC
:100540002BFF124800F03EFDFFF76CFFF9E7C046B5
:1005500004010010FFFFFF0010E000E000ED00E0EC
:10056000F4140010DC13001061C2340F60823410E8
:100570009C200000D4200000002100000821000081
:10058000F1210000142100001D21000008010010CD
:10059000802300225B051868124910B51A60884252
:1005A00001D1FFF781FF1049104800F013FC104BF8
:1005B0009B685B68002BF4D0BC24A4012000FFF7EB
:1005C000CFFE002802D02068FFF756FFB820800138
:1005D000FFF7C6FE0028E4D0064BE058FFF74CFFBB
:1005E000DFE7C04655B01F5E1010000040825C007F
:1005F0005423000000FFFFFF13B50B4C50220021D5
:10060000200001F00CFD200000F044FD074B084ADB
:1006100023600024074B019400940749074800F029
:10062000A3FD074B1C6013BD080100108C200000C7
:1006300028C2010029826900001500105C01001029
:1006400058010010F7B58B18194D1A4E1A4F019327
:10065000019B994201D1C043FEBD0B78174A584017
:10066000C307DB1713408207D2172A405340020A00
:1006700053404207D217324053400207D2173A4044
:1006800053400F4CC206D217224053400D4C8206F5
:10069000D217224053400C4C4206D21722405340FE
:1006A00000060A4AC017104058400131D0E7C04642
:1006B0002C610EEE19C46D073288DB0E9630077779
:1006C0006410B71DC8206E3B9041DC762083B8EDE6
:1006D00010B501F0E0F910BD70B5050001F088F922
:1006E0000400280001F0C9F9201870BD4378027891
:1006F0001B021A438378C0781B0413430006184377
:1007000070470B0EC3700B0C83700B0A43700170A3
:100710007047FFFFF0B5CA4B16009B6814781A00AB
:10072000A3B0FC3201935368009159424B419B01A5
:100730005360B3780A2B00D1B4E210D8C14F012B1B
:1007400000D1FCE0002B00D1C4E0022B00D130E14D
:10075000032B00D1B8E18022BA4B520020E01F2BBE
:1007600058D01FD8142B00D109E11E2BF3D101253D
:10077000B54FB6493800FFF7ABFFB54BB14C1B681E
:100780000193FF335B782B401DD0B24BB24AB34983
:100790001A60002323603800FFF79AFF0022B04B55
:1007A0001A60ECE0212B6AD0232BD4D1A94AAA4BA2
:1007B00012689A425FD1BFF34F8FAA4BAA4ADA6000
:1007C000BFF34F8FFEE702A8236001F0DDF8002899
:1007D00014D10300AC4602A9226803360191F55CEE
:1007E0002900019D5D5DA94202D08422604652002D
:1007F00001330C2BF3D1002800D02260842322681F
:100800005B009A42CAD0934B934A98491A600023DE
:100810002360C0E701278C4D95492800FFF758FF5A
:100820008B4B884E1B680193FF335B783B421DD096
:10083000904B02A81C6801F0A7F8306000280ED188
:100840006F2363728C4B2000638180239B01A38103
:10085000009B0E301F700C2202A901F0D7FB8749C4
:100860002800FFF735FFC22023B0F0BD0823FF3377
:1008700033608349F4E70822724BFF3290E7724CF1
:1008800080492000FFF724FF2F20F378C01A0002D0
:10089000FFF780FD7C4B01006A4D984215D86F220E
:1008A000744B00981B685A72734A5A8188229201CD
:1008B0009A8101220E33027018000B3201F0A6FB60
:1008C00000236E492B602000CBE783235B002B6065
:1008D0006E49F8E75C4C6E492000FFF7F9FE5D4A6F
:1008E0005D4B12689A4226D1F17801230A2220003A
:1008F00001F0ACF8200001F0C0F8F078002815D025
:10090000644A654B94461B68019363441B0B9842F1
:1009100006D3624B1B68019363441B0B984205D9B5
:1009200000F0B4FF5E493860200035E70423FF3350
:100930003B605C49F8E70823FF333B602EE7454AFC
:10094000454B12689A4296D10F231C408023444D98
:100950005B01286802199A4223D8534B0336C0180A
:100960002200310001F052FB012022003100404200
:10097000FFF768FE2B681C1900232C603B603D4B81
:10098000009A186867234372484B4381A8235B0190
:100990008381012313702B4B0E301968FFF7B1FED2
:1009A00061E7822342495B0027483B60FFF790FEE6
:1009B000E5E740492448FFF78BFE264A264B12689C
:1009C0009A42B8D1F01DFFF791FEC3B20500002B8B
:1009D00077D1F01CFFF78AFE2F4B04001B680193B0
:1009E0009D4205D32D4A431912680192934268D95A
:1009F000012022002C494042FFF724FE01903000E4
:100A00000B30FFF773FE019B984258D18022D20031
:100A1000944251D880239B009C4205D8013BFF3B68
:100A2000A34292411A40D2181F49280000F07AFFD1
:100A300008231022386001990348FFF74DFEADE608
:100A400054230000CC010010DC1300105C210000D6
:100A500080230000000100105AA55AA5652100005E
:100A6000C801001000ED00E00400FA056B21000051
:100A70007121000058210000424C0000AA21000012
:100A8000772100007E210000FFFF04009321000079
:100A90009B210000FF0F000000000000CC2300009D
:100AA000A9210000AF210000D00100104244000045
:100AB000BA210000C821000080225201B4E70223BD
:100AC0003AE781235B0038E77B4C7C492000FFF745
:100AD000FFFD7B4A7B4B12689A4200D0DDE07A49E9
:100AE0002000FFF7F5FDF01CFFF700FE02000120DB
:100AF00076494042FFF7A6FD754901902000FFF7B7
:100B0000E7FD0823102201992000FFF7E5FD714958
:100B10002000FFF7DDFDBC21082310228901200001
:100B2000FFF7DAFD6C492000FFF7D2FD6748FFF7B9
:100B3000DDFD0823102201002000FFF7CDFD6749ED
:100B40002000FFF7C5FD6648FFF7D0FD08231022FF
:100B500001002000FFF7C0FD62492000FFF7B8FD4B
:100B60006148FFF7C3FD0823102201002000FFF7B2
:100B7000B3FD5E492000FFF7ABFD5D48FFF7B6FD12
:100B80000823102201002000FFF7A6FD594920008C
:100B9000FFF79EFD5848FFF7A9FD0823102201002A
:100BA0002000FFF799FDF51D54492000FFF790FD47
:100BB0002800FFF79BFD0823010010222000FFF70B
:100BC0008BFD2800FFF792FD019B3D0098422DD13F
:100BD0004B492000FFF77CFD3C48FFF7C1FB002894
:100BE0001FD02F2000F07CFE0223010028600A2283
:100BF0002000FFF771FD3B68002B00D0CEE52E4CA6
:100C000040492000FFF764FD8022BC2052002F499C
:100C1000800100F087FE022301000A2228602000E4
:100C20000BE783235B003B6037497DE602233749AE
:100C3000FF3320003B60FFF74BFD3000FFF756FD10
:100C40000823102201002000FFF746FD3049200054
:100C5000FFF73EFD301DFFF749FD0823102201007C
:100C60002000FFF739FD2B492000FFF731FD300050
:100C70000830FFF73BFD0823102201002000FFF79A
:100C80002BFD25492000FFF723FD30000C30FFF736
:100C90002DFD082301001022C1E70823FF333B602C
:100CA0001E4941E6064A074B12689A4200D0E2E527
:100CB0001B4B1C4A74E5C046DC130010DD2100000C
:100CC000000100105AA55AA5E8210000D00100102B
:100CD000F3210000FE2100000D2200001D22000073
:100CE000D40100102D220000D80100103E22000087
:100CF000DC01001050220000E00100106222000020
:100D0000722200008A2200009B220000A72200001D
:100D1000B3220000BF220000CC220000DA22000033
:100D2000CC010010FFFF00008E2120201A4B89000B
:100D30005A5882435A50002271391A62FF39C0460C
:100D400001390029FBD101221A645A6459645A649A
:100D5000596C1142FCD023228E2180209A60890098
:100D60005A5882435A500122D9681142FCD00321BB
:100D7000196700215A6759675A670122596F114252
:100D8000FCD09A670549064BD967064B1A60064B9B
:100D90001A60064B1A607047008004405F00010033
:100DA0000480044094800440988004409C80044067
:100DB00070B500230400043918B2824205DD013306
:100DC0009D004D59A542F7D170BD00F0F5FF0120FF
:100DD0004042F9E7F8B543069B0F564A9B001F2592
:100DE0009A580300040001202B408FB20E05844660
:100DF000891498403B0B1B03360D0D4000D165460E
:100E0000802180B27F0B0902032F08D15758384345
:100E10005050E022D20193423FD1062513E05758AB
:100E20008743575080229201934228D1424B9C42E3
:100E300002D1424B002204E0414B9C4212D10122DC
:100E40003E4B07251A60E30503D5022D01D0802310
:100E50001E432900200000F0A9FD002863DA00F0FD
:100E6000ABFF61E0374B9C4201D1374BE2E7374B98
:100E700007259C42E7D1344B01221A60E3E7C022E8
:100E8000920193424DD00F2D07D10422304920000A
:100E9000FFF78EFF2F4B1860D5E70C2D0AD12E4B94
:100EA0009C4202D12D4B0022E7E72D4B9C42CAD138
:100EB0002A4BE1E70D2D09D12A4B9C4201D12A4B47
:100EC000F1E72A4B9C42BED1274BD5E70E2D19D115
:100ED000274B9C4201D1274BE5E7274B9C4201D190
:100EE000244BC9E7254B9C4202D1224B0222C4E786
:100EF000234B9C4201D1234BD5E7234B9C42A2D1EB
:100F0000204BB9E70B2D9ED1134B9C4203D10022FD
:100F10001E4B9A6197E71E4B9C4294D11B4B0122BA
:100F2000F7E702258FE70643200000F033F806605C
:100F3000F8BDC0465423000002C23A00C04004403D
:100F400063823D0025423C00D040044049C201007C
:100F5000E4220000D440044042426500C8400440FE
:100F60002A83300C43826D00CC4004402982690002
:100F70000A4A7006B04004404B823B0006027000F3
:100F800041C27400C44004406242350E0040044037
:100F9000448259001F23420603400C20920F504305
:100FA000C018034B4000C05A024BC0188000704765
:100FB000F42200000010011000233030037070474D
:100FC0007047FFFF0300F7B530331B780400002B98
:100FD0004FD0284B9A69002A0CD0DB6C002B09D12A
:100FE000254B1B680193FF335B785B0702D50368D1
:100FF0005B689847E06900283BD02049FFF7EAFE8C
:10100000E2691F4D53069B0F9B0059591F231A403D
:101010001B3B93402000595832224B1E99412430EB
:10102000A76A00F007FC144B1B681E000193FF36F3
:10103000002805D1002F03D08122737853407370AC
:10104000C021E069C901FFF7C5FE01201F227178A8
:101050000600E369246A1A409640014032000020ED
:10106000A14200D030005B069B0F9B00EB58920022
:10107000D050F7BD5C01001080230000101000006C
:101080005423000010B5024800F0B0F910BDC0466E
:101090005C01001010B50400074B083303602430D6
:1010A00000F0C4FB054B0022E3610123236223000F
:1010B000303320001A7010BD6423000040825C00B1
:1010C000F7B50400019303680092DB680F009847AE
:1010D00023000025383325711D7025641D74134BC2
:1010E00001221B682E2019000126FF315242623373
:1010F000E264656348701D700D4B8E701B680D486F
:101100005A733A12DA70009A1D7312125A71009AC9
:101110001F719A71019ADA71074B1D6023003033F9
:101120001E7000F037F8A6626562F7BD80230000EC
:101130007C2300005C010010D8130010064B0A123B
:101140001B68DA7501221976044B1A700022044BD1
:101150001A60044BD96270477C230000D012001043
:10116000D81300105C0100104362030030B503ACDB
:10117000257804AC247828330262C1611D705C704C
:10118000032302341C40030000222A331C709A728D
:1011900030BDFFFF70B5374B04001A680125137E80
:1011A000D17D1B020B435BBA9BB20200C3620023DA
:1011B00034328361137004220363C2630200260089
:1011C0006832C36403651370C06900F083FD2800B2
:1011D000E36929361A683378516F984003000B434E
:1011E00053672300283319788122E06900F0A0FDBD
:1011F000E36921491A6853682B4353601F22E3694E
:101200001B79103313402A009A401C4B1A601C4B68
:10121000186800F04BFE2100E36901381B682A3191
:10122000D860E3690A781B68920018339B18154A46
:101230001A6009780222E06900F05EFDE369327805
:101240001B68920018339B180F4A1A60E3691B68E9
:101250009A60E3691A6833789D40D36B1D42FCD1D4
:10126000E021606AC901FFF7B5FD0849206AFFF770
:10127000B1FD70BD7C23000040420F0000E100E0A2
:1012800004010010FEFF0000FFFF0000202000000E
:1012900070B5040003002500283319782A3581220F
:1012A000C06900F045FD29780222E06900F024FDC4
:1012B000E3692A781B68920018339B18084A1A6061
:1012C0002200E36929321B681278183392009B18B8
:1012D000044A1A602200002334321370236370BD65
:1012E000FEFF0000FFFF00000023C26C1370026DC0
:1012F0008363C264036583647047FFFF73B5002393
:101300000500036368352A7804009A4241D1026CD3
:10131000072A2ADD99425FD0C3780079000218437A
:10132000637940BA80B27F2B14D9002803D000F033
:1013300073FDC143C90F2A4B1B680193FF335A78D1
:1013400052070DD4226CA2615B789B0721D5CC2378
:1013500023631EE0E16A091A48424141C9B2EAE743
:10136000002916D0236CA361F1E7012A34D1436C24
:10137000DBB24364CC2B03D0826BC36B9A4208DD93
:10138000E36C002B05D0A36B002B02DD2000FFF7E0
:10139000ABFF236B21005E1EB341E2692A31114E7F
:1013A000087812685B4233400F4E800018329B1958
:1013B00012181360E0690978032200F09DFC2300F5
:1013C00028331978E069812200F0B2FC002334341C
:1013D0002B700333237073BDA3610C23B8E7C046A1
:1013E0008023000049F0FFFFE8130000F7B5040078
:1013F00010220227250034352878C0B2092800D9E8
:10140000CDE100F049FD0A0051001E00A000FC00E3
:10141000180135017D01B7019B01E3691B681A685A
:1014200023002833197810238B401A421DD0220044
:101430000023683223641370FF2223630133626642
:10144000236622002832107810228240E3691B684C
:10145000196811400ED1236E002B03D0616E4B42F0
:101460005941C9B22000FFF749FFFF22E3691B6819
:101470001A60F7BD21002A310A78183392009B18B0
:10148000C94A01261A600222E3691B685A605E603D
:1014900009789219E06900F02FFC00232E70636434
:1014A000A3656665E665E0E7230001222A331B7821
:1014B000E6699A40316801930868024023D1200010
:1014C000283000782C31800009180D68A16D0800C3
:1014D0004430A8421ADA6831A16544239C46A16DC4
:1014E000606D8C444700AC450FDABC3398420CDC8D
:1014F000636C68311843E36D606458425841A165DC
:10150000E0656765E9E7A84DE0E76765002AACD0CC
:10151000236EE26D216C1A402266172906DC626C8C
:10152000481C20646254636E5A40626602212200A5
:10153000019B34328B40117032681832D318D0229C
:1015400052001A6091E72600110028363078E369CE
:1015500081401B681B680B4002D000232B7049E7B9
:10156000226B002A23D0A364682321002000E269B3
:101570002931126809781832890052181360E2691B
:101580002A30017812688900183223335218136008
:1015900001780322E06900F0AFFB31788122E06935
:1015A00000F0C6FB0023236404332B705DE7A26BBD
:1015B000E36B9A4202DD2000FFF796FEE26C002A00
:1015C00000D1ECE068210F2013781B079B0F01333B
:1015D0004B43517901400831A164A16B0129C4D169
:1015E00010781F3188431070A26CE06C013A8218A9
:1015F000107841401170A26B0132A263B5E7200060
:10160000110028300078E36981401B681E680E4293
:1016100010D02600293636789868B60018339B1902
:101620001E680A3E864203D9604818602F70E1E6C2
:101630000523BAE71B68236B002B10D0236B636470
:101640008021012349006365636D626CFF2B0DDC13
:101650001A4201D04A4062645B006365F4E7236C80
:101660005A1C2264E26CD3181B78E8E701236365F7
:1016700080206826616C4000626D530063650A42F9
:1016800003D0824201DC6836F6E70622682E00D0DD
:1016900007222A708022920093420ADD236CA26CFA
:1016A0003936FF36934226DA236B002B23D10533DC
:1016B0002B7022002B7828321178E0698122072BC9
:1016C00000D0802200F034FB2200E36929321B683D
:1016D00012782978183392009B1809290DD1334AC2
:1016E0001A602200E3692A321B68127818339200CC
:1016F0009B181E60B9E60923DAE73200233AEFE7C8
:10170000E36921001B6828311A0009782C3289000E
:1017100052181168220029321278183392009B184F
:101720001A68453A8A4207D9204A1A6022000123E2
:1017300068322B70137098E6062336E72200E369BF
:101740002A321B681278183392009B18184A1A60C4
:101750002300283319788122E06900F0E9FA236B2D
:10176000002B03D00023236308231EE7A36B013360
:10177000A363F9E72300160028331878E36986404D
:101780001B681968314208D093212C338000181847
:101790000368C9008B4200D867E60323DEE6200019
:1017A000FFF776FD61E6C04642040000FFFF00003F
:1017B0005014000010B5C36A1B124B70C36AFF209F
:1017C0008B7000239CB2A24203D9CC5C01336040F1
:1017D000F8E7885410BD70B504000D00FFF7EAFF6C
:1017E000236D002BFDD1E36C002B1DD1E56472B697
:1017F000230034331D78EDB2002D13D103222000D5
:10180000A5631A70E3692A3001781B6889001833D0
:101810005B18012119600178E06900F06DFAE36955
:101820001B689D6062B670BD2565E0E7002303601C
:101830007047FFFF10B5094B84681B688C4203D0CA
:1018400003608160406810BD01680029FAD09B1ACE
:101850005B1AF7D4002344600360F3E7F41400102C
:1018600010B572B6014B984762B610BDF11FFF1F4D
:10187000322300B58BB00190029005A96846009311
:10188000FFF7EEFF0598C0B20BB000BD10B58CB0ED
:101890000400FFF7EDFF079000281AD13423FA2146
:1018A00002930E4B890018680394049400F0FEFA2A
:1018B00007A9059002A8FFF7D3FF079B0193002B10
:1018C00007D1353307A902A8029303940494FFF7C4
:1018D000C7FF0798C0B20CB010BDC046040100108D
:1018E0000F2310B50400C017184000198AB000116A
:1018F000FFF7BEFF059000280ED13B23FA2100938D
:10190000074B890018680194029400F0CFFA05A9EA
:1019100003906846FFF7A4FF0598C0B20AB010BD57
:101920000401001070B50400C0170005000D201858
:101930008CB000130E001500FFF79AFF07900028E7
:101940001CD13323FA2102930E4B890018680394AB
:101950000496059500F0AAFA07A9069002A8FFF7D9
:101960007FFF079B0193002B08D1383307A902A8FA
:101970000293039404960595FFF772FF0798C0B28F
:101980000CB070BD0401001010B53A2304008AB0F9
:1019900005A968460093FFF763FF102206A92000FF
:1019A00000F034FB0598C0B20AB010BD00231F221E
:1019B00010B54012040014408C4201D118B210BD81
:1019C00001334011042BF5D101204042F7E7F8B56F
:1019D00007000C0000258E18B44207D03B68217820
:1019E0005B683800984701342D18F5E72800F8BDEA
:1019F000F0B512B21E008DB007000D00131C022AB4
:101A000000DA022325241BB2019302ABE4180199EA
:101A1000280000F0D1FA3723CAB2092900D8073BC1
:101A2000013C9B18013E2370002E0DDC019BAB4254
:101A30000AD9252302AA9B181A1B3B6821001B68A0
:101A4000380098470DB0F0BD0500E0E7F7B5002776
:101A500005000C0001921E00B94206DA03682D2130
:101A60005B68984707006442013E33002800019AF2
:101A70002100FFF7BDFFC019FEBD036870B504006B
:101A80005B680D219847236805005B680A212000E8
:101A90009847281870BD70B5050000200C008142E1
:101AA00008D02B6808001E6800F0C1FA210002006F
:101AB0002800B04770BD026943699A42FBD1704764
:101AC000026943699A420AD10E4B5A69920606D5B9
:101AD0000222196059680A435A60012070477F2228
:101AE00043690133134002699A42FCD0426982186B
:101AF0009832117043610223024A51680B435360CC
:101B0000EBE7C04600800040FA2370B504001500E2
:101B10009B006360064B0800083323600549FFF70C
:101B200059F928000449FFF755F9200070BDC04657
:101B30008423000000103C000060400010B5080045
:101B40000149FFF747F910BD00103C0010B508002F
:101B50000149FFF73FF910BD00604000F7B51700DD
:101B600080221E4B92030191DA6780231C4A5B019D
:101B7000D16F01260B43D36780231A4C1A4A3B438B
:101B80001660E360194B05009B6F1168184A1068D6
:101B9000584300F08BF90199000900F087F9030A16
:101BA000C0B2636020600723E7600027A36027615D
:101BB00063682800334363602B685B699847802320
:101BC000AF609B03EF602F616F616269324201D0A9
:101BD0002268FAE7074A1360F7BDC04604E100E057
:101BE000048004400080004098800440008004404D
:101BF0000401001000E100E0194B30B55A6992066B
:101C000007D501694269914219D102215A688A4374
:101C10005A6001247F215A6922421FD0C268856818
:101C200001320A40AA4217D01D68C2688218157690
:101C3000C2680132C260C2680A40C260EBE77F211D
:101C400002698218983212781A60026901320261C0
:101C500002690A400261DCE71A68DCE730BDC04671
:101C600000800040F8B50500C468876800F0F0F80F
:101C70007F23013406001C40BC420CD1074B5B693A
:101C8000DB0708D58024064BA403DC672800FFF798
:101C9000B3FF044B1C603000F8BDC046008000401C
:101CA00004E100E000E100E010B50248FFF7A4FF06
:101CB00010BDC046DC13001010B5034A03490448A8
:101CC000FFF722FF10BDC0462702340026C23300B2
:101CD000DC130010012302790649073293400022E9
:101CE00010B5CC6F2343CB670368DA635A619A62FD
:101CF00010BDC046048004400368072070B503246B
:101D000006004C43A6401040A04030245D694900C5
:101D1000B5435D615D692240284325008D408A40BE
:101D20005861D86BA843D863D86B0243DA6370BD9F
:101D30000323594310B5941109B22340D20701D5AA
:101D40000422134307248C408B400268906AA0430E
:101D50009062906A0343936210BDFFFF024A1368CA
:101D6000013313607047C046F414001000220A4B80
:101D70001A710A4A1A600122094B1A71094A1A603B
:101D80000222094B1A71094A1A600322084B1A7180
:101D9000084A1A607047C046F814001000C000409E
:101DA000001500100000014008150010004001401F
:101DB000101500100080014013B5C0211148C90161
:101DC000FFF708F8C021104B104A11485A60026A08
:101DD00009061202120A0A43026200229A600732BE
:101DE0001A600C4A80201268802101921A000004B7
:101DF0008900936803405C426341019CDB016350AE
:101E0000F7E7C0460702050010E000E0FFFFFF0013
:101E100000ED00E0542300000C4B30B51B681A00A5
:101E20001632111E00D0997D0412C2B2012019335E
:101E3000814208DB1D78A54202D15D78954204D02D
:101E400001300233F4E70120404230BD7C23000022
:101E5000C1688268030091420AD07F21826882189B
:101E6000107E9A6801329A609A680A409A607047B8
:101E700001204042FBE7C26883689A4203D083682E
:101E8000C018007E704701204042FBE7C3688068AD
:101E9000181A00D58030704703B4714649084000D5
:101EA0004900095A49008E4403BC70470022430888
:101EB0008B4274D303098B425FD3030A8B4244D312
:101EC000030B8B4228D3030C8B420DD3FF22090254
:101ED00012BA030C8B4202D31212090265D0030B13
:101EE0008B4219D300E0090AC30B8B4201D3CB0309
:101EF000C01A5241830B8B4201D38B03C01A52414B
:101F0000430B8B4201D34B03C01A5241030B8B424C
:101F100001D30B03C01A5241C30A8B4201D3CB0237
:101F2000C01A5241830A8B4201D38B02C01A52411C
:101F3000430A8B4201D34B02C01A5241030A8B421F
:101F400001D30B02C01A5241CDD2C3098B4201D337
:101F5000CB01C01A524183098B4201D38B01C01AB5
:101F6000524143098B4201D34B01C01A524103092C
:101F70008B4201D30B01C01A5241C3088B4201D3DB
:101F8000CB00C01A524183088B4201D38B00C01A88
:101F9000524143088B4201D34B00C01A5241411AAF
:101FA00000D20146524110467047FFE701B50020BC
:101FB00000F006F802BDC0460029F7D076E770476A
:101FC0007047C04670B500260C4D0D4C641BA41024
:101FD000A64209D1002600F0E5F90A4D0A4C641B1F
:101FE000A410A64205D170BDB300EB589847013646
:101FF000EEE7B300EB5898470136F2E7B023000054
:10200000B0230000B0230000C0230000002310B55F
:102010009A4200D110BDCC5CC4540133F8E70300F0
:102020001218934200D1704719700133F9E7002369
:10203000C25C0133002AFBD1581E704710B5064C14
:102040002378002B07D1054B002B02D0044800E079
:1020500000BF0123237010BD181500100000000000
:10206000CC230000044B10B5002B03D003490448D7
:1020700000E000BF10BDC046000000001C150010AD
:10208000CC2300000000000000000000B90F000099
:1020900021030000C50F0000C10F00003D3D3D3D84
:1020A0003D3D3D3D3D3D3D3D3D3D3D3D3D3D3D3D60
:1020B0003D3D3D3D3D3D3D3D3D3D3D3D3D3D3D3D50
:1020C0003D3D3D3D3D3D3D3D3D3D3D3D3D3D3D3D40
:1020D0003D3D3D0053656C66627573204B4E582044
:1020E000426F6F746C6F6164657220302E32352CD4
:1020F000204445425547204D4F4445203A2D290064
:102100004275696C643A20004D6179202036203296
:102110003032300030313A34333A3337002D2D2D00
:102120002D2D2D2D2D2D2D2D2D2D2D2D2D2D2D2DDF
:102130002D2D2D2D2D2D2D2D2D2D2D2D2D2D2D2DCF
:102140002D2D2D2D2D2D2D2D2D2D2D2D2D2D2D2DBF
:102150002D2D2D2D00FFFFFF08010010556E6C6F17
:10216000636B3F200042746E0A0D005549440A0D0E
:10217000005549443F20004C4F434B0A0D0041702D
:10218000705F56657273696F6E2052657175657305
:102190007420004661696C210A0D00457261736507
:1021A00020536563746F722000204F4B0A0D00208E
:1021B0004661696C6564210A0D0042756666657248
:1021C0002046756C6C0A0D00466C6173682053657F
:1021D00063746F722C2043524320307800424F4F7B
:1021E000545F446573632000556E6C6F636B656468
:1021F0002C2000446573632E204352432000446525
:1022000073632E2041646472657373200052616DA4
:102210004275666665725B302D335D200052616DDC
:102220004275666665725B342D375D200052616DC4
:102230004275666665725B382D31315D20005261F2
:102240006D4275666665725B31322D31355D2000F9
:1022500052616D4275666665725B31362D32305D56
:1022600020005265636569766564204352432030DF
:102270007800435243204D415443482C204572611D
:10228000736520506167653A20004F4B2C20466CE7
:1022900061736820506167653A2000417070204585
:1022A00072726F720A0D0020646174615B332D30AD
:1022B0005D3A0020646174615B372D345D3A002023
:1022C000646174615B31312D385D3A002064617462
:1022D000615B31352D31325D3A004C6F636B0A0D15
:1022E00000FFFFFF26C233004782790061C2340F2E
:1022F00064C279000300040007000B000C000D000D
:1023000013001400180019001A001D001E001F0001
:10231000200024002500280029002A0005000E00C6
:102320001B00260002000A00170023001000110005
:10233000000008000900150016001C002100220002
:1023400027002B000F00120000000000000000001A
:10235000000000000000005000000150000002508A
:10236000000003500000000000000000B90F000052
:10237000C10F0000C50F0000C10F0000D0110010F8
:10238000D41200100000000000000000CF1900006F
:10239000C11A0000651C0000771E00008D1E0000A1
:1023A000B71A0000F8B5C046F8BC08BC9E46704796
:1023B000F9050000B91C00006D1D0000652000003B
:0C23C000F8B5C046F8BC08BC9E4670474B
:0823CC00A55AA55A006CDC02C1
:040000030000010BED
:00000001FF
