:1000000000200010DD000000D7000000251C0000CB
:1000100000000000000000000000000021DFFFEFF2
:10002000000000000000000000000000D9000000F7
:100030000000000000000000DB0000005113000081
:10004000D5000000D5000000D5000000D50000005C
:10005000D5000000D5000000D5000000D50000004C
:10006000D5000000D5000000D5000000D50000003C
:10007000D5000000D5000000D5000000D50000002C
:10008000D500000005100000D5000000D5000000DC
:10009000D5000000D50000000000000000000000B6
:1000A000D5000000D5000000D500000000000000D1
:1000B000D5000000D5000000D5000000D5000000EC
:1000C000682C00000001001088000000880100106A
:1000D000D4040000FEE7FEE7FEE7FEE7F8B52B4B91
:1000E0002B4FBB420BD300202A4EB34218D2002222
:1000F0001C685D68A11895420FD80833F5E7002207
:100100001C685D689E68A918A018964201D80C3337
:10011000E7E7006804320860F5E708600432E9E7C1
:10012000802502F0EBF902F0D9FA00236D05296869
:10013000194A2B60914202D1012002F0ACF8174914
:10014000174801F02DFA174B5B68002BF4D0164CC2
:10015000164BE4180134FF34240A2402200001F075
:10016000BBF9002810D02268114C10685168F026A5
:10017000AB1836069B191B6808C5A542F7D10122AA
:100180000C4B1A60854608470020D6E7C0000000E7
:10019000CC000000D400000055B01F5E101000001D
:1001A00040825C000000025000000000F02C0000C3
:1001B000C80000100080044041847047006901308D
:1001C00070470020704701207047007A7047012077
:1001D0007047704730B50400E5B21000002D1ED105
:1001E00000291ED0104B114A01399B180133FF33EF
:1001F0001B0A013309191B02002808D05A1EFF3AB6
:100200002800944202D399428041404230BD9C4232
:10021000FCD3074B013B8B424041C0B2F6E70020C4
:10022000F4E70800F2E7C04600000000F02C0000F0
:10023000000001004278017883781202C0781143EF
:100240001B040B43000618437047C0B20200084B62
:1002500010B55C686332627142225C68A271023A36
:1002600010435A68D07100225B681A72597210BD2F
:100270008801001070B5084D04002B004833188029
:1002800015210420FFF7E1FF00226B685A731A73EF
:10029000220ADA729C7270BD88010010044B0022A1
:1002A000190048310A80DA641A655A657047C046F9
:1002B00088010010182070470022436A9A60704736
:1002C000BFF34F8F024B034ADA60BFF34F8FFEE755
:1002D00000ED00E00400FA05032330B507254B4389
:1002E0009D409A4044694900AC43446144692243BB
:1002F000426130228A40C36B9343C363C36BC363C1
:1003000030BD70B5036804005B8C180A48708B70B0
:10031000FF2000239DB2AA4203D9CD5C013368407F
:10032000F8E78854E36C002B22D1E16472B6230015
:100330002C331A78D6B2012A18D122000025733244
:100340002563033AA563D570157006221A70E31D64
:10035000D97FA3698A001868030018339B181E60B0
:100360000322FFF7B9FFA3691B689D6062B670BDE9
:100370002165DBE710B5406AFFF7C3FF10BD03231B
:10038000594310B589B2013B802A00D004330724B9
:100390008C408B40826AA2438262826A13438362EA
:1003A00010BDC0462C23F0B581690400B64A086828
:1003B00087B0E75CFEB20E2F00D997E3B6009659DE
:1003C000B7462423E55C143BAB4002681A4278D060
:1003D0000025742724236C262564E35CA553A562BD
:1003E000E55500271022FF35A5668C3D6755723D07
:1003F000656605689A402F001740154200D1A3E3B7
:100400001F250421E2691540A94052069F4D920F15
:10041000920052598A58002A04D06C210125625A50
:100420002A43625201009A002C31891885680A68B3
:10043000AA4201D396496D1802213026AA1A4160BA
:10044000023201394160B446826026228E31CE00EC
:10045000A25C0096664651008E400725B4462E00E9
:10046000032789188E408F403100062601975F00D0
:10047000DB199D409E400300920018339A18009BA0
:10048000029513604369019A8B43436143690025D8
:10049000134362460121039604272C264361C36B54
:1004A0009343C363C36B029AC363836A93438362B8
:1004B000836A039A13438362A7556564E565A16562
:1004C0002166FF23036007B0F0BD26210123615C94
:1004D00002688B401A4207D02C230822E25466326D
:1004E000A15A0C3B0B43A352A36A002B00D150E34B
:1004F000A56A6564EB0703D580235B005D406564F6
:10050000AB0703D580235B005D4065646B0703D5B3
:1005100080235B005D4065642B0703D580235B006F
:100520005D406564EB0603D580235B005D40656438
:10053000AB0603D580235B005D4065646B0603D585
:1005400080235B005D4065642B0603D580235B0040
:100550005D406564012309220121A3652B33E25428
:10056000073A6823059329420DD08026760007E0DC
:10057000059BA26568330593154200D1D7E21100AF
:100580004A00B142F4DD059BA265682B02DD2C23F5
:100590000A21E15480239B009A420ADD226CA36C5D
:1005A0009A4200DAFDE22C230C22E254059B4533EB
:1005B00005932C23E35C0A2B00D1BFE224230725FB
:1005C000816AE25C223B5600921995409340A94310
:1005D0008162826A134383622C23E35C0C2B00D17B
:1005E000A7E203002522059918332339A25C920063
:1005F0009A1811602622A25C05999200F5E1242345
:100600001022E35C05689A40154200D0F8E6A36E1C
:10061000002B01D000F0E8FC626E002A00D0D5E289
:10062000266C00222C23A2620632E254012E00D056
:10063000F3E2236E002B00D1EFE2FF22636C134044
:1006400063648F3AA25C002A00D162E3CC2B00D114
:100650006DE3216B626B914200DB68E3A16BE26B9F
:10066000914200DB63E3C02B01D100F0B1FC6E22AC
:100670000421A35A074D0B43A35271230022E254D5
:100680000233A169E6546EE2902A0000CC2A0000F1
:10069000FFFF0000E8130000012226211500615C25
:1006A00003688D402B40591E8B4104A9DBB2CB70EF
:1006B000CB78CF1C002B00D07FE224231F25E15CE8
:1006C000E36989001D40AA4005002C3569180968B6
:1006D0005B0605919B0FC6499B005B589200D3585F
:1006E000002B04D06C220821A35A0B43A352E36DC4
:1006F000059A19004431914200DB88E21E001A007D
:1007000005996836AC32E665914200DCD2E280227F
:1007100052009446D033A26D11E0216E1E004D426E
:1007200069412166616C059D1143616419005200A5
:100730004431E365A26568338D4200DCBBE262456B
:10074000EBDD059B5200A2653B78002B00D152E205
:10075000256C002D00D0BEE2636C9A0705D06C2199
:100760008022605A9200024362522068A14E0268C1
:10077000526BB24200D0D7E2626DDBB25219013542
:1007800025641370A36E626C5340A366236E002B26
:1007900004D16C211020625A02436252616E2620FD
:1007A0000B402C2203216366235C9A27A154A26983
:1007B0003025106801227F00BC465F00BD40FF1855
:1007C000BA40043100920A00BA400600170062469F
:1007D00018369B00F31824261A6006234269BA4390
:1007E00042614769009A3A434261C26BAA43C263BD
:1007F000C26BC263A25D846A550052199140934056
:100800008C438462826A134383625AE6242510264D
:10081000655D0768AE40AC463D0035400095374207
:1008200000D149E30026A6620226E654C1E5072569
:10083000AC461D35675D856A7E0000951025BD407C
:1008400001950625BE196746B540B7402E00009DAC
:10085000BD438562876A019D3E43866206682E42DB
:10086000E2D1226B636B9A4200DB8DE3A26BE36BF8
:100870009A4200DB88E3E56C002D00D1CFE10F2325
:1008800073226979A25C0B400833A364002A0DD05F
:1008900020232A781A4209D02A789A432A70A16C18
:1008A000E26C0139521811784B401370E36C1A78DE
:1008B000920600D48AE31B785B0700D486E3D0233A
:1008C0005B00A269059310682523059AE65C9446AF
:1008D0000200B6001832009296196246262732604E
:1008E000E65D302572009446B44495406246223B52
:1008F0006146934007228A4094466146009AB600BA
:100900009219059E023F23361660072642698A43E4
:100910004261426913434361C36BAB43C363C36B1F
:100920000025C363E35D4A375A009B189E40B446D6
:10093000062261469A40836A2C268B438362836A2F
:10094000134383620723E5532564A355B9E5A16DDD
:10095000656C4A0005E62425665D05681027AC46EF
:10096000B740350066463E4200D1AEE52526A65D7D
:10097000AF00B5002C26B446143E84446744B44608
:10098000844465442E0000973F683D003768BC46AC
:1009900007277F42BC44AC4500D912E1009D2D6879
:1009A0003768103FAF4200D86FE2A76A002F00D12E
:1009B0006BE20227104D3560E754FAE42C230E2237
:1009C0000721E254083BE25C1E3B5600921991401D
:1009D0009340856A8D438562826A084913432622C3
:1009E0008362A25C0300920018339B18196068E5CB
:1009F000CC2A0000B5020000FFFF00009A060000AC
:100A00002425655D0768AC4610256646B5402F4233
:100A100000D009E77326012726230722E35CA755A8
:100A200066461700760066440621B740BC460F00B4
:100A3000B740019730275E00B74002970327F618AA
:100A40006E25B7409B0000930823B2403E00675BD1
:100A50001F4324336753E1540400009BCA491834F0
:100A6000E31819606146836A019F8B438362836A3E
:100A70003B4383624369029F9343436143691E433F
:100A80004661C36BBB43C363C36BC36319E52425D2
:100A9000665D0568AC461025B5402F0065463D42B1
:100AA00000D047E209266E270225E654E65B2E4376
:100AB000E6537EE4242110230268615C15008B401C
:100AC0001D401A4200D1AEE000238360F9E4A36A1E
:100AD000002B00D1C5E000222C23A2620632E25492
:100AE000AA4B059326230599E25C7BE72423262560
:100AF000E15C8122FFF743FCA369615D1868022273
:100B0000FFF7EAFBA26925271068635D0200A04990
:100B100018329B00D3181960E35D01269B00D218A0
:100B20009C4B0635136000236655A362C9E48A0016
:100B300029E5030025229749183357E51A33E25C6B
:100B40000725816A1E3B3EE520252C220620A35B5B
:100B50002B43A353A762A0546C228023A05A5B00AE
:100B60000343A352894D262608680322A15DFFF79F
:100B7000B3FB2423E15CA36981221868FFF7FFFB24
:100B8000A269A35D10689A00030018339B181D60CA
:100B900097E4236CE26CD218013323641578EDB22C
:100BA000A7E4A36A002B00D0FDE42C220821059BBA
:100BB0003933FF330593A154FBE48F23DB00059306
:100BC00095E5A56A002D00D0E8E6F2E6A3622C22A6
:100BD0000623A354266C072E00DC27E5636D1B78E3
:100BE0009343902B00D197E07423E25C002AB3D0AA
:100BF0000022E254B6E78223059ADB009A4200DC29
:100C00005FE46C220221A35A0B43A35259E46C22E5
:100C10000821A35A0B43A35296E5A169E4E72423D4
:100C2000A269E15C106826268122FFF7A8FBA36970
:100C3000A15D18680222FFF74FFBA2692527106803
:100C4000A35D0200524918329B00D3181960E35D7E
:100C5000253E9B00D2184F4B13602C23E654A5620F
:100C60002FE401237022A3544B4A2C2505922622FF
:100C70000D2707263021A25C67555500AA1896401B
:100C80009340A94073254269B243426142691343CC
:100C90004361C36B8B43C363C36BC363635D002B4F
:100CA00000D11FE77123E35C002B68D0A36B0133F5
:100CB000A36317E7A26D059B21369E4200DB41E549
:100CC00080235B009A4200DD3CE56C210825635AD5
:100CD0002B43635236E52068304E03685A6B182365
:100CE000B24221D19D4200DACCE0206803685A6B01
:100CF0001723B24200D0C2E06C2240212364A35AE1
:100D00000B43A35242E51B6B1B7D5A0759D5002D9F
:100D100060D01E4DA16926E7206803685B6B984789
:100D200086423DDB266C81E490470300DAE7226BC4
:100D3000636B9A4203DAA26BE36B9A4204DB6E2286
:100D40008021A35A0B43A3526E220021A35A0020F4
:100D50009BB22361E36CA1526D3A6275002B00D007
:100D60001870002370217322206D2363E0642365D3
:100D7000A363A364054D6354A169A354F3E6236BF5
:100D800001332363AEE6C046781E0000E81300007E
:100D9000FEFF0000FFFF0000AF050000B5020000ED
:100DA000636DDD781A795B792D025BB21543002BF8
:100DB00070DB23685A8C1B6B1B7D954279D05A07D8
:100DC000A7D402221A4205D0636D1B78134201D0CA
:100DD000CC23A3628848A26F836D06339A422DD834
:100DE0002025636D1A78154228D161681A780E782B
:100DF0007240AA4322D1256C012D8ADD013203E025
:100E00000132AA4200D184E79E1836788F5CB7423F
:100E1000F6D0A268002A19D0C0236C228021A362D8
:100E2000A35A0B43A352A36A002B00D171E72C23D2
:100E30000522B625E254A169ED0094E6A268002AD5
:100E4000EAD1236C002B08DB636D61689B181B786B
:100E50008B54236C01329342F6DA6C220026012572
:100E6000A360A35A616D9BB2E360A6522575836DA2
:100E7000A3670B785B06D6D4CC23A362D3E7904755
:100E8000431E39E7636C256C76E42C230822E25478
:100E9000FFF717FB2368586B002800D133E703687E
:100EA00029001B6898472368002800DA2BE71B6B92
:100EB0001B7D5A078ED484E7252302006826A5648B
:100EC00026253027E35C18329B00D3181E60635D33
:100ED000653E5D00AF40ED189B00D3188B221A6071
:100EE00062460721AE405300062263449A400196B1
:100EF0000E009446AE400A0035009A404369160041
:100F0000AB4343614369019D2C222B4365464361FA
:100F1000C36BBB43C363C36BC363836AB343836263
:100F2000836A2B436E258362009B63532364A15421
:100F3000FFF7C7FA0300B6002C339E1925230200E1
:100F4000E35C18329B00D318356819682739A94229
:100F500037D931683E2934D98F212627274DC9003A
:100F60001D600091E35D01269B00D318009A6E215D
:100F70001A602C230422E2544833E654635A3C326C
:100F800013436352FFF79DFA6E2380200021E25A3B
:100F90000243E252E25A92B22261E152E36C013121
:100FA00000226175002B00D01A700023702173227B
:100FB000256D63542363E5642365A363A364A3548D
:100FC0005AE42C230922E254FFF77BFA682378E4E1
:100FD0006E221023A15A0A4D0B43A35273230332EE
:100FE000A654A169E654BEE56C222023A15A266CC2
:100FF0000B43A352FFF715FB88010010FFFF000011
:10100000883C000010B5024BD86DFFF7CBF910BD3E
:101010008801001000234268437413700122524279
:10102000828202320281084A8375110060310B808E
:10103000C169438283610B701100013062316432F7
:10104000C3770B80138070478801001010B54024CF
:1010500021420ED1B0234372130A03736023C1737C
:1010600001008373036842739B6A07220931984722
:1010700010BD9B0019432143ECE70020009B187032
:1010800070470B4B10B560331A88040001321A8088
:10109000437C002B01D00023437481212000628A0D
:1010A0000023FFF7D3FF23682000DB69984710BDBA
:1010B00088010010054B10B560330A001988013112
:1010C000198000238121FFF7C1FF10BD88010010A6
:1010D000037A10B5002B0BD0437C002B08D0054BB6
:1010E00082699B6D9B1A044A934201D9FFF7C9FF9D
:1010F00010BDC046880100106F1700007047030044
:101100005A680020914203D39B688B424041C0B291
:101110007047030010B50020914206D85C68A142D8
:1011200003D39B6893424041C0B210BD436800693D
:10113000C91A4018704742680300891AC268002023
:10114000013A8A4201D31B69585C7047426810B566
:10115000891AC2684C1C013A03000020944204D84A
:101160001A69535C105D1B02184310BD10B5141EA4
:1011700000D072B6024B9847002C00D062B610BD6A
:10118000F11FFF1F70B5FF261E4B0500013BDA174C
:101190003240D2180C008CB0121290422FD91A494A
:1011A0000139CB1733405B181B12984227D8944261
:1011B00025D99C4223D832230293030903930122A9
:1011C000230907A902A80493FFF7D0FF079B1E403D
:1011D000019307960FD13B23FA2102930B4B890011
:1011E00018680395049401F0CDF90122059007A930
:1011F00002A8FFF7BBFF0798C0B20CB070BD122069
:10120000FF30FAE7F02C0000000001001C01001084
:10121000F0B505000F008DB0002A07D0091A002292
:101220000131FEF7D7FF002800D184E0FC17EB174F
:10123000FF21260018000E400840F619401936120A
:101240000012321A01320F2A04D83100FFF79AFF38
:101250000DB0F0BD2A056BD01B051B0D5D192D13BC
:1012600001352D036A1ED317194089180912FFF79B
:1012700089FF0028ECD12405EB17240DE7191B0585
:101280001B0D3F135D193B031B0A2D13F21A0F2A86
:1012900006D031001800FFF775FF0028D8D1013FB4
:1012A000AF42D5D3274A013AD3171B05190D891828
:1012B00009138D4242D924480138C2171205130D73
:1012C0001B181B139D4239D88F4237D99F4235D8FE
:1012D0003223012207A902A8029303950497FFF77E
:1012E00045FF079B01936B461B790793002B1CD18D
:1012F000FA2134330293154B89001868039504973B
:1013000001F040F90122059007A902A8FFF72EFF7E
:10131000079B0193002B08D13533012207A902A8AE
:10132000029303950497FFF721FF0798C0B28FE758
:10133000892040009FE78920400089E70420FF3092
:1013400086E7C046F02C0000000001001C010010E0
:10135000024A936D013393657047C04688010010BF
:101360000C4B19789A7849060BD5D978187913045B
:10137000FE220002084340BAD20380B21340184351
:101380007047FE2258785B880004D2035BBA104095
:101390009BB2F4E704020010064B1878420606D50B
:1013A000FC225B78000292011040184370473F23F3
:1013B0001840FBE704020010F0B5802676000D000F
:1013C0008DB031000400FEF705FF002839D0E31787
:1013D0001B051B0D1B191B1372B6322207A90292A3
:1013E00002A8002203930493FFF7C0FE079B01931A
:1013F0006B461F790797002F05D062B60798C0B2D9
:1014000080B20DB0F0BD3323FA2102930E4B890058
:10141000186803940495059601F0B4F83A00069014
:1014200007A902A8FFF7A2FE079A002AE5D13823F0
:1014300007A902A80293039404950596FFF796FE68
:10144000DBE781204000DCE71C0100100123F0B540
:10145000194F1A4E41185B4288422AD00278184D23
:101460005340DA079C07D217E41734403A406240F1
:101470001C0A62405C07E4172C406240114D1C07B7
:10148000E4172C406240104DDC06E4172C4062400B
:101490000E4D9C06E4172C4062400D4D5C06E4178F
:1014A0002C4062401B060B4CDB172340534001309D
:1014B000D2E7D843F0BDC046963007772C610EEED8
:1014C00019C46D073288DB0E6410B71DC8206E3B4F
:1014D0009041DC762083B8ED104B114902685B180F
:1014E0000133FF331B0A013310B51B020400002037
:1014F0009A4211D30B4B013B9A420DD86168994235
:101500000AD88A4208D201311000891AFFF79EFFDB
:10151000A368181A4342584110BDC046F02C000081
:101520000000000000000100802301385B049842A5
:101530000DD2C021064A090650600648036A1B0204
:101540001B0A0B4303620023936007331360704749
:1015500010E000E000ED00E0802070B54004FFF7EF
:10156000E3FF00F0FDFA1F2101228025094B0A4C00
:101570001B68ED0319405B068A409B0F07499B00DF
:101580005958A3682B4203D1130090004350F8E749
:101590000023FAE70001001010E000E0CC2A000070
:1015A000F7B543069B0F0093344B01279C466246D8
:1015B000009B3D009B009C581F2303400193019A10
:1015C0008EB295408022330B09051B03090DADB285
:1015D000760B1202032E23D1A6583543A550E024E2
:1015E0000622E401A34200D00122C30503D5022A4A
:1015F00001D08023194300241F23401205001D4001
:10160000954235D10C23009A21435343019A9B18EC
:101610005B0063441B8A1A4A9B189B001960F7BD44
:10162000A658AE43A6508022920193421AD1154B80
:10163000984204D1144B00221A600732D5E7134BAD
:10164000984203D1104B07221F60CEE7104B9842FF
:1016500001D1104BEFE7104B07229842C5D10D4B3B
:101660001F60C2E7C02292019342BDD10222BCE7B3
:1016700001344011042CC1D1FFF76EFFCC2A0000C9
:101680000010011002C23A00C040044063823D00D5
:1016900025423C00D040044049C20100F8B5070093
:1016A000FFF7B8FC032301267C6A30002200636345
:1016B000E36300237432A360E364A36223651370C1
:1016C000483A1370A169314AD56F94460A790732B6
:1016D0009040020060462A43C26708683100C36335
:1016E00043618362A31DDB7F426F99400B0013436C
:1016F0004367631DD97F8122FEF741FEA269244919
:1017000015686B6833436B6013791F2210331340E5
:1017100032009A401F4B1A601F4B186800F032FFCE
:1017200002220138E8606B68280013436B606B6825
:1017300093436B60E31DD97F2B008A0018339B18FD
:10174000164A1A600322FEF7C7FDA31DD97FA369BD
:101750008E401B6888001A0018321218104810605A
:10176000104A926DA26798603500DA6B15401642F8
:10177000FAD1E021206AC901FFF712FF0A49E069A6
:10178000FFF70EFF0123FD633B64F8BD04800440B6
:1017900040420F0000E100E01C0100105014000066
:1017A000FFFF00008801001020200000F0B50400B9
:1017B0008BB0FFF78DFC636AD96C9A6800293AD127
:1017C000002A38D01A002C321278D0B2012A32D135
:1017D000226B127D52072ED5C0265F68B6003A797B
:1017E000FD7812022A4352BA92B20592BA79F97977
:1017F00015029B6835400D43F021069394466B46D5
:10180000A02289001B7E29409200914208D054D822
:101810000E008022813EFF3E9643B6B2002E4ED18E
:10182000059A002A4DD12268200095693A00A84700
:10183000002800D0AAE0A06A00283CD0B649FFF7F3
:10184000AFFEA26AB54D53069B0F9B0058591F234C
:10185000134004229A401358606C5A1E9341B04AB8
:10186000216C926D834200D16BE1E2636364236C6F
:10187000002B06D1002904D0226B7F3B117D4B4009
:101880001375C021A06AC901FFF78AFE01201F223B
:101890000100A36A1A4091400A00216BE46A097DA5
:1018A00001400020A14200D010005B069B0F9B006E
:1018B000EB589200D0500BB0F0BDB142B0D029002F
:1018C000AEE77D797F2D07D92068009345693B00FD
:1018D0002000059AA847ABE7658C059A954255D13B
:1018E00020267A1C0792BA787D7812022A43059244
:1018F0003A78324208D00022D0B2834222D9B85C72
:10190000E569A8540132F7E7621CD27F002AF2D0C1
:101910009342F0D1E5692A78B2432A70E5693E78AE
:101920002A789642E7D16A46127E013A0692069AD2
:1019300090422BDA2E5C32003E5CB242DBD10130A9
:10194000C0B2F4E73C22604690430200601CC377BB
:1019500050B200286FDA059B5DBAA9B2802A0FD079
:10196000812A30D03D2362469A430FD06346627C81
:10197000DB075AD4002A39D12000FFF79BFB05E092
:10198000667C002E07D0013E012E13D9236820006B
:101990005B6A98474FE723682000DB699847604BF4
:1019A00065829B6DA682A361637CA675012BEDD039
:1019B00001232EE0638A8B42DED100232000637472
:1019C000FFF75FFBE2E7637C013B012BDED8638A14
:1019D0008B42DBD100236374514B216860331A883A
:1019E000200001321A80CB699847CFE7638A8B4287
:1019F000C2D1BB79FF2B01D09B061B0F142161566E
:101A00008B4208D02000FFF73CFB637C002BBDD04D
:101A100000236374BAE7022AF4D101330D32134074
:101A200023753F4B9B6DA361C2E7002AA4D0638A54
:101A30008B42A1D1E6E7079A7D78527812022A43B9
:101A4000BD7952BA92B2FF2D01D0AD062D0F608A3A
:101A5000904202D1607C002801D111008CE7152052
:101A6000205685425ED1172668B2059004A8361824
:101A7000002030702068029301970096036A2000CE
:101A80001D00059BA847628A059BC2212000FFF725
:101A9000DDFA0F22637D224D013313406375AB6D78
:101AA000A3613378002B34D03B78033A1A4050239B
:101AB0005B42134362682000137023685B6A984797
:101AC000002333700133A375637C002B21D03C21AC
:101AD000626893798B43217D89000B4340210B433E
:101AE0009371628A6368110AD9701A71637C022B40
:101AF00001D0022363740023A375636820005A7920
:101B00000F231A40236861689B6A07329847AB6DC0
:101B1000A3613378A37539E710100000CC2A0000C8
:101B2000880100100F2301381840854200D069E772
:101B30006BB2C2212000FFF789FA084B9B6DA361AD
:101B400024E7E06B002800D191E6121A322A00D572
:101B50008DE600222364E26389E6C0468801001016
:101B6000C02110B5054CC9012068FFF719FD80217F
:101B700060684901FFF714FD10BDC0460001001068
:101B800010B5FFF7E9FC0C4B70B50C49060018685E
:101B900000F0F8FC0A4C023E7043A568ADB2002884
:101BA00008DDA3689AB2AB1A01D561685B1815000D
:101BB000C01AF4E770BDC0461C01001040420F007F
:101BC00010E000E0802370B55B000400994225D14D
:101BD0004268503B137000224368FA25DA701A718C
:101BE000E12342682D0153710122436828009A7154
:101BF0003F32DA71FFF7C7FF2800FFF7C4FF084B39
:101C00002821986D00F044FD0A204843281AFFF768
:101C1000BAFF08226168606AFEF773FB012070BD9D
:101C200088010010802070B54004FFF77DFCFFF7AD
:101C300097FF1F2101228025094B0A4C1B68AD0329
:101C400019405B068A409B0F07499B005958A368BF
:101C50002B4203D1130090004350F8E70023FAE72A
:101C60000001001010E000E0CC2A000010B53A237B
:101C700004008AB0684605A901220093FFF776FAAE
:101C80001022200006A900F05BFD0598C0B20AB042
:101C900010BDA023F0B587B00D9C9B0099420CD0DD
:101CA0000133FF33C32099425BD1BFF34F8FB54B54
:101CB000B54ADA60BFF34F8FFEE701230C9AB34DAC
:101CC00013700F22E179B24F0A40A969607AB942D4
:101CD0000BD001001439C9B20D2903D88B40AD498E
:101CE0000B4202D10820FF3038E00138272800D904
:101CF000B1E200F0D3FC9200A7000502D600720109
:101D0000B002CB01D901B002E601E601E801B00260
:101D1000B002B002B002B002B002B0028E00B00257
:101D2000B002B002B002B002B002B002B002B00223
:101D300028005400B0026A00B002B0024F02B002A4
:101D4000B002B0027802944E336B1A7D0123110069
:101D5000194001911A4206D0AF610020FEF78AFABD
:101D6000C22007B0F0BD02A8FFF780FF483680B25E
:101D7000019B30800A340028F0D102AAE15CD25CD9
:101D8000914202D084204000E8E701330C2BF4D1CB
:101D90000020AF61FEF76EFAFEF780FAE0E77E4CB6
:101DA000236B1B7DDB079DD502A8FFF75FFF80B289
:101DB0000028D3D120210C20FEF747FA0C226068BE
:101DC00002A90A3000F0BCFCCAE7744A744B9B18A5
:101DD000A27A2C000133FF331B0A013301321B02AC
:101DE00012029A1AD26808349A4204D36D4B053B0A
:101DF0009A4200D21400684D00222B000C20483378
:101E000022211A80FEF721FA68680C2221000A308C
:101E1000D8E7614B48331888A0E78020A37A5E4951
:101E2000013A9D18CB644000854201D98220AAE77F
:101E3000086D8018086521005B480B31181800F008
:101E40007FFC8AE720000A30FEF7F4F90500200045
:101E50000E30FEF7EFF9002229000600FEF7BAF96E
:101E6000002801D181208EE780235B009D42DDD8D0
:101E70004D4F29003800FFF7E9FA05002000123025
:101E8000FEF7D8F9854201D002202CE7424A3900FA
:101E9000536D30000133FF3353650022FFF78CFA96
:101EA0005CE780213C4B4900DB6CD3188B42BDD8EA
:101EB000C626A3180193B600019BA34200D14CE7AC
:101EC0003A4DA37AAA59012A20D0022A74D0002AB6
:101ED0001AD1013259B22B70EA6000290CDBAA60DA
:101EE0004022134202D0AB680133AB60AB68012BD8
:101EF00004DD0123AB5107E00422F0E70223AB51DC
:101F0000C52300229B00EA500134D5E7E9686B54F1
:101F1000AB684A1CEA609A42F6DB0022AA562B788C
:101F2000002AEBDA402213421AD0AB787F2B19D962
:101F3000FFF716FA0700FFF72FFAC4239B000200F1
:101F40001B49E8581B4B7918181800F0F9FBFFF7EC
:101F500023FAC4239B00EA581018E8500023C9E76D
:101F60006B78E3E7C8239B00EF58FFF7F9F93F18B8
:101F7000FFF712FAC4239B000200E8580D4B39000A
:101F80001818E2E700ED00E00400FA050001001077
:101F90005AA55AA5012C000088010010F02C000061
:101FA00000000000000001002805001004020010DD
:101FB0001403001014020010C42189006A58501C38
:101FC000AA181374C5239B00EA586850571CEF5099
:101FD000FFF7E2F9874297DBC0E7C423C7269F4D8E
:101FE0009B00EA58B600019201990022A859FEF719
:101FF000F1F8002800D135E7994F01993800FFF733
:1020000025FA019020001230FEF714F9019A90424F
:1020100000D039E78022934C52002100924800F012
:102020008FFB80222000A959520000F089FBC423B5
:102030009B003900EA58A85900F074FB8B4CA0664D
:1020400000280DD0AB59180AC0B20100FFF79AF86A
:10205000AB59A066002239001878FFF7ADF9A066E9
:10206000C7229200AB5800210133FF33AB50C42389
:1020700080229B007A485200E95000F06AFBA06E73
:10208000002800D186E68820400083E6784A794916
:10209000013AD017C0B280180022001201300002AD
:1020A0000139FFF7B5F875E620000A30FEF7C2F8EF
:1020B000050020000E30FEF7BDF8012201002800C7
:1020C000EFE76D484AE6694D0D210A206C68FEF77E
:1020D000BCF82B0060331B880022190A23732B00E5
:1020E00062331B8864356173A373190A2B88E1730B
:1020F000190AE272A27261742374E274A2742FE668
:1021000020000A30FEF796F8802306005B00984214
:1021100000D98BE6594D01002800FFF797F9070019
:1021200020000E30FEF786F8874200D0ACE6544C13
:10213000544B3200E4180134FF34240A01342402E1
:10214000671EFF3F2900380000F0ECFA002807D195
:1021500000262800FFF7C0F9002819D10730C2E592
:10216000200A01380100FFF70DF8002800D0F5E53E
:10217000012229003800FFF71FF90400061EE7D0EE
:10218000FEF778F88123C2205B009C42E1D1E8E5AC
:102190003000E3E53B4A3A4B36499B180133FF33A5
:1021A0001B0A01331B025C1EFF3C20680139002220
:1021B0006568884202D8A9425241D2B2984205D3FA
:1021C0009D4203D3854201D3002A05D101235B42FE
:1021D00023606360E360A3600C202521FEF735F8DF
:1021E000224B586811E620000E30FEF723F81F4CF2
:1021F00041280FD82A210820FEF727F8002263681B
:102200005A731A73DA729A725A741A74DA734232FF
:102210009A73A5E51B4A1A4B29219B180133FF33FA
:102220001B0A01330C201D02FEF70FF810210022BB
:102230006368D972613199727039D973290E5975F1
:10224000290C2D0A5A731A735A741A749A731975D1
:10225000DD749A7484E5802095E5C0460402001080
:102260001402001014040010140300108801001060
:10227000F02C000000000100FFFF00002805001006
:1022800000000000F02C000010B50400482100F010
:1022900068FA200010BDFA21324B70B589000600A3
:1022A000186800F06FF9FFF73FF900232E4CA36583
:1022B000403B6384A36D5A1C01334AD0E2662E234F
:1022C0000125226B20001375236B5D75FFF7E6F97E
:1022D000002E22D0A36A002B1FD07F23226B5B42EB
:1022E000117D0B43C0211375A06AC901FFF758F98E
:1022F0001F222900A36A00201A4091400A00216B86
:10230000097D2940E56AA94200D010005B06174903
:102310009B0F9B005B589200D05025000126703522
:102320002000FFF743FAE26E002A0ED0A36D9B1A3D
:102330000BD4637C002B0FD0A36DFA33E366002B24
:1023400000D1E6662B7873402B702A78084B5A60D0
:10235000E6E70123E366B2E7FA22A36D92009B1839
:10236000ECE7C0461C01001088010010CC2A0000D8
:1023700000000250F7B5534C0122230074331A7148
:10238000514B524A6367524B524D9B180133FF33F6
:102390001B0A01331B0205220021280000265F1EB4
:1023A000019300F0D6F92800802231005200AE607F
:1023B000EE60103000F0CDF928008022113031009D
:1023C0009200FF3000F0C5F9C4239B00EE500433A7
:1023D000EE500433EE500433EE50FF3F0433EE5022
:1023E0003800FFF779F8019BB04200D03B68C82263
:1023F0009200AB50043AAB501C20002600F0B5F917
:1024000001230700466083600220334BF860783375
:102410003B6000F0BCF9314D38612A0024323A604B
:102420002A0050322260BE82BE61182000F0AFF94F
:1024300001235B426060267266746682A382A67581
:10244000A661182000F0A3F98435631CDE77E061F3
:1024500025607C2000F089F905000460182000F058
:1024600096F922001E4B6860EB6128681D4B7432A0
:102470002B620368AA61AE845B6B984700F087F912
:1024800003226865AB1DDB7F200002331340EA1D89
:10249000D377012325321670E362134A134BA262ED
:1024A0001A602A6A65625A60114B27634433666377
:1024B000A663E6630F4A10492360E56500F0F8F86B
:1024C000E666F7BD8801001000000140F02C000016
:1024D0000000000004020010CC2A00004C2B000079
:1024E00028C201002982690040825C0000010010BE
:1024F000CC2B000020010010D30100008E212020F1
:102500001A4B89005A5882435A50002271391A6274
:10251000FF39C04601390029FBD101221A645A64EF
:1025200059645A64596C1142FCD023228E218020B8
:102530009A6089005A5882435A500122D968114240
:10254000FCD00321196700215A6759675A67012295
:10255000596F1142FCD09A670549064BD967064B63
:102560001A60064B1A60064B1A60704700800440E0
:102570005F0001000480044094800440988004407F
:102580009C800440002243088B4274D303098B4291
:102590005FD3030A8B4244D3030B8B4228D3030C33
:1025A0008B420DD3FF22090212BA030C8B4202D3D5
:1025B0001212090265D0030B8B4219D300E0090AFD
:1025C000C30B8B4201D3CB03C01A5241830B8B4206
:1025D00001D38B03C01A5241430B8B4201D34B03EF
:1025E000C01A5241030B8B4201D30B03C01A524154
:1025F000C30A8B4201D3CB02C01A5241830A8B42D9
:1026000001D38B02C01A5241430A8B4201D34B02C1
:10261000C01A5241030A8B4201D30B02C01A524125
:10262000CDD2C3098B4201D3CB01C01A52418309D9
:102630008B4201D38B01C01A524143098B4201D313
:102640004B01C01A524103098B4201D30B01C01A3E
:102650005241C3088B4201D3CB00C01A52418308B8
:102660008B4201D38B00C01A524143088B4201D3E5
:102670004B00C01A5241411A00D201465241104645
:102680007047FFE701B5002000F006F802BDC04624
:102690000029F7D076E770477047C04603B471460B
:1026A000490840004900095A49008E4403BC70475C
:1026B000030010B50800190000F002F810BDFFFF7C
:1026C00010B5040004481300002804D00A000220BA
:1026D000210000E000BF10BD0000000070B5002622
:1026E0000C4D0D4C641BA410A64209D1002600F02D
:1026F000ABFA0A4D0A4C641BA410A64205D170BD6A
:10270000B300EB5898470136EEE7B300EB58984713
:102710000136F2E7542C0000542C0000542C000029
:102720005C2C000030B500240139A24201D1002008
:1027300005E0035D01340D5DAB42F6D0581B30BDA2
:10274000002310B59A4200D110BDCC5CC4540133B3
:10275000F8E703008218934200D1704719700133E3
:10276000F9E710B500F017F810BD10B5041E00D140
:102770000134200000F040F8002807D100F010F8E4
:10278000002801D100F012F88047F2E710BD10B523
:10279000FFF7EBFF10BD10B500F038F810BDFFFFDC
:1027A000014B18687047C04628060010FEE7FFFF7F
:1027B00010B5064C2378002B07D1054B002B02D017
:1027C000044800E000BF0123237010BD2C06001058
:1027D00000000000682C0000044B10B5002B03D053
:1027E0000349044800E000BF10BDC04600000000DF
:1027F00030060010682C000010B5034B010018686B
:1028000000F07AF810BDC0462401001010B5034B4B
:102810000100186800F004F810BDC0462401001043
:1028200070B50500002910D00C1F2368002B00DABA
:10283000E418280000F0E8F81D4A1368002B05D1C1
:1028400063601460280000F0E7F870BDA34208D967
:10285000216860188342F3D118685B6841182160D1
:10286000EEE71A005B68002B01D0A342F9D911688A
:102870005018A0420BD120680918501811608342EB
:10288000E0D118685B68411811605360DAE7A04234
:1028900002D90C232B60D5E721686018834203D14D
:1028A00018685B684118216063605460CAE7C046DD
:1028B0004806001070B50F4E0D0031680400002965
:1028C00002D100F08FF830602900200000F08AF873
:1028D000431C0AD00323C51C9D43A84207D0291AD4
:1028E000200000F07FF8431C01D101256D42280033
:1028F00070BDC0464C060010F7B50322CB1C9343B5
:10290000083306001F000C2B32D20C27B94231D8F5
:10291000300000F079F8324D2B681C00002C2ED1CD
:1029200039003000FFF7C6FF0400431C1ED12C689D
:102930002500002D4AD123682900E31830000193B7
:1029400000F050F8019B834243D123680337FF1AFC
:1029500003239F4308370C2F00D20C273900300087
:10296000FFF7A8FF431C34D02368DF19276013E06A
:10297000002BCBDA0C23002533602800FEBD226833
:10298000D11B20D40B2917D9E2192760A34211D1FA
:102990002A606368116053603000250000F03CF845
:1029A00007220B35231D9543EA1A9D42E5D05B1B98
:1029B000A350E2E75A60ECE76268A34201D12A60C3
:1029C000EAE75A60E8E723006468A7E72C006D682F
:1029D000AFE70C233000336000F01EF8CDE7C046AF
:1029E00048060010002370B5064D040008002B6057
:1029F00000F01CF8431C03D12B68002B00D023608F
:102A000070BDC0465006001010B5024800F00CF82A
:102A100010BDC0465406001010B5024800F005F87D
:102A200010BDC046540600107047704770B50D4D7C
:102A300004002B68002B01D10B4B2B6003232E6865
:102A400003349C433419200000F010F8002802D110
:102A50002C60300070BD00F015F801260C23764282
:102A60000360F6E7580600105C06001003000448F7
:102A7000002803D000228342524110007047C04614
:102A800000000000014B18687047C0462401001088
:102A9000B40A0000C2030000D0030000FE050000DD
:102AA000980600000C0800002E08000056090000DF
:102AB000E80400004E0900008E0A0000EC0A000045
:102AC000CE0A0000BC090000000A0000000000500F
:102AD00000000150000002500000035003000400F9
:102AE00007000B000C000D00130014001800190063
:102AF0001A001D001E001F002000240025002800D1
:102B000029002A0005000E001B00260002000A0012
:102B10001700230010001100000008000900150034
:102B200016001C002100220027002B000F001200BD
:102B30000000000000000000000000000000000095
:102B4000000000002D110000371100004D110000A1
:102B5000FF10000013110000811B0000811B00000A
:102B6000811B0000811B000000000000000000002D
:102B70002D110000371100004D110000FF10000062
:102B800013110000BD010000BD010000C3010000E1
:102B9000C70100000000000000000000000000006D
:102BA00000000000D1100000B90100001510000065
:102BB000811B0000811B0000FD1000007B10000045
:102BC000811B0000811B00000000000000000000CD
:102BD0000000000000000000AD170000B901000077
:102BE0009D160000811B0000811B0000FD100000ED
:102BF0007B100000B902000075030000811B00007B
:102C0000C1020000B502000000000000000000004A
:102C1000D301000089220000AD170000B9010000B7
:102C20009D160000CF010000C51B0000FD10000034
:102C3000931C0000B902000075030000CB010000E6
:102C4000C1020000B5020000F8B5C046F8BC08BCDF
:102C50009E46704775230000D9270000F8B5C0468E
:082C6000F8BC08BC9E46704759
:102C680040825C00298269005B5342204B4E582009
:102C7800424C205D00000000A55AA55A006CDC02F9
:102C88000000000028010010000000000000000003
:102C9800000000000000000000000000000000002C
:102CA800000000000000000000000000000000001C
:102CB800000000000000000000000000000000000C
:102CC80000000000000000000000000000000000FC
:102CD80000000000000000000000000000000000EC
:082CE8000000000000000000E4
:04000003000000DD1C
:00000001FF
