:10000000001F00100B010000D5000000D700000009
:1000100000000000000000000000000000000000E0
:10002000000000000000000000000000D9000000F7
:100030000000000000000000DB0000001D1B0000AD
:10004000DF000000DF000000DF000000DF00000034
:10005000DF000000DF000000DF000000DF00000024
:10006000DF000000DF000000DF000000DF00000014
:10007000DF000000DF000000DF000000DF00000004
:10008000DF00000075110000DF000000DF0000004D
:10009000DF000000DF0000000000000000000000A2
:1000A000DF000000DF000000DF00000000000000B3
:1000B000DF000000DF000000DF000000DF000000C4
:1000C000E81E0000000100101800000018010010D8
:1000D00040160000FEE7FEE7FEE7FEE7FEE7FEE76C
:1000E000002330B55C181D18934203D22D680433E9
:1000F0002560F7E730BD002310B51C001A188B42AD
:1001000002D214600433F9E710BD10B50D4C0E4B4C
:100110009C4206D2A26861682068FFF7E1FF0C34B8
:10012000F5E70A4B9C4205D261682068FFF7E3FFC0
:100130000834F6E700F066FE01F0FCFD00F010FB6D
:10014000FEE7C046C0000000CC000000D400000064
:10015000F8B504000E0005220021002501F025FE5F
:10016000200080222900A560E5605200103001F0D7
:100170001CFE20008022113029009200FF3001F087
:1001800014FEC423C8279B00E5500433E550043314
:10019000E550BF000433E5503000E55100F020FA8F
:1001A000E051300000F01CFAC7239B00E050200013
:1001B000F8BD03785A0606D5FC2240781B0292014E
:1001C0001340184370473F201840FBE703785B0655
:1001D00002D58078C00970474078FBE70200FE2313
:1001E00011788078DB03490609D50004184013799B
:1001F000D1781B020B435BBA9BB21843704750780F
:10020000000418405388F6E7F8B5842380229B0049
:10021000C5180400113029005200C726FF3001F034
:10022000BBFD8022B6002800A159520001F0B4FDA8
:100230002700C42310379B003900E258A05901F071
:100240009DFD124D286000280ED0A359180AC0B297
:1002500001F0A8FB2860002816D180223900A0599F
:10026000520001F0C1FB2860C7229200A358002170
:100270000133FF33A350C42380229B003800E15098
:10028000520001F092FD2868F8BDC0461801001028
:1002900070B5C626B60083590400012B20D0022B6E
:1002A0004FD0002B12D101334AB20170C360002A33
:1002B0000DDBA3604B0602D5A3680133A360A368DE
:1002C000012B06DDC62301229B00E25070BD0423F2
:1002D000EFE7C62302229B00E250043B0022F4E732
:1002E000C268531CC360815482689342EEDB03787A
:1002F0007F2BEED9FFF76AFF06002000FFF76EFFA5
:1003000005002000FFF755FFC423020020009B00DA
:10031000E3581030C018002E0FD021001131FF31EA
:10032000491901F039FD2000FFF743FFC4239B006A
:10033000E2581018E0500833D0E7C8239B00E1587A
:10034000EEE7C42292008358581CE318A050197499
:10035000C5239B00E2582000551CE550FFF729FFFC
:100360008542B3DB0023A351B0E7C422010001237F
:1003700010B5920082581031584200F04BFA10BD6F
:10038000C7239B00C0587047C4239B00C0587047C8
:1003900070B50C000300610602D53C210A401443ED
:1003A0000C210C481D0002783B351140502252426E
:1003B0000A43190038310A705A6B6A7016121A0013
:1003C0002E7060253E333D32157007221C7001F0FF
:1003D00068FA70BD70010010F0B5364D0A00AB78B8
:1003E00069781B020B43A97985B0019102A9CE1D42
:1003F000002104005BBA406B9BB2317098422FD150
:100400002D4BA1721B6880216364D0239B00134095
:1004100089008B420CD1F020800031001040274A27
:1004200000F092FA33780100002B0ED0C2210EE0CA
:10043000E023C3219B009A4209D1BFF34F8F204B89
:10044000204ADA60BFF34F8FFEE700280AD03C272E
:10045000019A20003A40FFF79BFF3378002B04D12C
:1004600005B0F0BD38342070FAE70C222B7840211B
:100470001A4050235B4213432371636B1A12237299
:10048000A37AE27118002200084048320B420ED0D5
:10049000216CBB430B43A372012313700F23627AB9
:1004A00028001A400732211D01F0FBF9D8E710702F
:1004B000F4E7C04670010010181700107701001013
:1004C00000ED00E00400FA0570B5264A04009378B8
:1004D00050781B020343402508005BBA9BB22840BA
:1004E000294226D0C320250001404835C22913D116
:1004F000297800290DD0616B99420AD13C2192796B
:10050000E36C0A40934204D0236CE26404330B4052
:10051000236401232B7070BDC329FAD1626B9A4208
:10052000F7D1002220004239FFF732FF0023636336
:10053000EFE780290ED1616B002901D09942EAD101
:1005400063630023084923640968136361644834C2
:100550002370E0E78129DED1616B9942DBD16063D2
:100560001063D8E7700100101817001010B50E4C7A
:1005700063797F2B0BD8E2782379E16A1202134367
:100580008B4204D1A179CB0904D0FFF79DFF002352
:10059000A36110BDC02309029B001940E3791943F0
:1005A000FFF71AFFF3E7C0467001001080230168CF
:1005B00010B59B010400002099420ED3802362688D
:1005C0005B029A4209D8914207D0521A013800F0D2
:1005D00021F9A368181A4342584110BDC0687047FA
:1005E00010B50400FFF7E2FF002801D0206810BD1D
:1005F00080208001FBE7FFFF10B50F4C01230F4A5D
:100600000421200000F0D4FDC0210D48C90100F0F4
:1006100053FC0C4B1A680C4B511C013208D019606A
:1006200020000A4900F002FE0022094B1A7010BD9A
:1006300001221A60F4E7C0461C010010602000008F
:1006400063823D00181700106C010010C0FF00000D
:100650000C160010184A10B514681849002C14D054
:10066000174B1868001B10D416481B68406B0028F5
:100670001DD0FA331360002B01D101231360CA6827
:10068000136A58424341DB001362CB681B6A5A1E4F
:1006900093418A68536000F015F900280BD0BFF32E
:1006A0004F8F094B094ADA60BFF34F8FFEE7FA20FC
:1006B00080001B18DEE710BD6C010010901E0000CA
:1006C000181700101C01001000ED00E00400FA05EE
:1006D000802370B541680468074D5B05F0261A1841
:1006E00036069219126804C3AB42F7D10122034BBC
:1006F0001A60A546084770BDC8000010008004407D
:10070000FA21124B10B51868890001F087FA80238E
:1007100001385B0498420DD2C0210D4A0906506091
:100720000C48036A1B021B0A0B43036200239360FD
:10073000073313600022084B1A60FFF75DFF07487C
:1007400000F0B8FCFFF786FFF9E7C046140100107F
:1007500010E000E000ED00E0181700101C01001090
:10076000802300225B051868124910B51A60884280
:1007700001D1FFF7C5FF1049104800F09DFB104B59
:100780009B685B68002BF4D0F82464012000FFF71D
:100790000DFF002802D02068FFF79AFFF0204001EB
:1007A000FFF704FF0028E4D0064BE058FFF790FF66
:1007B000DFE7C04655B01F5E1010000040825C00AD
:1007C000901E000000FFFFFF13B50B4C50220021CC
:1007D000200001F0EAFA200000F0D4FC074B084AA0
:1007E00023600024074B084901940094074800F057
:1007F00033FD074B1C6013BD1C0100100C1E0000D4
:1008000028C201002982690024170010700100101D
:100810006C010010F7B58B18194D1A4E1A4F019341
:10082000019B994201D1C043FEBD0B78174A584045
:10083000C307DB1713408207D2172A405340020A2E
:1008400053404207D217324053400207D2173A4072
:100850000F4C5340C206D217224053400D4C820623
:10086000D217224053400C4C4206D217224053402C
:1008700000060A4AC017104058400131D0E7C04670
:100880002C610EEE19C46D073288DB0E96300777A7
:100890006410B71DC8206E3B9041DC762083B8ED14
:1008A000064B002801D118607047054A126880186D
:1008B0000028F8D101221A60F6E7C04608050010AA
:1008C000181700100020064A1168814206D0054B17
:1008D0001B685B1A834201DB106001307047C04621
:1008E0000805001018170010437802781B021A43FD
:1008F0008378C0781B0413430006184370470B0E1F
:10090000C3700B0C83700B0A437001707047FFFFBC
:100910000300C2B2002082B082420ED1081E0CD069
:10092000074A0120126801929A4206D8054A5B18CC
:1009300012689A4280410192404202B07047C0461C
:1009400000000000E81E0000F0B5140013780F222C
:100950001A40B34BA3B09B6800911900FC3101937E
:100960004B68584243419B014B60A078282800D92E
:1009700027E201F049F9AD00D300EE009F013E01EE
:10098000730126022602260226021D0226022602E4
:10099000260226022602260226022602260222011C
:1009A0002602260226022602260226022602260207
:1009B000260229005C002602920026028300DA014A
:1009C000260226022602F601964B01261B68964D4A
:1009D0000193FF335B781F003740334205D0934BC0
:1009E000934A1A6000232B601EE002A82F6001F0DA
:1009F0002DF8002813D1E11C8C4684213B002A6885
:100A000049006046C45C02A8C05C844201D0370043
:100A10000A0001330C2BF4D1002F00D02A6084236C
:100A20002A685B009A42DAD1824B002233E0012629
:100A30007C4B7D4D1B680193FF335B78334217D0AD
:100A40007D4B02A81C6801F001F82860002812D133
:100A50006F236372794B2000638180230C229B01FA
:100A6000A381009B0E301E7002A901F095F902E0EF
:100A70000823FF332B60C22023B0F0BD6B4A6C4BC0
:100A800012689A4204D16420FFF70AFF664BCCE754
:100A90000822654BFF321A608FE01F20E378C01AEE
:100AA0000002FFF79BFD802301005B02984200D308
:100AB0006349614B009A18686F2343725F4B43810F
:100AC00088239B01838101230E3013700C22CCE715
:100AD000564A574B12689A421BD1E078524C012873
:100AE00013D9584A584B94461B68019363441B0B17
:100AF000984206D3554B1B68019363441B0B9842E5
:100B000003D900F025FF20608EE70423FF33236024
:100B10008AE70822444BFF321A6085E74349444B79
:100B200009689942B4D180212379E0781B020343FC
:100B30005BBA023A9BB298184901884205D84448EA
:100B4000611D181801F028F9A0E78222364B5200E7
:100B5000A1E7364A364B12689A4299D1E01CFFF75A
:100B6000C3FE0500E01DFFF7BFFE29000600FFF7EA
:100B7000CFFE2D4F002838D001202A0034494042B2
:100B8000FFF748FE019020000B30FFF7ADFE019B00
:100B9000984227D18022D200954220D880239B0002
:100BA0009D4205D880204000A84292410240121880
:100BB0003000274900F018FF38601F4B009A186872
:100BC00067234372234B4381A8235B018381012365
:100BD0001370154B0E301968FFF791FE4BE780221A
:100BE0005201E5E70222104B54E781235B003B6092
:100BF000E3E70E490E4B0968994200D048E780218F
:100C00000C4B49011B68D3188B429ED8A518AC42E7
:100C100000D13BE7E1781048FFF73AFB0134F6E7F3
:100C2000901E0000BC1E0000E0010010100100102A
:100C30005AA55AA5DC0100101C1E0000424C000001
:100C400000010010FF0F000000000000E81E00007F
:100C50000C05001042440000E40100105A4A5B4BAE
:100C600012689A4200D054E7594E3000FFF78CFBCF
:100C700005003000FFF784FB2900FFF749FE8123C0
:100C8000544D002814D03000FFF76FFB0700200000
:100C90000B30FFF729FEB84207D13000FFF7B4FA56
:100CA0008523002804D12860BEE60223FF339AE69C
:100CB0005B0098E6444A454B12689A4200D0E7E64A
:100CC000E01CFFF711FE020006000120424D4042E9
:100CD0002900FFF79FFD0700E01DFFF705FEB84262
:100CE00000D07FE7F82032002900400101F046F8EB
:100CF000002800D1CAE62800FFF758FC354C002830
:100D00000FD01F2000F04EFE2060002800D054E7D6
:100D10008022F82029005200400100F065FE20608A
:100D20004BE783235B00236047E7274A274B126882
:100D30009A4200D0ACE6274B1B68002B00D09AE605
:100D4000264BF82118686F234372254B009A438184
:100D500094239B01838101230E30137049010C22DF
:100D600083E6194A194B12689A4200D090E6194B53
:100D70001A68002A00D07EE66F21184B00981B6885
:100D8000597217495981A421890199810121017062
:100D90001020D974D8731F3143305A741A74987361
:100DA0005A751A759A745A761A76D9759A7562E6D2
:100DB000054A064B12689A4200D069E6054B094A7B
:100DC00069E68022034BC2E6100100105AA55AA51D
:100DD000E4010010E00100100C0500101C1E0000D2
:100DE000424C0000FFFF0000F82110B50348490104
:100DF000FFF7AEF90022024B1A6010BDE4010010AB
:100E0000080500108E2120201C4B89005A5810B56F
:100E100082435A5000221A62C832C046013A002A60
:100E2000FBD10121196459645A645964596C134AFD
:100E3000C907FBD523218E208024916080001158A2
:100E4000A14311500121D8680C4A0842FAD003206E
:100E5000106700205167506751670122596F114296
:100E6000FBD0064B06499A67064BD967064B1A60BA
:100E7000064B1A60064B1A6010BDC0460080044045
:100E80005F00010004800440948004409880044086
:100E90009C80044070B500230400043918B28242DB
:100EA00005DD01339D004D59A542F7D170BD00F01D
:100EB00063FE01204042F9E74306F7B59B0F584A0D
:100EC0009B001F279A580300040001203B408446E2
:100ED00098400E05019088B289140D00030B1B0386
:100EE000360D3D40394200D1654669468F888021E4
:100EF000400B0902032808D1505807435750E022FD
:100F0000D20193423FD1062513E05058B8435050C8
:100F100080229201934228D1424B9C4202D1424B03
:100F2000002204E0414B9C4212D101223E4B072596
:100F30001A60E30503D5022D01D080231E4329004A
:100F4000200000F095FD002863DA00F015FE61E056
:100F5000374B9C4201D1374BE2E7374B07259C4288
:100F6000E7D1344B01221A60E3E7C0229201934299
:100F70004DD00F2D07D1042220003049FFF78AFF02
:100F80002F4B1860D5E70C2D0AD12E4B9C4202D175
:100F90002D4B0022E7E72D4B9C42CAD12A4BE1E7BB
:100FA0000D2D09D12A4B9C4201D12A4BF1E72A4B46
:100FB0009C42BED1274BD5E70E2D19D1274B9C4221
:100FC00001D1274BE5E7274B9C4201D1244BC9E7D0
:100FD000254B9C4202D10222214BC4E7234B9C4269
:100FE00001D1234BD5E7234B9C42A2D1204BB9E73B
:100FF0000B2D9ED1134B9C4203D100221E4B9A61B4
:1010000097E71E4B9C4294D101221B4BF7E7022528
:101010008FE70643200000F033F80660F7BDC046B6
:10102000901E000002C23A00C040044063823D00AE
:1010300025423C00D040044049C20100201E00006F
:10104000D440044042426500C84004402A83300C2A
:1010500043826D00CC400440298269000A4A700630
:10106000B04004404B823B000602700041C2740055
:10107000C44004406242350E00400440448259009E
:10108000030042061F20920F034013385043C0183C
:10109000034B4000C05A034BC01880007047C04645
:1010A000301E000000100110002330300370704724
:1010B0007047FFFF0300F7B530331B780400002BA7
:1010C0004FD0284B9A69002A0CD0DB6C002B09D139
:1010D000254B1B680193FF335B785B0702D50368E0
:1010E0005B689847E06900283BD02049FFF7E4FEA1
:1010F000E2691F4D53069B0F9B0059591F231A404D
:101100001B3B93402000595832224B1E99412430FA
:10111000A76A00F0F1FB144B1B681E000193FF3619
:10112000002805D1002F03D08122737853407370BB
:10113000C021E069C901FFF7BFFE01201F227178BD
:101140000600E369246A1A409640014032000020FC
:10115000A14200D030005B069B0F9B00EB58920031
:10116000D050F7BD70010010BC1E00001010000030
:10117000901E000010B5024800F0A4F910BDC04652
:101180007001001010B50400074B083303602430D1
:1011900000F0AFFB054B0022E36101232362230033
:1011A000303320001A7010BDA01E000040825C0089
:1011B000F7B50400019303680092DB680E009847BE
:1011C00023000025383325711D7025641D74134BD1
:1011D00001221B682E2019000127FF315242623381
:1011E000E264656348701D700D4B8F701B680D487D
:1011F0005A733212DA70009A1D7312125A71009AE1
:101200001E719A71019ADA71074B1D602300303309
:101210001F7000F037F8A7626562F7BDBC1E0000C2
:10122000B81E00007001001014170010064B0A12BF
:101230001B68DA7501221976044B1A700022044BE0
:101240001A60044BD9627047B81E00000C160010DB
:1012500014170010700100104362030030B503AC96
:10126000257804AC247828330262C1611D705C705B
:10127000032302341C40030000222A331C709A729C
:1012800030BDFFFFF7B5334B04001A680126137E0B
:10129000D17D1B020B435BBA02009BB2C3620023E9
:1012A00034328361137004220363C2630200683224
:1012B000C36403651370C06900F0ECFB23003500C4
:1012C000293301931B78E0699D402B000268516F20
:1012D0000B435367230028331978812200F008FC60
:1012E0001F22E7691C493D686B6833436B603B799B
:1012F0001033134032009A40184B1A60184B18688C
:1013000000F08CFC23000138E8602A331978183586
:101310008B00ED18134B022238002B6000F0CCFB41
:10132000019B1978E3698E401B6888001A00183207
:1013300012180D4810609860DA6B1642FCD1E0215B
:10134000606AC901FFF7B8FD0849206AFFF7B4FDDC
:10135000F7BDC046B81E000040420F0000E100E0AB
:1013600014010010FEFF0000FFFF0000202000001D
:1013700070B5040003002500283319782A3581222E
:10138000C06900F0B5FB29780222E06900F094FB07
:10139000E3692A781B680949183392009A1811608A
:1013A00022002932127892009B18054A1A60220006
:1013B000002334321370236370BDC046FEFF00006B
:1013C000FFFF00000023C26C1370026D8363C264D0
:1013D000036583647047FFFF73B500230500036353
:1013E00068352A7804009A4241D1026C072A2ADD26
:1013F00099425DD0C378007900021843637940BAFE
:1014000080B27F2B14D9002803D000F0E5FBC14344
:10141000C90F294B1B680193FF335A7852070DD42B
:10142000226CA2615B789B0721D5CC2323631EE04D
:10143000E16A091A48424141C9B2EAE7002916D0D7
:10144000236CA361F1E7012A32D1436CDBB2436420
:10145000CC2B03D0826BC36B9A4208DDE36C002B6C
:1014600005D0A36B002B02DD2000FFF7ABFF2300AC
:101470002A331978236BE0695A1E93410F4A5B4265
:1014800013400F4A8E009B1802681832921913609D
:10149000032200F011FB230028331978E069812230
:1014A00000F026FB002334342B700333237073BD0C
:1014B000A3610C23BAE7C046BC1E000049F0FFFF41
:1014C000E8130000F7B50400102202272500343588
:1014D0002B78D8B2092B00D9C8E100F095FB0A009F
:1014E00050001E00A100FB00170134017901B20178
:1014F0009701E3691B681A682300283319781023C1
:101500008B401A421FD022000023683223641370DC
:10151000FF2223630133626623662200283211789A
:101520001022E0698A4003681E68310011401642AB
:101530000ED1236E002B03D0616E4B425941C9B2CC
:101540002000FFF749FFFF22E3691B681A60F7BD1F
:1015500022002A3211781A008E0018329219C54ED4
:101560001660012602225A605E60921900F0A4FA09
:1015700000232E706364A3656665E665E3E72300D8
:101580000121E5692A332A681B7810689940060012
:101590000E400196084223D12100283109782C32CF
:1015A000890052181068A26D1100443181421ADA84
:1015B0006832A2654427BC46A26D616D94444E001A
:1015C00084450FDABC37B9420CDC676C68323943AA
:1015D000E76D616479427941A265E1656665E9E795
:1015E000A448E0E76665019A002AACD0216EE26D5E
:1015F0000A40216C2266172906DC626C481C2064B4
:101600006254616E4A406266022122008B4034328D
:1016100011702A681832D318D02252001A6092E74B
:1016200026001100E36928361B6818683378994052
:101630000B0001001940184202D000232B7045E72F
:10164000236B002B1ED06823A1642100E06929319F
:10165000026809781832890051180B6021002A317C
:10166000097823338F00D2191360032200F024FA83
:1016700081223178E06900F03BFA002323640433CF
:101680002B7060E7A26BE36B9A4202DD2000FFF74C
:1016900099FEE26C002A00D1E8E068210F2013785F
:1016A0001B079B0F01334B43517901400831A16463
:1016B000A16B0129C9D110781F3188431070A26C29
:1016C000E06C013A8218107841401170A26B01322F
:1016D000A263BAE72000110028300078E369814056
:1016E0001B681E680E4210D026002936367898688E
:1016F000B60018339B191E680A3E864203D95E481D
:1017000018602F70E2E60523BAE71B68236B002BF5
:1017100010D0236B80216364012349006365636DEE
:10172000626CFF2B0DDC1A4201D04A4062645B0000
:101730006365F4E7236C5A1C2264E26CD3181B78AF
:10174000E8E70123636580206826616C4000626DD4
:10175000530063650A4203D0824201DC6836F6E733
:101760000622682E00D007222A708022920093421F
:101770000ADD236CA26C3936FF36934223DA236BE1
:10178000002B20D105332B7022002B7828321178C2
:10179000E0698122072B00D0802200F0A9F9220005
:1017A000E36929321B6812782978183392009A1855
:1017B00009290AD13049116022002A321278920098
:1017C0009B181E60BFE60923DDE731002339F2E7ED
:1017D000E36921001B6828311A0009782C3289003E
:1017E00052181168220029321278183392009B187F
:1017F0001A68453A8A4207D91F4A1A602200012313
:1018000068322B7013709EE6062339E72200E069E8
:101810002A3203681278183392009B18174A1A600C
:10182000230028331978812200F062F9236B002B02
:1018300003D000232363082322E7A36B0133A363B0
:10184000F9E72300160028331878E36986401B68FF
:101850001968314208D093212C338000181803688E
:10186000C9008B4200D86EE60323E7E62000FFF7AD
:101870007FFD68E642040000FFFF000050140000F6
:10188000C36A10B51B124B70C36AFF208B70002314
:101890009CB2A24203D9CC5C01336040F8E7885483
:1018A00010BD70B504000D00FFF7EAFF236D002B9B
:1018B000FDD1E36C002B1AD1E56472B623003433FA
:1018C0001A78D5B2002A10D1E0690332A5630A3B29
:1018D0009A72197803688E0018339B1901261E60CE
:1018E00000F0EAF8E3691B689D6062B670BD25658B
:1018F000E3E700230360704710B5094B84681B6859
:101900008C4203D003608160406810BD01680029EB
:10191000FAD09B1A5B1AF7D4002344600360F3E704
:101920001817001010B572B6014B984762B610BD7B
:10193000F11FFF1F322300B58BB00190029005A963
:1019400068460093FFF7EEFF0598C0B20BB000BDEC
:1019500010B58CB00400FFF7EDFF079000281AD1F6
:101960003423FA2102930E4B8900186803940494DF
:1019700000F054F907A9059002A8FFF7D3FF079BD1
:101980000193002B07D1353307A902A802930394D2
:101990000494FFF7C7FF0798C0B20CB010BDC04653
:1019A000140100100F2310B50400C01718400019CF
:1019B0008AB00011FFF7BEFF059000280ED13B232F
:1019C000FA210093074B890018680194029400F0F3
:1019D00025F905A903906846FFF7A4FF0598C0B252
:1019E0000AB010BD1401001070B50400C017000546
:1019F000000D20188CB000130E001500FFF79AFFA1
:101A0000079000281CD13323FA2102930E4B890042
:101A1000186803940496059500F000F907A906904C
:101A200002A8FFF77FFF079B0193002B08D13833F3
:101A300007A902A80293039404960595FFF772FF85
:101A40000798C0B20CB070BD1401001010B53A2355
:101A500004008AB0684605A90093FFF763FF1022CF
:101A6000200006A900F098F90598C0B20AB010BD90
:101A700000231F2210B54012040014408C4201D1F3
:101A800018B210BD01334011042BF5D101204042A2
:101A9000F7E7FFFF0123027906490732934000224E
:101AA00010B5CC6F2343CB670368DA635A619A623F
:101AB00010BDC046048004400368072070B50324AD
:101AC00006004C43A6401040A04030245D69490008
:101AD000B5435D615D692240284325008D408A4001
:101AE0005861D86BA843D863D86B0243DA6370BDE2
:101AF0000323594310B5941109B22340D20701D5ED
:101B00000422134307248C408B400268906AA04350
:101B10009062906A0343936210BDFFFF024A13680C
:101B2000013313607047C0461817001000220A4B9B
:101B30001A710A4A1A600122094B1A71094A1A607D
:101B40000222094B1A71094A1A600322084B1A71C2
:101B5000084A1A607047C0461C17001000C00040B9
:101B600024170010000001402C1700100040014015
:101B7000341700100080014013B5C0211148C9017D
:101B8000FFF79AF9C021104B104A11485A60026AB7
:101B900009061202120A0A43026200229A60073200
:101BA0001A600C4A80201268802101921A000004F9
:101BB0008900936803405C426341019CDB016350F0
:101BC000F7E7C0460702050010E000E0FFFFFF0056
:101BD00000ED00E0901E000030B5C2B204120120FA
:101BE000084B1B68997D1933884208DC1D78A54293
:101BF00002D15D78954204D001300233F4E7012030
:101C0000404230BDB81E000003B471464908400090
:101C10004900095A49008E4403BC7047002243081A
:101C20008B4274D303098B425FD3030A8B4244D3A4
:101C3000030B8B4228D3030C8B420DD3FF220902E6
:101C400012BA030C8B4202D31212090265D0030BA5
:101C50008B4219D300E0090AC30B8B4201D3CB039B
:101C6000C01A5241830B8B4201D38B03C01A5241DD
:101C7000430B8B4201D34B03C01A5241030B8B42DF
:101C800001D30B03C01A5241C30A8B4201D3CB02CA
:101C9000C01A5241830A8B4201D38B02C01A5241AF
:101CA000430A8B4201D34B02C01A5241030A8B42B2
:101CB00001D30B02C01A5241CDD2C3098B4201D3CA
:101CC000CB01C01A524183098B4201D38B01C01A48
:101CD000524143098B4201D34B01C01A52410309BF
:101CE0008B4201D30B01C01A5241C3088B4201D36E
:101CF000CB00C01A524183088B4201D38B00C01A1B
:101D0000524143088B4201D34B00C01A5241411A41
:101D100000D20146524110467047FFE701B500204E
:101D200000F006F802BDC0460029F7D076E77047FC
:101D30007047C04670B500260C4D0D4C641BA410B6
:101D4000A64209D1002600F0BBF80A4D0A4C641BDC
:101D5000A410A64205D170BDB300EB5898470136D8
:101D6000EEE7B300EB5898470136F2E7CC1E0000CF
:101D7000CC1E0000CC1E0000DC1E000030B500248C
:101D80000139A24201D1002005E0035D01340D5D5F
:101D9000AB42F6D0581B30BD002310B59A4200D19B
:101DA00010BDCC5CC4540133F8E7030082189342A1
:101DB00000D1704719700133F9E7FFFF10B5064CE9
:101DC0002378002B07D1054B002B02D0044800E0FC
:101DD00000BF0123237010BD3C170010000000005D
:101DE000E81E0000044B10B5002B03D00349044843
:101DF00000E000BF10BDC04600000000401700100A
:101E0000E81E00000000000000000000A910000013
:101E10006D050000B5100000B11000001C0100109D
:101E200026C233004782790061C2340F64C2790050
:101E30000300040007000B000C000D001300140049
:101E4000180019001A001D001E001F0020002400A9
:101E50002500280029002A0005000E001B0026008E
:101E600002000A0017002300100011000000080003
:101E70000900150016001C002100220027002B007D
:101E80000F00120000000000000000000000000031
:101E900000000050000001500000025000000350FC
:101EA0000000000000000000A9100000B1100000B8
:101EB000B5100000B11000000C1500101016001035
:101EC000F8B5C046F8BC08BC9E467047C90700007C
:101ED000E90D00002D1B0000E51D0000F8B5C0460F
:081EE000F8BC08BC9E467047E7
:101EE8005B5342204B4E5820424C205D00FFFFFFC1
:081EF800A55AA55A006CDC029A
:040000030000010BED
:00000001FF
