:10000000001F00100B010000D5000000D700000009
:1000100000000000000000000000000000000000E0
:10002000000000000000000000000000D9000000F7
:100030000000000000000000DB000000C9230000F9
:10004000DF000000DF000000DF000000DF00000034
:10005000DF000000DF000000DF000000DF00000024
:10006000DF000000DF000000DF000000DF00000014
:10007000DF000000DF000000DF000000DF00000004
:10008000DF0000003D170000DF000000DF0000007F
:10009000DF00000015230000000000000000000049
:1000A000DF000000DF000000DF00000000000000B3
:1000B000DF000000DF000000DF000000DF000000C4
:1000C000042C0000000100101800000018010010AE
:1000D00058170000FEE7FEE7FEE7FEE7FEE7FEE753
:1000E000002330B55C181D18934203D22D680433E9
:1000F0002560F7E730BD002310B51C001A188B42AD
:1001000002D214600433F9E710BD10B50D4C0E4B4C
:100110009C4206D2A26861682068FFF7E1FF0C34B8
:10012000F5E70A4B9C4205D261682068FFF7E3FFC0
:100130000834F6E701F04AF902F076FA00F0FEFB27
:10014000FEE7C046C0000000CC000000D400000064
:1001500010B501F0E5FF10BDF8B504000E00052252
:100160000021002502F09BFA200080222900A560D2
:10017000E5605200103002F092FA20008022113027
:1001800029009200FF3002F08AFAC423C8279B009E
:10019000E5500433E5500433E550BF000433E55027
:1001A0003000E55100F0B2FAE051300000F0AEFA54
:1001B000C7239B00E0502000F8BD03785A0606D5FF
:1001C000FC2240781B0292011340184370473F20E5
:1001D0001840FBE703785B0602D58078C0097047BA
:1001E0004078FBE70200FE2311788078DB034906A4
:1001F00009D5000418401379D1781B020B435BBA70
:100200009BB2184370475078000418405388F6E7B3
:100210008423F7B580229B00C51804001130290003
:100220005200C726FF3002F031FA8022B600520099
:100230002800A15902F02AFA2F4D30492800FFF773
:1002400087FFA3590A22190AFF2328001940FD3B02
:1002500001F041FF2200C423103201929B00E258BA
:100260000199A05902F004FA254F3860002840D0C7
:1002700024492800FFF76CFFFF23A259100A1840F9
:1002800001F074FE3860002805D028001E49FFF7F1
:100290005FFF3868FEBD1D492800FFF759FF1C4964
:1002A0002800FFF755FF04231022A159280001F070
:1002B000E5FE80220199A059520001F079FE124911
:1002C0003860002800D111492800FFF741FFC722FC
:1002D0009200A35800210133FF33A350C42380228E
:1002E0009B00E1500198520002F0D9F9044B1868C4
:1002F000D0E70849E8E7C0461817001004270000B7
:100300001801001019270000302700003B270000CB
:100310004127000063270000F8B5C626B6008359C0
:100320000400012B21D0022B00D193E0002B12D12D
:1003300001334AB20170C360002A0DDBA3604B0693
:1003400002D5A3680133A360A368012B06DDC62391
:1003500001229B00E250F8BD0423EFE7C6230222EE
:100360009B00E250043B0022F4E7C268531CC360C8
:10037000815482689342EEDB03787F2BEED9FFF73E
:1003800029FF26003E4D3F4F1036002839D03E4908
:100390002800FFF7DDFE2000FFF70FFF04230A22ED
:1003A0000100280001F097FE39002800FFF7D0FE79
:1003B0002000FFF717FF042301001022280001F09E
:1003C0008AFE28003149FFF7C3FEC42320009B00AA
:1003D000E558FFF707FF75190136FF36361820007C
:1003E000FFF7EBFE31000200280002F04FF9200079
:1003F000FFF7E3FEC4239B00E2581018E0500833D7
:10040000B1E723492800FFF7A3FE2000FFF7D5FE40
:1004100004230A220100280001F05DFE39002800B3
:10042000FFF796FE2000FFF7DDFE042301001022F7
:10043000280001F050FE28001449FFF789FEC4236C
:1004400020009B00E558FFF7CDFEC8239B007519DF
:10045000E658C3E7C42292008358581CE318A05002
:100460001974C5239B00E2582000551CE550FFF786
:10047000A4FE854200DA6EE70023A3516BE7C04675
:100480001817001095270000782700003827000073
:10049000A9270000C4220100012310B59200825850
:1004A0001031584200F0A4FA10BDC7239B00C05879
:1004B0007047C4239B00C0587047FFFF70B50C0005
:1004C0000300610602D53C210A4014430C210C486C
:1004D0001D0002783B351140502252420A43190058
:1004E00038310A705A6B6A7016121A002E70602525
:1004F0003E333D32157007221C7001F0B6FC70BD12
:1005000070010010F0B5364D0A00AB7869781B0217
:100510000B43A97985B0019102A9CE1D00210400E9
:100520005BBA406B9BB2317098422FD12D4BA172B8
:100530001B6880216364D0239B00134089008B4299
:100540000CD1F020800031001040274A00F0EAFA78
:1005500033780100002B0ED0C2210EE0E023C3212E
:100560009B009A4209D1BFF34F8F204B204ADA609B
:10057000BFF34F8FFEE700280AD03C27019A2000E6
:100580003A40FFF79BFF3378002B04D105B0F0BD54
:1005900038342070FAE70C222B7840211A4050237F
:1005A0005B4213432371636B1A122372A37AE271C5
:1005B00018002200084048320B420ED0216CBB4389
:1005C0000B43A372012313700F23627A28001A4091
:1005D0000732211D01F049FCD8E71070F4E7C0464E
:1005E00070010010301800107701001000ED00E0DD
:1005F0000400FA0570B5264A0400937850781B026F
:100600000343402508005BBA9BB22840294226D00C
:10061000C320250001404835C22913D1297800297B
:100620000DD0616B99420AD13C219279E36C0A406A
:10063000934204D0236CE26404330B40236401230F
:100640002B7070BDC329FAD1626B9A42F7D1002298
:1006500020004239FFF732FF00236363EFE7802970
:100660000ED1616B002901D09942EAD16363002366
:100670000849236409681363616448342370E0E720
:100680008129DED1616B9942DBD160631063D8E7C9
:10069000700100103018001010B50E4C63797F2BDC
:1006A0000BD8E2782379E16A120213438B4204D11A
:1006B000A179CB0904D0FFF79DFF0023A36110BDF2
:1006C000C02309029B001940E3791943FFF71AFF81
:1006D000F3E7C04670010010C023016810B59B010C
:1006E0000400002099420ED3802362685B029A4284
:1006F00009D8914207D0521A013800F079F9A3685D
:10070000181A4342584110BDC068704710B5040024
:10071000FFF7E2FF002801D0206810BDC020800153
:10072000FBE770B5050001F0FBFC0400280001F0B8
:10073000E9FC201870BDFFFF10B50F4C01230F4AD4
:100740000421200001F018F8C0210D48C90100F073
:1007500097FE0C4B1A680C4B511C013208D01960E3
:1007600020000A4901F046F80022094B1A7010BD1A
:1007700001221A60F4E7C0461C010010602000004E
:1007800063823D00301800106C010010C0FF0000B3
:100790000C160010184A10B514681849002C14D013
:1007A000174B1868001B10D416481B68406B0028B4
:1007B0001DD0FA331360002B01D101231360CA68E6
:1007C000136A58424341DB001362CB681B6A5A1E0E
:1007D00093418A68536000F063F900280BD0BFF39F
:1007E0004F8F094B094ADA60BFF34F8FFEE7FA20BB
:1007F00080001B18DEE710BD6C010010882B000084
:10080000301800101C01001000ED00E00400FA0593
:10081000802370B541680468074D5B05F0261A18FF
:1008200036069219126804C3AB42F7D10122034B7A
:100830001A60A546084770BDC8000010008004403B
:10084000FA212F4B70B51868890001F061FE8023F2
:1008500001385B0498420DD2C0212A4A0906506033
:100860002948036A1B021B0A0B430362002393609F
:10087000073313600025254B1D60FFF75DFF9621B0
:10088000234C03222000C90101F09EFCA5602149F0
:10089000E560200025616561FFF743FF1E492000E8
:1008A00001F03EFC042310221C49200001F013FC3F
:1008B0001B49200001F034FC1A49200001F030FCF3
:1008C0001949200001F02CFC1849200001F028FCF7
:1008D0001749200001F024FC812104230902102281
:1008E000200001F0F8FB200001F00CFC2000114971
:1008F000FFF717FF104800F0C1FEFFF74BFFF9E7C5
:100900001401001010E000E000ED00E030180010CD
:1009100018170010E02700001828000053100000EE
:10092000312800004B280000CD2900005728000086
:10093000602800006E2800001C01001080230022A7
:100940005B051868124910B51A60884201D1FFF79B
:1009500077FF1049104800F093FD104B9B685B68CF
:10096000002BF4D0BC24A4012000FFF7B5FE002822
:1009700002D02068FFF74CFFB8208001FFF7ACFEE3
:100980000028E4D0064BE058FFF742FFDFE7C046FF
:1009900055B01F5E1010000040825C00882B0000E4
:1009A00000FFFFFF13B50B4C50220021200001F087
:1009B00076FE200000F0CAFE074B084A23600024A0
:1009C000074B084901940094074800F029FF074BA2
:1009D0001C6013BD1C010010D027000028C20100BC
:1009E000298269003C180010700100106C01001091
:1009F000F7B58B18194D1A4E1A4F0193019B994266
:100A000001D1C043FEBD0B78174A5840C307DB171E
:100A100013408207D2172A405340020A534042072C
:100A2000D217324053400207D2173A400F4C53407E
:100A3000C206D217224053400D4C8206D2172240E4
:100A400053400C4C4206D2172240534000060A4A3B
:100A5000C017104058400131D0E7C0462C610EEE5F
:100A600019C46D073288DB0E963007776410B71D06
:100A7000C8206E3B9041DC762083B8ED064B002801
:100A800001D118607047054A126880180028F8D113
:100A900001221A60F6E7C046080500103018001061
:100AA0000020064A1168814206D0054B1B685B1A7C
:100AB000834201DB106001307047C046080500101A
:100AC00030180010437802781B021A438378C078EC
:100AD0001B0413430006184370470B0EC3700B0C26
:100AE00083700B0A437001707047FFFF0300C2B2AE
:100AF000002082B082420ED1081E0CD0074A01208D
:100B0000126801929A4206D8054A5B1812689A4206
:100B100080410192404202B07047C0460000000090
:100B2000042C00000F23F0B51578A5B01D40BC4B78
:100B300001929B6802911A00FC3203935368594258
:100B40004B419B015360019B9878282801D900F004
:100B50001AFC01F0D3FCE2001801A30177020302A2
:100B6000230218041804180418040F0418041804A5
:100B70001804180418041804180418041804EE01C2
:100B80001804180418041804180418041804180485
:100B90001804290071001804B5001804A200C3034A
:100BA000180418041804E3039E4F9F493800FFF708
:100BB000CFFA9E4B01251B689D4C0393FF335B7856
:100BC0001A002A4003922B420BD09A4B9A4A9B4917
:100BD0001A60002323603800FFF7BAFA984B00220E
:100BE0006CE0039B04AE3000236001F013FA002890
:100BF00016D10199B4460331019184212268039BE7
:100C000049000198C65C6046185C864201D00A0023
:100C1000039501330C2BF4D1039B002B00D02260F1
:100C2000842322685B009A42D8D0824B824A85494D
:100C30001A6000232360CEE701277A4D82492800FD
:100C4000FFF786FA794B7A4E1B680193FF335B7886
:100C50003B421DD07D4B04A81C6801F0DBF93060DD
:100C600000280ED16F236372794B200063818023AB
:100C70009B01A381029B0C221F700E3004A901F07E
:100C800005FD74492800FFF763FAC22025B0F0BDC6
:100C90000823FF3370493360F4E770496148FFF778
:100CA00057FA644A644B12689A4204D16420FFF7F1
:100CB000E5FE5F4B93E708225D4BFF321A6038E197
:100CC000584D67492800FFF743FA2F20019BDB7836
:100CD000C01A0002FFF718FD802304005B0298424F
:100CE00016D328005F49FFF733FA5F4C574B029A3F
:100CF00018686F234372564B2100438188239B0160
:100D00008381012313700C220E3001F0BFFCBCE77D
:100D100028005049FFF71CFAE8E7424C53492000ED
:100D2000FFF716FA434A444B12689A4226D1019BB8
:100D30000A22D9782000012301F0CDF9019B3C4D16
:100D4000D878022815D94A4A4A4B94461B68019321
:100D500063441B0B984206D3474B1B6801936344C3
:100D60001B0B984205D901F0D7F8444928602000B0
:100D700032E70423FF3342492B60F8E708222C4B6B
:100D8000FF321A602AE7274E3E493000FFF7E0F9AC
:100D9000284A294B12689A428DD1019A019B1479F5
:100DA000DB7824021C43802364BAA4B2AF1EE2198C
:100DB0005B019A422ED8019B33485D1D3A00290001
:100DC000201801F063FC00220520194B40421A60F4
:100DD000019BC31A0193019B5B19BB420BD229787B
:100DE000022310220F4801F076F928490D48FFF739
:100DF000AFF90135EFE726493000FFF7A9F92100E7
:100E000004230A22300001F066F922493000FFF77E
:100E10009FF98EE08222064B52001F491A60F5E7C7
:100E2000882B000018170010AC280000B42B00001D
:100E3000E0010010100100105AA55AA5B5280000C5
:100E4000DC010010BB280000C1280000A828000019
:100E5000424C00003C270000C7280000CE280000BC
:100E6000D7280000EC28000000010010FD28000039
:100E7000FF0F000000000000042C00003B270000D2
:100E8000302700000B2900000C050010CD290000C0
:100E90001A2900002D29000030290000E74FE849F9
:100EA0003800FFF755F9E74AE74B12689A4200D03D
:100EB00001E7019BD81CFFF705FE019B0400D81D2C
:100EC000FFF700FE21000500FFF710FEDF4E0028AF
:100ED00041D001202200DE494042FFF789FD039006
:100EE00001980B30FFF7EEFD039B98421ED1802244
:100EF000D200944217D880239B009C4205D88020C2
:100F00004000A042924102401218D149280001F04D
:100F10004FF80399306008231022380001F0AEF832
:100F20003800CC4973E780225201EEE70223FF33F9
:100F30003360C94B029A186867234372C74B4381D9
:100F4000A8235B01838101231370C04B0E30196805
:100F5000FFF7C3FD99E681235B00E9E7C049B74885
:100F6000FFF7F6F8B74AB84B12689A4200D0A2E6EB
:100F70008022BC4B52011B68EB1893420AD8019C9B
:100F80006519A54200D194E6E178B748FFF7C4F9A6
:100F90000134F6E78222AD4B52008FE6A94AAA4BF4
:100FA00012689A4200D0E9E6AF4E3000FFF781FAAE
:100FB00007003000FFF779FA0500A04CAB4920008C
:100FC000FFF7C6F8042310222900200001F056F88C
:100FD000A7492000FFF7BCF803230A2239002000AC
:100FE00001F04CF828003900FFF780FD974D0028EC
:100FF00021D0A0492000FFF7ABF83000FFF74AFAF4
:10100000070001980B30FFF75DFDB8420BD19A49FC
:101010002000FFF79DF83000FFF7FAF8852300283D
:101020000ED12860DAE520009449FFF791F80223F9
:10103000FF332B60D2E520009149FFF789F8812327
:101040005B00F6E77D4C8F492000FFF781F87D4A71
:101050007D4B12689A4200D0E9E08B492000FFF7EF
:1010600077F8019BD81CFFF72DFD02000700012037
:10107000774E40423100FFF7BBFC844903902000CB
:10108000FFF766F8082310220399200000F0F6FF0E
:101090007F492000FFF75CF8BC210423102289015E
:1010A000200000F0EBFF7B492000FFF751F83000F3
:1010B000FFF708FD042310220100200000F0DEFFEE
:1010C00075492000FFF744F87448FFF7FBFC042340
:1010D00010220100200000F0D1FF71492000FFF72D
:1010E00037F87048FFF7EEFC0823102201002000BB
:1010F00000F0C4FF6C492000FFF72AF86B48FFF7A7
:10110000E1FC102201000423200000F0B7FF684931
:101110002000FFF71DF8019BDD1D2800FFF7D2FC22
:10112000082301001022200000F0A8FF2800FFF78C
:10113000C9FC039B454D984241D15E492000FFF711
:1011400007F8BC203A003100800101F091FA071E37
:101150002FD020005849FEF7FBFF3000FFF7BCFA04
:10116000002820D02F2000F001FF0223010028607A
:101170000A22200000F082FF2B68002B00D0D8E666
:101180004E492000FEF7E4FF8022BC2031005200CF
:10119000800100F00DFF022301000A2228602000D8
:1011A00000F06CFFC5E6832345495B002B602000FF
:1011B0002DE620004349FEF7CBFF2F60B9E602235E
:1011C0004149FF3320002B60FEF7C2FF0198FFF773
:1011D00079FC102201000823200000F04FFF3B495A
:1011E0002000FEF7B5FF019B181DFFF76BFC0823DD
:1011F00010220100200000F041FF35492000FEF7D9
:10120000A7FF01980830FFF75DFC082310220100BA
:10121000200000F033FF2F492000FEF799FF0198CE
:101220000C30FFF74FFC082301001022B7E708221B
:10123000064BFF3228491A60B9E7C046181700105C
:101240003E290000100100105AA55AA5E001001027
:101250000C05001038270000A828000042440000B8
:1012600055290000DC010010E4010010572900009E
:101270006F290000792900008A29000094290000C4
:10128000A1290000B7290000C4290000CF290000CF
:10129000DC290000F2290000012A000010050010DE
:1012A000102A0000140500101F2A00001805001065
:1012B0002E2A0000402A00006D2A00008A2A000021
:1012C0009C2A0000A82A0000BD2A0000C92A0000AC
:1012D000D52A0000E22A0000F02A00002B492C4801
:1012E000FEF736FF2B4A2C4B12689A4200D0E2E4FC
:1012F0002A4B1B68002B00D0C7E4294BBC2118687F
:101300006F234372274B029A438194239B0183816D
:1013100001230E30137089010C22F6E422491C4887
:10132000FEF716FF1B4A1C4B12689A4200D0C2E41B
:101330001A4B1A68002A00D0A7E46F21184B0298B4
:101340001B68597217495981A4218901998101218A
:1013500001700F31D973433199732E31D9745139DA
:101360005A741A745A751A759A745A761A76D97507
:101370009A758AE4074A084B12689A4200D09AE4A8
:10138000064B0A4A9AE48022044B05E6F72A00003D
:1013900018170010100100105AA55AA5E0010010FE
:1013A000A8280000424C0000052B0000FFFF0000B1
:1013B000BC2110B503488901FEF7CEFE0022024B86
:1013C0001A6010BDE4010010080500108E212020D5
:1013D0001C4B89005A5810B582435A5000221A6299
:1013E000C832C046013A002AFBD101211964596470
:1013F0005A645964596C134AC907FBD523218E20BE
:101400008024916080001158A14311500121D868B7
:101410000C4A0842FAD00320106700205167506739
:1014200051670122596F1142FBD0064B06499A675A
:10143000064BD967064B1A60064B1A60064B1A60BA
:1014400010BDC046008004405F00010004800440DD
:1014500094800440988004409C80044070B5002330
:101460000400043918B2824205DD01339D004D5954
:10147000A542F7D170BD00F0D5FF01204042F9E749
:101480004306F7B59B0F584A9B001F279A58030045
:10149000040001203B40844698400E05019088B22C
:1014A00089140D00030B1B03360D3D40394200D15A
:1014B000654669468F888021400B0902032808D1C0
:1014C000505807435750E022D20193423FD106259E
:1014D00013E05058B843505080229201934228D1D3
:1014E000424B9C4202D1424B002204E0414B9C42C1
:1014F00012D101223E4B07251A60E30503D5022DC8
:1015000001D080231E432900200000F095FD002813
:1015100063DA00F087FF61E0374B9C4201D1374B23
:10152000E2E7374B07259C42E7D1344B01221A6092
:10153000E3E7C022920193424DD00F2D07D1042240
:1015400020003049FFF78AFF2F4B1860D5E70C2D9C
:101550000AD12E4B9C4202D12D4B0022E7E72D4BA6
:101560009C42CAD12A4BE1E70D2D09D12A4B9C425E
:1015700001D12A4BF1E72A4B9C42BED1274BD5E73C
:101580000E2D19D1274B9C4201D1274BE5E7274B64
:101590009C4201D1244BC9E7254B9C4202D1022237
:1015A000214BC4E7234B9C4201D1234BD5E7234B6E
:1015B0009C42A2D1204BB9E70B2D9ED1134B9C42EC
:1015C00003D100221E4B9A6197E71E4B9C4294D197
:1015D00001221B4BF7E702258FE70643200000F0AE
:1015E00033F80660F7BDC046882B000002C23A00FF
:1015F000C040044063823D0025423C00D04004408E
:1016000049C20100182B0000D4400440424265004A
:10161000C84004402A83300C43826D00CC40044013
:10162000298269000A4A7006B04004404B823B00A0
:101630000602700041C27400C44004406242350E8C
:101640000040044044825900030042061F20920FCC
:10165000034013385043C018034B4000C05A034B9B
:10166000C01880007047C046282B000000100110F1
:1016700000233030037070477047FFFF0300F7B559
:1016800030331B780400002B4FD0284B9A69002A76
:101690000CD0DB6C002B09D1254B1B680193FF3369
:1016A0005B785B0702D503685B689847E0690028B0
:1016B0003BD02049FFF7E4FEE2691F4D53069B0F24
:1016C0009B0059591F231A401B3B93402000595837
:1016D00032224B1E99412430A76A00F0F1FB144BD3
:1016E0001B681E000193FF36002805D1002F03D090
:1016F0008122737853407370C021E069C901FFF7FC
:10170000BFFE01201F2271780600E369246A1A4097
:101710009640014032000020A14200D030005B061C
:101720009B0F9B00EB589200D050F7BD700100104A
:10173000B42B000010100000882B000010B50248E8
:1017400000F0A4F910BDC0467001001010B50400EF
:10175000074B08330360243000F0AFFB054B002239
:10176000E361012323622300303320001A7010BD8F
:10177000982B000040825C00F7B5040001930368D9
:101780000092DB680E00984723000025383325714E
:101790001D7025641D74134B01221B682E20190037
:1017A0000127FF3152426233E264656348701D7065
:1017B0000D4B8F701B680D485A733212DA70009A05
:1017C0001D7312125A71009A1E719A71019ADA7180
:1017D000074B1D60230030331F7000F037F8A762FD
:1017E0006562F7BDB42B0000B02B00007001001043
:1017F00014170010064B0A121B68DA7501221976BD
:10180000044B1A700022044B1A60044BD9627047D3
:10181000B02B00000C1600101417001070010010FF
:101820004362030030B503AC257804AC2478283338
:101830000262C1611D705C70032302341C4003000E
:1018400000222A331C709A7230BDFFFFF7B5334B6C
:1018500004001A680126137ED17D1B020B435BBA7C
:1018600002009BB2C36200233432836113700422EE
:101870000363C26302006832C36403651370C06906
:1018800000F05EFD23003500293301931B78E069E9
:101890009D402B000268516F0B4353672300283390
:1018A0001978812200F07AFD1F22E7691C493D6802
:1018B0006B6833436B603B791033134032009A40BE
:1018C000184B1A60184B186800F022FE23000138EC
:1018D000E8602A33197818358B00ED18134B022273
:1018E00038002B6000F03EFD019B1978E3698E40C3
:1018F0001B6888001A00183212180D481060986092
:10190000DA6B1642FCD1E021606AC901FFF7B8FD2D
:101910000849206AFFF7B4FDF7BDC046B02B0000B0
:1019200040420F0000E100E014010010FEFF000043
:10193000FFFF00002020000070B504000300250018
:10194000283319782A358122C06900F027FD2978CB
:101950000222E06900F006FDE3692A781B68094964
:10196000183392009A1811602200293212789200DE
:101970009B18054A1A602200002334321370236337
:1019800070BDC046FEFF0000FFFF00000023C26CD8
:101990001370026D8363C264036583647047FFFF45
:1019A00073B500230500036368352A7804009A4262
:1019B00041D1026C072A2ADD99425DD0C3780079B3
:1019C00000021843637940BA80B27F2B14D90028F3
:1019D00003D000F057FDC143C90F294B1B68019389
:1019E000FF335A7852070DD4226CA2615B789B07B3
:1019F00021D5CC2323631EE0E16A091A4842414104
:101A0000C9B2EAE7002916D0236CA361F1E7012AE5
:101A100032D1436CDBB24364CC2B03D0826BC36BFB
:101A20009A4208DDE36C002B05D0A36B002B02DD8E
:101A30002000FFF7ABFF23002A331978236BE069FE
:101A40005A1E93410F4A5B4213400F4A8E009B1867
:101A50000268183292191360032200F083FC2300FD
:101A600028331978E069812200F098FC002334348F
:101A70002B700333237073BDA3610C23BAE7C046F8
:101A8000B42B000049F0FFFFE8130000F7B5040095
:101A900010220227250034352B78D8B2092B00D923
:101AA000C8E100F02BFD0A0050001E00A100FB0061
:101AB000170134017901B2019701E3691B681A68C3
:101AC00023002833197810238B401A421FD022009C
:101AD0000023683223641370FF222363013362669C
:101AE00023662200283211781022E0698A400368B8
:101AF0001E683100114016420ED1236E002B03D018
:101B0000616E4B425941C9B22000FFF749FFFF22E5
:101B1000E3691B681A60F7BD22002A3211781A00A7
:101B20008E0018329219C54E1660012602225A60A4
:101B30005E60921900F016FC00232E706364A365AA
:101B40006665E665E3E723000121E5692A332A6833
:101B50001B781068994006000E400196084223D178
:101B60002100283109782C32890052181068A26DA2
:101B70001100443181421ADA6832A2654427BC461A
:101B8000A26D616D94444E0084450FDABC37B942B2
:101B90000CDC676C68323943E76D616479427941E6
:101BA000A265E1656665E9E7A448E0E76665019A34
:101BB000002AACD0216EE26D0A40216C2266172902
:101BC00006DC626C481C20646254616E4A406266A6
:101BD000022122008B40343211702A681832D31847
:101BE000D02252001A6092E726001100E3692836DD
:101BF0001B681868337899400B000100194018429F
:101C000002D000232B7045E7236B002B1ED06823E6
:101C1000A1642100E069293102680978183289003D
:101C200051180B6021002A31097823338F00D21913
:101C30001360032200F096FB81223178E06900F006
:101C4000ADFB0023236404332B7060E7A26BE36BCE
:101C50009A4202DD2000FFF799FEE26C002A00D1D3
:101C6000E8E068210F2013781B079B0F01334B43DB
:101C7000517901400831A164A16B0129C9D11078C3
:101C80001F3188431070A26CE06C013A8218107802
:101C900041401170A26B0132A263BAE7200011002B
:101CA00028300078E36981401B681E680E4210D01E
:101CB0002600293636789868B60018339B191E68B6
:101CC0000A3E864203D95E4818602F70E2E605237B
:101CD000BAE71B68236B002B10D0236B8021636451
:101CE000012349006365636D626CFF2B0DDC1A42B2
:101CF00001D04A4062645B006365F4E7236C5A1CC0
:101D00002264E26CD3181B78E8E701236365802026
:101D10006826616C4000626D530063650A4203D01F
:101D2000824201DC6836F6E70622682E00D00722E0
:101D30002A708022920093420ADD236CA26C39360D
:101D4000FF36934223DA236B002B20D105332B700F
:101D500022002B7828321178E0698122072B00D0ED
:101D6000802200F01BFB2200E36929321B681278F5
:101D70002978183392009A1809290AD1304911603C
:101D800022002A32127892009B181E60BFE60923B7
:101D9000DDE731002339F2E7E36921001B682831D0
:101DA0001A0009782C328900521811682200293251
:101DB0001278183392009B181A68453A8A4207D95C
:101DC0001F4A1A602200012368322B7013709EE6AE
:101DD000062339E72200E0692A32036812781833B3
:101DE00092009B18174A1A60230028331978812221
:101DF00000F0D4FA236B002B03D0002323630823C5
:101E000022E7A36B0133A363F9E72300160028330D
:101E10001878E36986401B681968314208D093211D
:101E20002C33800018180368C9008B4200D86EE676
:101E30000323E7E62000FFF77FFD68E64204000089
:101E4000FFFF000050140000C36A10B51B124B7056
:101E5000C36AFF208B7000239CB2A24203D9CC5CE2
:101E600001336040F8E7885410BD70B504000D00E0
:101E7000FFF7EAFF236D002BFDD1E36C002B1AD195
:101E8000E56472B6230034331A78D5B2002A10D133
:101E9000E0690332A5630A3B9A72197803688E00E1
:101EA00018339B1901261E6000F05CFAE3691B6879
:101EB0009D6062B670BD2565E3E70023036070474F
:101EC00010B5094B84681B688C4203D003608160A5
:101ED000406810BD01680029FAD09B1A5B1AF7D43C
:101EE000002344600360F3E73018001010B572B6A9
:101EF000014B984762B610BDF11FFF1F322300B59A
:101F00008BB00190029005A968460093FFF7EEFFA1
:101F10000598C0B20BB000BD10B58CB00400FFF73F
:101F2000EDFF079000281AD13423FA2102930E4BBB
:101F3000890018680394049400F0EAFA07A9059050
:101F400002A8FFF7D3FF079B0193002B07D135337E
:101F500007A902A8029303940494FFF7C7FF079808
:101F6000C0B20CB010BDC046140100100F2310B554
:101F70000400C017184000198AB00011FFF7BEFF17
:101F8000059000280ED13B23FA210093074B8900CE
:101F900018680194029400F0BBFA05A90390684602
:101FA000FFF7A4FF0598C0B20AB010BD14010010DD
:101FB00070B50400C0170005000D20188CB0001388
:101FC0000E001500FFF79AFF079000281CD133235D
:101FD000FA2102930E4B8900186803940496059524
:101FE00000F096FA07A9069002A8FFF77FFF079B6B
:101FF0000193002B08D1383307A902A80293039458
:1020000004960595FFF772FF0798C0B20CB070BD3B
:102010001401001010B53A2304008AB0684605A9DF
:102020000093FFF763FF1022200006A900F02EFBAB
:102030000598C0B20AB010BD00231F2210B540128F
:10204000040014408C4201D118B210BD013340117C
:10205000042BF5D101204042F7E7F8B505000C004C
:1020600000268F18BC4207D02B68217828005B68B7
:10207000984701343618F5E73000F8BDF0B51E007A
:1020800007000D008DB0131C022A00DA022325245C
:102090001BB2019302ABE4182800019900F0BEFACC
:1020A0003723CAB2092900D8073B013C9B18013EDF
:1020B0002370002E0DDC019BAB420AD9252302AA16
:1020C0009B181A1B3B68210038001B6898470DB00D
:1020D000F0BD0500E0E7F7B5002705000C001E0085
:1020E0000192B94206DA03682D215B689847070020
:1020F0006442013E330028002100019AFFF7BEFF31
:10210000C019FEBD036870B504000D215B689847D7
:10211000236805000A2120005B689847281870BDD5
:1021200070B5050000200C00814208D02B68080023
:102130001E6800F0BCFA210002002800B04770BD04
:10214000026943699A42FBD17047FFFF0269436904
:102150009A420AD10E4B5A69920606D5022219609C
:1021600059680A435A60012070477F22436901334E
:10217000134002699A42FCD0426982189832117069
:1021800043610223024A51680B435360EBE7C046A8
:1021900000800040FA2370B5040015009B006360C6
:1021A000064B0800083323600549FFF769F928004A
:1021B0000449FFF765F9200070BDC046B82B000048
:1021C00000103C0000604000F7B5170080221E4B55
:1021D00092030191DA6780231C4A5B01D16F0126CB
:1021E0000B43D36780231A4C1A4A3B431660E360C3
:1021F000194B05009B6F1168184A1068584300F08E
:1022000087F90199000900F083F9030AC0B26360FD
:1022100020600723E7600027A36027616368280028
:10222000334363602B685B6998478023AF609B03EF
:10223000EF602F616F616269324201D02268FAE774
:10224000074A1360F7BDC04604E100E00480044083
:102250000080004098800440008004401401001079
:1022600000E100E0194B30B55A69920607D50169C3
:102270004269914219D102215A688A435A60012465
:102280007F215A6922421FD0C268856801320A4004
:10229000AA4217D01D68C26882181576C26801323A
:1022A000C260C2680A40C260EBE77F2102698218FF
:1022B000983212781A6002690132026102690A409A
:1022C0000261DCE71A68DCE730BDC04600800040F0
:1022D000F8B5C5680400876800F0ECF87F23013585
:1022E00006001D40BD420CD1074B5B69DB0708D5DA
:1022F0008025064BAD03DD672000FFF7B3FF044BDD
:102300001D603000F8BDC0460080004004E100E0E0
:1023100000E100E010B50248FFF7A4FF10BDC04681
:102320001817001010B5034A03490448FFF732FF9D
:1023300010BDC0462702340026C233001817001013
:1023400001230279064907329340002210B5CC6F71
:102350002343CB670368DA635A619A6210BDC046B3
:10236000048004400368072070B5032406004C4332
:10237000A6401040A04030245D694900B5435D612E
:102380005D692240284325008D408A405861D86B02
:10239000A843D863D86B0243DA6370BD0323594363
:1023A00010B5941109B22340D20701D5042213437A
:1023B00007248C408B400268906AA0439062906A28
:1023C0000343936210BDFFFF024A13680133136099
:1023D0007047C0463018001000220A4B1A710A4A92
:1023E0001A600122094B1A71094A1A600222094B2C
:1023F0001A71094A1A600322084B1A71084A1A60B6
:102400007047C0463418001000C000403C1800104F
:102410000000014044180010004001404C1800101A
:102420000080014013B5C0211148C901FFF728F809
:10243000C021104B104A11485A60026A0906120264
:10244000120A0A43026200229A6007321A600C4A9A
:1024500080201268802101921A000004890093688C
:1024600003405C426341019CDB016350F7E7C046D7
:102470000702050010E000E0FFFFFF0000ED00E0B4
:10248000882B000030B5C2B204120120084B1B6833
:10249000997D1933884208DC1D78A54202D15D7808
:1024A000954204D001300233F4E70120404230BDB0
:1024B000B02B0000C1688268030091420AD07F21DE
:1024C00082688218107E9A6801329A609A680A407F
:1024D0009A60704701204042FBE7C26883689A42D5
:1024E00003D08368C018007E704701204042FBE79C
:1024F000C3688068181A00D58030704703B47146ED
:10250000490840004900095A49008E4403BC7047FD
:10251000002243088B4274D303098B425FD3030A22
:102520008B4244D3030B8B4228D3030C8B420DD335
:10253000FF22090212BA030C8B4202D312120902C3
:1025400065D0030B8B4219D300E0090AC30B8B4201
:1025500001D3CB03C01A5241830B8B4201D38B03AF
:10256000C01A5241430B8B4201D34B03C01A524154
:10257000030B8B4201D30B03C01A5241C30A8B4297
:1025800001D3CB02C01A5241830A8B4201D38B0282
:10259000C01A5241430A8B4201D34B02C01A524126
:1025A000030A8B4201D30B02C01A5241CDD2C30998
:1025B0008B4201D3CB01C01A524183098B4201D314
:1025C0008B01C01A524143098B4201D34B01C01AFF
:1025D000524103098B4201D30B01C01A5241C30877
:1025E0008B4201D3CB00C01A524183088B4201D3E6
:1025F0008B00C01A524143088B4201D34B00C01AD2
:102600005241411A00D20146524110467047FFE73D
:1026100001B5002000F006F802BDC0460029F7D041
:1026200076E770477047C04670B500260C4D0D4CDC
:10263000641BA410A64209D1002600F0CDFA0A4D71
:102640000A4C641BA410A64205D170BDB300EB5820
:1026500098470136EEE7B300EB5898470136F2E7AA
:10266000E42B0000E42B0000E42B0000F82B00001A
:1026700030B500240139A24201D1002005E0035DFC
:1026800001340D5DAB42F6D0581B30BD002310B5B0
:102690009A4200D110BDCC5CC4540133F8E703006A
:1026A0008218934200D1704719700133F9E7002373
:1026B000C25C0133002AFBD1581E704710B5064C8E
:1026C0002378002B07D1054B002B02D0044800E0F3
:1026D00000BF0123237010BD54180010000000003B
:1026E000042C0000044B10B5002B03D00349044810
:1026F00000E000BF10BDC0460000000058180010E8
:10270000042C000044696666202D20436F6D7061C3
:102710007265205061676520002064696666657295
:10272000656E742C20457261736520506167650089
:10273000204661696C6564210A0D00204F4B0A0D2B
:102740000044696666202D2050726F6772616D20AB
:102750005061676520617420416464726573732001
:102760003078002020657175616C2C20736B697066
:1027700070696E67210A0D000A0D436F707920663B
:10278000726F6D2052414D2077697468206C656EC0
:1027900067746820002C2061646472657373206F15
:1027A0006666736574203078000A0D436F70792077
:1027B00066726F6D20524F4D2077697468206C658A
:1027C0006E6774682000FFFF00000000000000003A
:1027D00071160000990600007D16000079160000B1
:1027E0003D3D3D3D3D3D3D3D3D3D3D3D3D3D3D3D19
:1027F0003D3D3D3D3D3D3D3D3D3D3D3D3D3D3D3D09
:102800003D3D3D3D3D3D3D3D3D3D3D3D3D3D3D3DF8
:102810003D3D3D3D3D3D3D0053656C666275732019
:102820004B4E5820426F6F746C6F61646572205616
:10283000002C204445425547204D4F4445203A2D19
:10284000290A0D4275696C643A20004A616E203293
:102850003020323032310032313A34333A323900BA
:102860002046656174757265733A203078002D2DAD
:102870002D2D2D2D2D2D2D2D2D2D2D2D2D2D2D2D88
:102880002D2D2D2D2D2D2D2D2D2D2D2D2D2D2D2D78
:102890002D2D2D2D2D2D2D2D2D2D2D2D2D2D2D2075
:1028A000627920736800FFFF1C010010556E6C6F89
:1028B000636B3F200042746E0A0D005549440A0DB7
:1028C000005549443F20004C4F434B0A0D005265D0
:1028D000737461727421004170705F566572736920
:1028E0006F6E205265717565737420004F75747337
:1028F0006964652072616E6765210A0D0045726129
:10290000736520536563746F722000526563656957
:10291000766520446174613A2000617420646174BA
:1029200061206C6F636174696F6E3A20000D0A005C
:102930004275666665722046756C6C0A0D000A0D5C
:10294000466C61736820536563746F722C20435228
:10295000432030780023000A0D466C6173682044E0
:102960006966662061646472657373203078002044
:102970006C656E6774683A20002041646472657308
:10298000732076616C69642C2000435243204F4BC6
:102990002C0A0D00435243204572726F72210A0DBA
:1029A0000020416464726573732070726F74656394
:1029B000746564210A0D000A0D424F4F545F44654F
:1029C00073632000556E6C6F636B65642C2000444C
:1029D0006573632E204352432030780020204465E5
:1029E00073632E2061742061646472657373203098
:1029F00078000A0D46572073746172744020307855
:102A0000000A0D465720656E642020402030780073
:102A10000A0D46577320435243203A203078000A6B
:102A20000D465720446573632E40203078000A0D10
:102A300052656365697665642043524320307800AF
:102A40000A0D435243204D415443482C20636F6D7F
:102A5000706172696E67204D43557320426F6F74C9
:102A600044657363726970746F723A2000697427E9
:102A70007320646966666572656E742C20457261A8
:102A8000736520506167653A2000204F4B2C20462B
:102A90006C61736820506167653A20004170702056
:102AA0004572726F720A0D00697320657175616CF1
:102AB0002C20736B697070696E670A0D0020646169
:102AC00074615B332D305D3A0020646174615B3763
:102AD0002D345D3A0020646174615B31312D385DC5
:102AE0003A0020646174615B31352D31325D3A000A
:102AF0004C6F636B0A0D00424F4F545F4465736324
:102B0000203F0A0D00424C5F4964656E7469747918
:102B1000203F0A0D00FFFFFF26C2330047827900E5
:102B200061C2340F64C279000300040007000B0087
:102B30000C000D0013001400180019001A001D00ED
:102B40001E001F00200024002500280029002A0064
:102B500005000E001B00260002000A0017002300DB
:102B600010001100000008000900150016001C00EC
:102B70002100220027002B000F001200000000009F
:102B800000000000000000000000005000000150A4
:102B90000000025000000350000000000000000090
:102BA00071160000791600007D16000079160000ED
:102BB0000C150010101600100000000000000000AE
:102BC0005B2000004D210000D1220000DB2400002A
:102BD000F124000041210000F8B5C046F8BC08BC53
:102BE0009E467047A5090000B11300002523000090
:102BF000D9230000E5260000F8B5C046F8BC08BCA3
:042C00009E46704735
:102C04005B5342204B4E5820424C205D00FFFFFF97
:082C1400A55AA55A006CDC0270
:040000030000010BED
:00000001FF
