:100000000020001003010000D5000000F1400000B6
:10001000000000000000000000000000379DFFEF1E
:10002000000000000000000000000000D9000000F7
:100030000000000000000000DB000000E1400000C4
:10004000DF000000DF000000DF000000DF00000034
:10005000DF000000DF000000DF000000DF00000024
:10006000DF000000DF000000DF000000DF00000014
:10007000DF000000DF000000DF000000DF00000004
:10008000DF000000A5360000DF000000DF000000F8
:10009000DF000000D1400000000000000000000070
:1000A000DF000000DF000000DF00000000000000B3
:1000B000DF000000DF000000DF000000DF000000C4
:1000C000C0570000000100108C0000008C010010DF
:1000D000F4050000FEE7FEE7FEE7FEE7FEE7FEE7C9
:1000E00010B5002302E010C810C104339342FAD3C4
:1000F00010BD002302E0002204C004338B42FAD377
:10010000704710B50F4B104A934208D218685968CF
:100110001C000C349A68FFF7E3FF2300F3E70B4A57
:10012000934207D218681C0008345968FFF7E1FFB2
:100130002300F4E704F034F804F018F900F0ACFB05
:10014000FEE7C046C0000000CC000000D400000064
:100150004184704700690130704700690130704781
:100160000020704701207047007A704701207047D7
:10017000034B08330360034B0360034B036070477A
:100180009C47000010570000DC560000012800D0FA
:100190007047044B9942FBD1034B1A68034B1A601A
:1001A000F6E7C046FFFF0000000100108C010010C0
:1001B00010B580235B00994201D0012010BD03F0EF
:1001C00009FBFAE710B50400054B08330360054B43
:1001D0000360054B0360482104F012F9200010BDB4
:1001E0009C47000010570000DC56000000207047BC
:1001F00010B50400002203F05DFA024B08332360BF
:10020000200010BD9C47000070B505001C2004F0C4
:10021000FBF8040000230222002103F03DFD044B03
:10022000236021002800FFF7E3FF280070BDC046CF
:100230007847000010B50400006B03F099FA2E23F4
:100240000370206B03F03EFD01230370200003F0D8
:100250003DF910BD10B502490120FFF797FF10BD11
:10026000FFFF000030B583B004001500A0239B0001
:10027000994206D00133FF33994219D0C32003B00D
:1002800030BDFFF7B3FF002807D10123069A137092
:10029000079BD81D01F0D8FFF1E700232A00812138
:1002A000200003F0CDFA0023069A13700020E6E741
:1002B0001F4C2049200003F01FFE200003F00EFE1B
:1002C000200003F00BFE200003F008FE200003F0E6
:1002D00005FE194B1A8801256D4200950A2317491E
:1002E000200003F044FE164B1A8800950A23154996
:1002F000200003F03CFE144B1A8800950A23134992
:10030000200003F034FE200003F0E8FD200003F09D
:10031000E5FD200003F0E2FD200002F059FFBFF3ED
:100320004F8F0B4B0B4ADA60BFF34F8FFEE7C0468F
:10033000300600102C4700001C0600104447000047
:100340001E060010584700002006001064470000F9
:1003500000ED00E00400FA050048704700000000CE
:10036000014801387047C0464C58000000487047AB
:100370004C58000000487047000000000148013858
:100380007047C0460000010010B5FFF7F7FF0400FA
:10039000FFF7F0FF201A013010BD10B5FFF7DCFFAA
:1003A0000400FFF7E3FF20180130FF30000A01309E
:1003B000000210BD70B504000568FFF7EEFF85422E
:1003C00016D3FFF7DBFF854214D86268904213D33F
:1003D000954201D300200CE0521B0132012029007C
:1003E000404200F0A7FAA368834207D0002000E053
:1003F000002070BD0020FCE70020FAE70120F8E7AC
:1004000010B5C468FFF7C9FF844206D3FFF7B6FFF3
:100410000438844203D2200000E0024810BD0148A5
:10042000FCE7C0460401001010B50400FFF7C2FF4E
:10043000002802D1FFF7B1FF10BD2068FCE710B51E
:10044000FFF7ABFF0138FF3810BD10B5FFF7A5FF70
:10045000000A013810BDFFFF10B50E4B1868FA21D5
:10046000890003F0E1FE013880235B0498420DD23D
:10047000094A50600948036A1B021B0AC021090689
:100480000B4303620023936007331360044B002285
:100490001A6010BD2001001010E000E000ED00E047
:1004A0001806001070B582B0040006684568042381
:1004B00000930C33C8220A490A4803F04BFD00237D
:1004C0008022520502E002CC02C20133312BFAD95C
:1004D000054B01221A60B546284702B070BDC046E0
:1004E000DC470000300600100080044010B50128F1
:1004F00000D010BD074B9942FBD1074C2000FFF7FD
:1005000083FE064A0649200003F01AFF054B00222D
:100510001A60EEE7FFFF00009001001024010010B8
:1005200071010000DC010010F0B5C64600B582B0D4
:10053000C024E4012100804802F0CFFE7F4B9A687E
:1005400080235B000021D15021007D4802F0C5FED0
:100550007C4C7D49200003F09BFD7C49200003F08A
:10056000A7FD8C235B00E35C002B00D1D3E0784B2C
:10057000402252425A84774B1B685A1C76490A60C3
:10058000002A01D102330B60714B98465E8CB6B2E3
:100590006C4C7249200003F0AFFC200003F09EFC7D
:1005A000042300930C336E4A6E49200003F0B4FC20
:1005B0006D49200003F0A0FC200003F08FFC6B4984
:1005C000200003F099FC6A49200003F095FC69497A
:1005D000200003F091FC6849200003F08DFC20000E
:1005E00003F07CFC8122062500951023120263494A
:1005F000200003F0BCFCFFF7BDFE020000951023B5
:100600005F49200003F097FCFFF7B8FE02005D4F42
:10061000009510233900200003F08DFCFFF7B4FE95
:100620000200009510233900200003F093FCFFF72F
:1006300093FE0200009510235349200003F07BFC39
:10064000FFF78EFE0200009510233900200003F012
:1006500072FCFFF78BFE020000951023390020008A
:1006600003F078FCFFF799FE02000095102347493C
:10067000200003F06FFCFFF7E2FE0200009510235C
:100680004349200003F066FCFFF7DFFE02000095FF
:1006900010234049200003F05DFC802200951023C8
:1006A00052003D49200003F062FC073D00950A23FB
:1006B00001223A49200003F05AFC3949200003F096
:1006C0001BFC310B2B000A22200003F0F0FB33123D
:1006D0000F221A40334F00950A233900200003F0FF
:1006E0001BFCFF22324000950A233900200003F052
:1006F00013FC200003F0F2FB2B49200003F0FCFB6D
:10070000200003F0EBFB4046FFF794FD404602B0AB
:1007100080BCB846F0BD0B4A1933FF33D35C002BC5
:1007200006D1E12103224902064803F02DFC1EE711
:10073000100003F095FCF4E74682010054560000D7
:1007400063823D00300600104782790048828100B4
:100750009001001018060010DC010010F0470000A6
:10076000711000002C480000484800005C48000060
:10077000644800006C470000704800007C4800009E
:10078000A0480000284A0000C4480000E8480000D3
:100790000C4900003049000054490000784900002D
:1007A00098490000B8490000BC49000010B5294B29
:1007B0001B68002B03D0284A1268D31A1BD503F0FC
:1007C0003AF8264B19781F22024001239340002952
:1007D0003CD019004011032210408000204A82586A
:1007E0009B0099501D4B1B78002B31D100221C4BD4
:1007F000DB681A6210BD174B00221A60194B5B7C34
:10080000002B0FD0144B1B681A00FA3211490A60F2
:10081000002A01D1FB330B60104A137801214B40B1
:100820001370CCE70E4B9A6880235B000021D150F7
:10083000094B1B68FA2292009A1806490A60002A9E
:10084000EAD1094A944663440B60E5E70021C1E719
:100850000822CCE7DC01001018060010D8010010B7
:100860005456000090010010E903000010B5040088
:10087000FFF7F2FDFFF758FE002C05D1054803F005
:1008800035F8FFF793FFF9E72100024802F072FF05
:10089000F4E7C0469001001070B580235B051A682C
:1008A0001D4B9A421BD080235B0500221A6002F088
:1008B000C2FF1A4902F011FD02F0BDFF43110322ED
:1008C00013409B00164A9A581F2318401E3B834032
:1008D0009B009B58002B09D10120FFF7C7FF802305
:1008E0005B0500221A600120FFF7C0FFFFF7A7FD9C
:1008F0000400002502E00135013CFF3C002D08DC2E
:100900002000FFF757FD0028F5D02068FFF7CAFD4B
:10091000F1E70020FFF7AAFF55B01F5E101000009E
:100920005456000010B502490120FFF7DFFD10BD4D
:10093000FFFF000030B52CE00B784340D807C0170C
:10094000164A10409A07D217154D2A4050405A07B0
:10095000D217144D2A4050401A07D217124D2A4080
:100960005040DA06D217114D2A4050409A06D2174D
:100970000F4D2A4050405A06D2170E4D2A40504083
:100980001A06D2170C4D2A4050401B0A584022002C
:100990000131541E002ACFD1C04330BD96300777B5
:1009A0002C610EEE19C46D073288DB0E6410B71D82
:1009B000C8206E3B9041DC762083B8EDF0B5C6468A
:1009C00000B5040088460522002103F00AFD002539
:1009D000A560E5602000103080225200002103F065
:1009E00000FD20001130FF3080229200002103F032
:1009F000F8FCC4239B00E5500433E5500433E55074
:100A0000C727BF00E551C826B600A5514046FFF7ED
:100A10000BFDA051E051200080BCB846F0BD0300A2
:100A20000278510606D51002FC22920110405B7834
:100A3000184370473F201040FBE703785B0602D560
:100A40008078C00970474078C009FBE7020003784E
:100A50005B060AD580780004FE23DB031840D378B8
:100A60001B02184313791843704740780004FE2393
:100A7000DB03184093781B021843D3781843F3E73D
:100A8000C6239B000022C2507047FFFF70B50400D0
:100A9000C6239B00C358012B24D0022B00D1AEE00B
:100AA000002B00D070BD01700133C36083604BB276
:100AB000002B0CDB4B0602D5A3680133A360A368AF
:100AC000012B07DDC6239B000122E250EAE7042345
:100AD0008360EFE7C6239B000222E250043B002222
:100AE000E250DFE7C268531CC360815482689342BE
:100AF000D8DB0023C356002B07DBC6239B00022252
:100B0000C250043B0022C250CCE7FFF796FF0028FA
:100B100040D0464D4649280003F0EEF92000FFF78B
:100B20007EFF010004230A22280003F0C0F9414996
:100B3000280003F0E1F92000FFF788FF01000423FB
:100B40001022280003F0B3F93B49280003F0D4F940
:100B500023001033C4229200A5585D1926001136D7
:100B6000FF362000FFF772FF36182000FFF757FF0F
:100B700002003100280003F02BFC2000FFF74FFF9C
:100B8000C4239B00E25894466044E0502000FFF7E5
:100B900077FF87E7254D2949280003F0ADF92000AC
:100BA000FFF73DFF010004230A22280003F07FF92C
:100BB0002049280003F0A0F92000FFF747FF0100BB
:100BC00004231022280003F072F91B49280003F0C7
:100BD00093F923001033C4229200A5585D19C8234D
:100BE0009B00E6582000FFF731FF36182000FFF782
:100BF00016FF02003100280003F0EAFBBDE7C42223
:100C000092008358581CA050E3181974C5239B0008
:100C1000E258551CE5502000FFF701FF854200DA3D
:100C200040E72000FFF72CFF3CE7C04630060010ED
:100C3000F8490000184A00002C4A0000304A000021
:100C400010B5040001001031C4239B00C2580120DC
:100C50004042FFF76FFE002300E00133C422920000
:100C6000A2589A42F9DC10BDC7239B00C0587047B8
:100C7000C4239B00C0587047C7239B00C058000A7C
:100C8000C0B27047F0B5C64600B504001130FF3061
:100C900084239B00E61880277F003A00310003F090
:100CA00097FBC725AD003A006159300003F090FB77
:100CB0002E4E2F49300003F01FF92000FFF7DCFF14
:100CC000010002230A22300003F0F1F860592500E8
:100CD0001035C4239B00E258290003F06BFB254B21
:100CE0001860002839D0214E2349300003F004F960
:100CF0002000FFF7C1FF010000F0ECF81D4F386045
:100D00001E49300003F0F8F8C7239B0098460423DF
:100D1000102241466158300003F09CF84346E358E6
:100D20001878802200235200290000F0C4F93860AE
:100D3000C7229200A3580133FF33A350C4239B0062
:100D40000022E250803252000021280003F049FBCB
:100D5000084B186880BCB846F0BD044E0849300006
:100D600003F0CAF8300003F0B9F8E1E730060010EC
:100D7000504A0000E0010010684A0000804A00006C
:100D8000A44A000010B50400FFF7EAFA03F05AF88D
:100D9000A04201D3002010BDFFF7F0FA03F052F893
:100DA000A04201D30120F6E70020F4E710B50400CB
:100DB000FFF7D6FA03F03FF8A04201D3002010BDA0
:100DC000FFF7DCFA03F037F8A04201D30120F6E781
:100DD0000020F4E7F0B583B004000D00214E022797
:100DE0000097102302002049300003F0A4F8009778
:100DF00010232A001D49300003F09DF82000FFF762
:100E0000D5FF002817D02800FFF7D0FF002812D008
:100E10002900200002F058FF84B2002C18D02000D6
:100E200000F0D4FA0F4D1249280003F065F82800AD
:100E300003F054F809E00B4C0E49200003F05CF875
:100E4000200003F04BF80424FF34200003B0F0BD71
:100E5000044D0949280003F04FF8280003F03EF83C
:100E6000F3E7C04630060010B84A0000C44A00004C
:100E7000DC4A0000CC4A0000FC4A000070B50600C5
:100E80001400FF2303421DD100291DD041184D1E1F
:100E9000002A0BD0FFF7D3FAB04201D9002012E0AC
:100EA000FFF77BFAA84211D920000CE0FFF775FA92
:100EB000B04201D9200006E0FFF760FAA84207D34C
:100EC000012000E0002070BD0020FCE70020FAE7D0
:100ED0002000F8E7F0B583B004000D00234E022790
:100EE0000097102302002249300003F024F80097F5
:100EF00010232A001F49300003F01DF81E4930005E
:100F000002F0FAFF2000FFF73DFF002817D028006D
:100F1000FFF738FF002812D02900200002F00CFF54
:100F200084B2002C18D0200000F050FA0F4D134965
:100F3000280002F0E1FF280002F0D0FF09E00B4C8E
:100F40000F49200002F0D8FF200002F0C7FF122452
:100F5000FF34200003B0F0BD044D0A49280002F020
:100F6000CBFF280002F0BAFFF3E7C04630060010BE
:100F7000004B0000C44A00006C4700001C4B0000FE
:100F80000C4B0000FC4E0000F0B5CE46474680B545
:100F900083B004000D0090463A4F042600961023BB
:100FA00002003949380002F0C6FF009610232A00DB
:100FB0003649380002F0CEFF4346002B07D0291BEC
:100FC000013100222000FFF759FF002821D028001E
:100FD00002F038FF0600200002F02DFF0700280075
:100FE00002F029FF8146200002F02CFF8046331AD0
:100FF00001330F2B18D923051BD001373C03601E8A
:1010000002F020FF01004046FFF764FF071E12D0E8
:101010001DE01C4C1E49200002F06EFF200002F073
:101020005DFF89277F0012E03100FFF753FF0700C3
:101030000DE089277F00200002F0FDFE80464B4630
:101040001C03240A361B0F2E07D1C14513D23800CA
:1010500003B0C0BCB946B046F0BD280002F0F2FEB5
:1010600001002000FFF736FF071EF0D101235B428D
:101070009C46E144E9E749464046FFF7ABFE0700DE
:10108000E5E7C04630060010384B0000504B00002A
:10109000CC4A000010B5FFF763F902F0D3FE01302F
:1010A00002F0D6FE0400FFF769F9010000222000DB
:1010B000FFF76AFF10BD70B504000E0015001A009E
:1010C0002900FFF7DBFE002806D02A0031002000AF
:1010D00002F05EFE80B270BD81204000FBE7FFFFA2
:1010E000F0B5DE4657464E464546E0B583B08146EC
:1010F0000D0093460093019100271BE06B1C98465E
:101100002D78022310222900484602F0D0FE6419EF
:10111000013701364546B245F0D8E143C9B2013145
:10112000FF24214002231022484602F093FE484645
:1011300002F0D4FE5F4524D23249484602F0DCFE7C
:101140005B46DB1B9A46009B9A4500D39A460223D6
:1011500010225146484602F07DFE2C0AFF231C4017
:101160002B40E4185444042310222900484602F07E
:1011700071FE022310220021484602F098FE00264C
:10118000C9E7204F3900484602F0B6FE1E494846DE
:1011900002F0B2FE01990C0AFF2634400B003340E6
:1011A000E418E31D984604231022484602F052FE3C
:1011B0002C0A344033002B40E4184444042310220A
:1011C0002900484602F046FEE143C9B201313140F0
:1011D00002231022484602F03DFE484602F07EFE01
:1011E0003900484602F088FE0849484602F084FE6D
:1011F000484602F073FE03B0F0BCBB46B246A946B7
:10120000A046F0BD544B0000584B0000644B00005A
:1012100010B582B004004E494E4802F06DFE642CB9
:1012200000D98AE0A3004C4AD3589F464B4949480D
:1012300002F062FE4A49474802F05EFE02B010BD6D
:101240004849444802F058FEF4E74749414802F053
:1012500053FEEFE745493F4802F04EFEEAE74449B6
:101260003C4802F049FEE5E742493A4802F044FEB4
:10127000E0E74149374802F03FFEDBE73F493548A8
:1012800002F03AFED6E73E49324802F035FED1E799
:101290003C49304802F030FECCE73B492D4802F093
:1012A0002BFEC7E739492B4802F026FEC2E7384932
:1012B000284802F021FEBDE73649264802F01CFE10
:1012C000B8E73549234802F017FEB3E73349214810
:1012D00002F012FEAEE732491E4802F00DFEA9E709
:1012E00030491C4802F008FEA4E72F49194802F0D3
:1012F00003FE9FE72D49174802F0FEFD9AE72C49AF
:10130000144802F0F9FD95E72A49124802F0F4FD6D
:1013100090E729490F4802F0EFFD8BE727490D4878
:1013200002F0EAFD86E726490A4802F0E5FD81E77A
:101330002449084802F0E0FD7CE701235B4200936A
:101340000B3322002049034802F0F5FD72E7C04646
:10135000704B000030060010644D0000784B000018
:101360006C470000884B0000944B00009C4B000031
:10137000B04B0000C84B0000E44B0000FC4B0000E9
:10138000104C00001C4C0000284C00003C4C00009D
:10139000504C0000604C0000704C0000804C00007D
:1013A0008C4C00009C4C0000B04C0000C84C00006D
:1013B000D04C0000E44C0000F84C00000C4D000044
:1013C000244D0000444D0000544D000010B582B083
:1013D00004005749574802F08FFD89235B009C4267
:1013E00014D8FF2C08D80B2C00D996E000D994E033
:1013F000A400514B1B599F46631EFF3B9AB2122A11
:1014000000D98AE093004D4AD3589F464C4B9C42EA
:1014100000D082E04B49474802F06EFD03E04A49A4
:10142000444802F069FD02B010BD4849414802F04D
:1014300063FDF8E746493F4802F05EFDF3E74549A2
:101440003C4802F059FDEEE743493A4802F054FDAA
:10145000E9E74249374802F04FFDE4E740493548A3
:1014600002F04AFDDFE73F49324802F045FDDAE786
:101470003D49304802F040FDD5E73C492D4802F097
:101480003BFDD0E73A492B4802F036FDCBE739491E
:10149000284802F031FDC6E73749264802F02CFD06
:1014A000C1E73649234802F027FDBCE7344921480B
:1014B00002F022FDB7E733491E4802F01DFDB2E7F6
:1014C00031491C4802F018FDADE73049194802F0D7
:1014D00013FDA8E72E49174802F00EFDA3E72D499A
:1014E000144802F009FD9EE72B49124802F004FD62
:1014F00099E72A490F4802F0FFFC94E728490D4874
:1015000002F0FAFC8FE727490A4802F0F5FC8AE767
:101510002549084802F0F0FC85E701235B4200936F
:101520000B3322002149034802F005FD7BE7C0464A
:10153000704B000030060010345100006451000070
:10154000FFFF000014510000F84E0000004F0000A3
:10155000184F00002C4F0000404F0000584F000073
:10156000704F0000804F0000944F0000AC4F00000F
:10157000D84F0000EC4F0000F84F0000085000006A
:10158000145000003450000050500000645000001F
:101590007C50000098500000A8500000B850000097
:1015A000C8500000D4500000F0500000245100004A
:1015B00010B5C0B2084B020063325C68627142220F
:1015C0005C68A271402210435A68D0715B680022A7
:1015D0001A72597210BDC0469001001010B5094B27
:1015E0001A68094B9A4208D1064B1868074B9C466B
:1015F000604443425841C0B210BD0549054802F05D
:101600007BFCF1E7140100105AA55AA5A65AA55A69
:10161000545200003006001010B5084B1860084BFB
:10162000984204D00749084802F066FC10BD0549FD
:101630001431054802F060FCF8E7C04614010010C0
:101640005AA55AA5545200003006001010B509489A
:1016500002F0ECF8041E06D007492831074802F0D2
:101660004BFC200010BD04494031044802F044FC0A
:10167000F7E7C046900100105452000030060010F9
:1016800030B583B00400FEF788FEE37801331B0217
:10169000C01AFEF7B5FE0500174B00221A80222162
:1016A0000C20FFF785FF154B58680A300C222900E3
:1016B00002F08EFE124B9D4206D012495C31124858
:1016C00002F01AFC00240FE00E4974310E4802F0BB
:1016D00013FCF7E72B5D6A46D11D0B700A480368BF
:1016E0001B680122984701340B2CF3DD064802F0F9
:1016F000F5FBC22003B030BD1405001090010010AE
:10170000040100105452000030060010F0B583B000
:10171000FEF795FE0400066800234268B2425B4172
:10172000DDB2FEF72BFE864242D900231D4026681B
:10173000FEF733FE864244D20023002B01D0002D59
:1017400005D101235B4223606360E360A360252130
:101750000C20FFF72DFF1F4B58680A300C22210088
:1017600002F036FE22681C4D290020311B4E08274E
:1017700000971023300002F0DEFB62682900303150
:1017800000971023300002F0D6FBE26829003C31BC
:1017900000971023300002F0CEFBA26829004831E8
:1017A00000971023300002F0D5FBC22003B0F0BD3B
:1017B0006668FEF7E3FD864201D80123B6E7002301
:1017C000B4E76668FEF7E9FD864201D30123B4E77A
:1017D0000023B2E790010010D45200003006001040
:1017E00010B5012800D010BD044B9942FBD1FEF783
:1017F00026FE01000248FFF7E1F8F4E7FFFF0000D2
:10180000EC01001070B504000D00884201D80500FD
:101810000C00FEF7AFFDA8420BD8FEF7AFFDA042CB
:101820000BD3621B0132102329000648FFF758FC36
:1018300070BDFEF79FFD0500EFE7FEF79FFD04007A
:10184000EFE7C046300600100300C07800069A7823
:10185000120410435A78120210431B781843704741
:101860000B0EC3700B0C83700B0A43700170704732
:1018700010B5064C208015210420FFF799FE044B7B
:10188000586821880A30FFF7EBFF10BD14050010DF
:101890009001001030B585B0FFF7D8FE00281CD0AD
:1018A000684602F0B5FA84B2002C1BD120210C202E
:1018B000FFF77EFE124B58680A300C22694602F090
:1018C00087FD1049104C6831200002F015FB200004
:1018D00002F004FBC22005B030BD0830FF30FFF736
:1018E000C7FFF7E70749084D5431280002F004FB11
:1018F000280002F0F3FA2000FFF7BAFFEAE7C0463B
:1019000090010010D45200003006001010B5034BB7
:101910001888FFF7ADFFC22010BDC04614050010A7
:10192000F0B583B00700C078254B18604E1E8219B1
:1019300080235B009A420ED8224A13689B191360D9
:10194000214BC018391D320002F042FD0020FFF784
:101950008FFF00241BE082204000FFF789FF1B4916
:101960001B4C6C31200002F0C7FA200002F0B6FADE
:1019700023E03B191979164D02231022280002F0AA
:1019800096FA12497C31280002F0B6FA0134B442CA
:10199000EFD30B4B1A680F4C0D4D03230093073305
:1019A0002100280002F0C7FA210008310223009329
:1019B00008333200280002F0CDFAC22003B0F0BD97
:1019C000E40100101005001018050010D4520000AA
:1019D0003006001054530000F0B5CE46474680B59F
:1019E00083B004000330FFF72FFF0500E01DFFF771
:1019F0002BFF060000222900FFF740FA00281BD029
:101A000080235B009D421CD801202A002D494042C2
:101A1000FEF790FF070020000B30FFF715FFB842DC
:101A200014D18023DB009D4215D880239B009D426A
:101A300045D98025ED0010E081304000FFF718FF08
:101A400037E082204000FFF713FF32E00220FF3032
:101A5000FFF70EFF2DE080256D011B4C21000C319E
:101A60001A4B984601235B4200930B332A004046F1
:101A700002F061FA210018310823994600930833D7
:101A80003200404602F057FA210024314B460093C1
:101A900008333A00404602F05DFA0D4A13685B19BC
:101AA000136000232A0007493000FFF704FBFFF70B
:101AB000DFFEC22003B0C0BCB946B046F0BD8025F1
:101AC0006D00CAE7180500105453000030060010DE
:101AD000E801001070B506000D00124B1B68CB1812
:101AE0008022520093420AD80F49104C2C3120001A
:101AF00002F002FA200002F0F1F900240AE082204C
:101B00004000FFF7B5FE0AE0E31CF15C0848FEF771
:101B1000BDFF0134AC42F7D30020FFF7A9FEC2207D
:101B200070BDC046E40100105453000030060010A0
:101B3000EC01001070B504000330FFF785FE0500CE
:101B4000E01DFFF781FE04000020FFF791FE210059
:101B50002800FFF757FEC22070BDFFFFF0B5DE463C
:101B600057464E464546E0B585B005000330FFF7C1
:101B70006BFE060080235B00984200D9D2E0A54BA3
:101B800098461B681B1A42461360A34C200002F0C3
:101B9000A5F943461A68A14F39003C3101235B4245
:101BA0009A4600930B33200002F0D4F99C4B9946DF
:101BB0001A6839004C31534600930B33200002F071
:101BC000C9F94B461A6843461B68D21A39005C3182
:101BD000534600930B33200002F0C9F9200002F0B5
:101BE0007DF9904B98461800FFF72EFE02008E49B3
:101BF0000423994600930C332031200002F0AAF907
:101C00004346181DFFF720FE020039006C314B4699
:101C100000930C33200002F09DF940460C30FFF792
:101C200013FE020039007C314B4600930C33200038
:101C300002F090F940460830FFF706FE02007B4FA5
:101C400039000C3108239B4600930833200002F032
:101C500081F9FEF7F4FB0390320041465046FEF74F
:101C600069FE804639001C314B4600930C33039AC1
:101C7000200002F06FF939002C315B4600930833E5
:101C80004246200002F066F9EB1D99461800FFF766
:101C9000DBFD020039003C315B4600930833200035
:101CA00002F058F94846FFF7CFFD40454FD05F4C52
:101CB00021004C31584E300002F01EF92800FFF789
:101CC000C3FD020021006031082700971023300077
:101CD00002F031F9281DFFF7B7FD020021006C3139
:101CE00000971023300002F026F928000830FFF793
:101CF000ABFD02002100783100971023300002F084
:101D00001AF928000C30FFF79FFD020048490097A0
:101D100010230831300002F00EF90220FF30FFF7E7
:101D2000A7FD0CE082204000FFF7A2FD3E493A4C9F
:101D30006C31200002F0E0F8200002F0CFF8C22061
:101D400005B0F0BCBB46B246A946A046F0BD384936
:101D500001235B4200930B33320018312E4802F00E
:101D6000F9F832002F49039802F024FB002812D121
:101D70002F49294C4C31200002F0BEF8200002F01F
:101D8000ADF800242748FEF715FB002833D02000CB
:101D9000FFF76EFDD3E7264960311F4802F0ACF82B
:101DA000FEF753FB0400FEF750FB01002000FFF795
:101DB00091F800281CD1184E1E49300002F09CF802
:101DC00080220123520017490398FFF774F9050098
:101DD0000400FFF7FBFA300002F080F8002DD1D0AC
:101DE0002800FFF745FD81235B009D42CAD1A6E78D
:101DF000FFF73EFDA3E70F49074C0C31200002F02E
:101E00007BF8200002F06AF883204000FFF730FDE5
:101E100095E7C0461005001030060010545300002E
:101E2000E801001018050010D4520000D45300003F
:101E300054540000D454000010B50248FFF718FDB8
:101E4000C22010BDFFFF000010B580204000FFF74A
:101E50000FFDC22010BDFFFFF0B5CE46474680B54E
:101E600085B004000330FFF7EFFC0390E01DFFF79F
:101E7000EBFC040041283CD9FEF78FFA040029212D
:101E80000C20FFF795FB354D354B994668680A30B5
:101E90001900FFF7E5FC81231B02984668680E30A5
:101EA0001900FFF7DDFC686812302100FFF7D8FC4D
:101EB0002C4D290064312C4E0827009710234A46E8
:101EC000300002F038F829007031009710234246A4
:101ED000300002F030F82549009710232200043129
:101EE000300002F037F8C22005B0C0BCB946B04699
:101EF000F0BD2A210820FFF75BFB184E70680A30FE
:101F00000021FFF7ADFC70680E304221FFF7A8FCFE
:101F1000144E31003031144F01256D4200950A23D3
:101F20000022380002F007F854239946B144009586
:101F30004A3B42224946380001F0FDFF310058314A
:101F400000950A23039A380001F0F5FF00950A2353
:101F500022004946380001F0FDFFC4E7900100105F
:101F600071100000D45400003006001054550000D9
:101F70000B0A437001707047F0B5CE46474680B5F6
:101F800083B0284B5C6825000A350D210A20FFF735
:101F90000FFB00212800FFF7EBFF20000C30224B45
:101FA00099461988FFF7E4FF20000E301F4B984632
:101FB0001988FFF7DDFF200010301D4F3988FFF72B
:101FC000D7FF200012300021FFF7D2FF194C21006B
:101FD0001831194D0126764200960A230022280066
:101FE00001F09AFF4B461A882100203100960A23FF
:101FF000280001F091FF43461A88210028310096FD
:102000000A23280001F088FF3A8821003031009629
:102010000A23280001F0ABFFC22003B0C0BCB946C0
:10202000B046F0BD900100101C0600101E06001006
:1020300020060010545500003006001010B5002393
:10204000084A1380084A1360084A1360084A13605C
:102050000849094C3C31200001F04EFF200001F0FE
:102060003DFF10BD14050010E40100101005001024
:10207000E8010010545500003006001010B584B07F
:102080000400FFF7E3FA002811D01F48FFF7C4FA55
:102090000020FFF7EDFB1D491D4C5031200001F0E1
:1020A0002BFF200001F01AFFC22004B010BD6846CB
:1020B00001F0AEFE80B2174B188000280AD1002331
:1020C0000B2B0FD8E218D1786A46D25C914204D12A
:1020D0000133F5E7FFF7CCFBE6E784204000FFF78C
:1020E000C7FBE1E70848FFF797FA0020FFF7C0FBBE
:1020F0000649074C5C31200001F0FEFE200001F093
:10210000EDFEFFF79BFFCFE75AA55AA554550000F7
:102110003006001014050010F0B583B00190374C64
:102120002000FEF7A5FD05002000FEF79DFD040040
:10213000334E31006431334F380001F0DDFE0423AB
:1021400010222100380001F085FE31007C3138007A
:1021500001F0D2FE03230A222900380001F07AFEA2
:10216000002229002000FEF789FE00281CD0264905
:102170001C31244801F0C0FE2048FEF761FD040038
:1021800001980B30FFF760FBA0421DD01E491D4C8B
:102190003031200001F0B0FE200001F09FFE02204F
:1021A000FF30FFF765FB0CE01749164C08312000A3
:1021B00001F0A2FE200001F091FE81204000FFF717
:1021C00057FBC22003B0F0BD0F490E4C3C3120003C
:1021D00001F092FE200001F081FE0848FEF752FD5A
:1021E000002806D088204000FFF742FBFFF726FFBB
:1021F000E7E70020FFF73CFBF8E7C046EC010010E2
:102200005455000030060010D455000010B5FEF7FC
:1022100041FFFFF72DFBFFF711FFC22010BD70B586
:1022200004000330FFF710FB0500E01DFFF70CFB77
:10223000010001222800FEF7A7FEFFF719FBFFF7B8
:10224000FDFEC22070BDFFFF70B5050003780F26AC
:102250001E408478384B9B68802252009A58002A8E
:102260001FD000218022520099502000FEF7D0FF9D
:10227000FFF7B4F900280ED12300143BDBB20D2B7D
:1022800005D801229A4013002C4A134203D1FFF7CC
:10229000A5F9002807D0282C4AD8A400284B1B59A0
:1022A0009F464021DEE70830FF30FFF7E1FAC22009
:1022B00002E02800FFF7E2FE70BDFFF7EBFAFBE754
:1022C0002800FFF7DDF9F7E7FFF720FBF4E731001F
:1022D0002800FFF725FBEFE72800FFF77DFBEBE782
:1022E00031002800FFF7F6FBE6E72800FFF714FFB0
:1022F000E2E7FFF78BFFDFE72800FFF790FFDBE760
:102300002800FFF717FCD7E7FFF736FED4E72800D1
:10231000FFF724FCD0E7FFF7F9F9CDE72800FFF736
:102320009BFDC9E7FFF788FDC6E7FFF78DFDC3E713
:10233000FFF78AFDC0E7C04654560000012C00009C
:10234000B051000010B502490120FFF749FA10BD55
:10235000FFFF0000182070470022436A9A60704710
:10236000BFF34F8F024B034ADA60BFF34F8FFEE794
:1023700000ED00E00400FA05032330B507254B43C8
:102380009D409A4044694900AC43446144692243FA
:10239000426130228A40C36B9343C363C36BC36300
:1023A00030BD70B5036804005B8C180A48708B70F0
:1023B000FF2000239DB2AA4203D9CD5C01336840BF
:1023C000F8E78854E36C002B22D1E16472B6230055
:1023D0002C331A78D6B2012A18D122000025733284
:1023E0002563033AA563D570157006221A70E31DA4
:1023F000D97FA3698A001868030018339B181E60F0
:102400000322FFF7B9FFA3691B689D6062B670BD28
:102410002165DBE710B5406AFFF7C3FF10BD03235A
:10242000594310B589B2013B802A00D004330724F8
:102430008C408B40826AA2438262826A1343836229
:1024400010BDC0462C23F0B581690400B64A086867
:1024500087B0E75CFEB20E2F00D997E3B60096591D
:10246000B7462423E55C143BAB4002681A4278D09F
:102470000025742724236C262564E35CA553A562FC
:10248000E55500271022FF35A5668C3D6755723D46
:10249000656605689A402F001740154200D1A3E3F6
:1024A0001F250421E2691540A94052069F4D920F55
:1024B000920052598A58002A04D06C210125625A90
:1024C0002A43625201009A002C31891885680A68F3
:1024D000AA4201D396496D1802213026AA1A4160FA
:1024E000023201394160B446826026228E31CE002C
:1024F000A25C0096664651008E400725B4462E0029
:10250000032789188E408F403100062601975F000F
:10251000DB199D409E400300920018339A18009BDF
:10252000029513604369019A8B4343614369002517
:10253000134362460121039604272C264361C36B93
:102540009343C363C36B029AC363836A93438362F7
:10255000836A039A13438362A7556564E565A165A1
:102560002166FF23036007B0F0BD26210123615CD3
:1025700002688B401A4207D02C230822E2546632AC
:10258000A15A0C3B0B43A352A36A002B00D150E38A
:10259000A56A6564EB0703D580235B005D40656435
:1025A000AB0703D580235B005D4065646B0703D5F3
:1025B00080235B005D4065642B0703D580235B00AF
:1025C0005D406564EB0603D580235B005D40656478
:1025D000AB0603D580235B005D4065646B0603D5C5
:1025E00080235B005D4065642B0603D580235B0080
:1025F0005D406564012309220121A3652B33E25468
:10260000073A6823059329420DD08026760007E01B
:10261000059BA26568330593154200D1D7E21100EE
:102620004A00B142F4DD059BA265682B02DD2C2334
:102630000A21E15480239B009A420ADD226CA36C9C
:102640009A4200DAFDE22C230C22E254059B45332A
:1026500005932C23E35C0A2B00D1BFE2242307253A
:10266000816AE25C223B5600921995409340A9434F
:102670008162826A134383622C23E35C0C2B00D1BA
:10268000A7E203002522059918332339A25C9200A2
:102690009A1811602622A25C05999200F5E1242384
:1026A0001022E35C05689A40154200D0F8E6A36E5C
:1026B000002B01D000F0E8FC626E002A00D0D5E2C9
:1026C000266C00222C23A2620632E254012E00D096
:1026D000F3E2236E002B00D1EFE2FF22636C134084
:1026E00063648F3AA25C002A00D162E3CC2B00D154
:1026F0006DE3216B626B914200DB68E3A16BE26BDF
:10270000914200DB63E3C02B01D100F0B1FC6E22EB
:102710000421A35A074D0B43A35271230022E25414
:102720000233A169E6546EE21856000054560000C8
:10273000FFFF0000E8130000012226211500615C64
:1027400003688D402B40591E8B4104A9DBB2CB702E
:10275000CB78CF1C002B00D07FE224231F25E15C27
:10276000E36989001D40AA4005002C3569180968F5
:102770005B0605919B0FC6499B005B589200D3589E
:10278000002B04D06C220821A35A0B43A352E36D03
:10279000059A19004431914200DB88E21E001A00BC
:1027A00005996836AC32E665914200DCD2E28022BF
:1027B00052009446D033A26D11E0216E1E004D42AE
:1027C00069412166616C059D1143616419005200E5
:1027D0004431E365A26568338D4200DCBBE26245AB
:1027E000EBDD059B5200A2653B78002B00D152E245
:1027F000256C002D00D0BEE2636C9A0705D06C21D9
:102800008022605A9200024362522068A14E026800
:10281000526BB24200D0D7E2626DDBB25219013581
:1028200025641370A36E626C5340A366236E002B65
:1028300004D16C211020625A02436252616E26203C
:102840000B402C2203216366235C9A27A154A269C2
:102850003025106801227F00BC465F00BD40FF1894
:10286000BA40043100920A00BA40060017006246DE
:1028700018369B00F31824261A6006234269BA43CF
:1028800042614769009A3A434261C26BAA43C263FC
:10289000C26BC263A25D846A550052199140934095
:1028A0008C438462826A134383625AE6242510268D
:1028B000655D0768AE40AC463D0035400095374247
:1028C00000D149E30026A6620226E654C1E50725A9
:1028D000AC461D35675D856A7E0000951025BD40BC
:1028E00001950625BE196746B540B7402E00009DEC
:1028F000BD438562876A019D3E43866206682E421B
:10290000E2D1226B636B9A4200DB8DE3A26BE36B37
:102910009A4200DB88E3E56C002D00D1CFE10F2364
:1029200073226979A25C0B400833A364002A0DD09E
:1029300020232A781A4209D02A789A432A70A16C57
:10294000E26C0139521811784B401370E36C1A781D
:10295000920600D48AE31B785B0700D486E3D02379
:102960005B00A269059310682523059AE65C9446EE
:102970000200B6001832009296196246262732608D
:10298000E65D302572009446B44495406246223B91
:102990006146934007228A4094466146009AB600F9
:1029A0009219059E023F23361660072642698A4324
:1029B0004261426913434361C36BAB43C363C36B5F
:1029C0000025C363E35D4A375A009B189E40B44616
:1029D000062261469A40836A2C268B438362836A6F
:1029E000134383620723E5532564A355B9E5A16D1D
:1029F000656C4A0005E62425665D05681027AC462F
:102A0000B740350066463E4200D1AEE52526A65DBC
:102A1000AF00B5002C26B446143E84446744B44647
:102A2000844465442E0000973F683D003768BC46EB
:102A300007277F42BC44AC4500D912E1009D2D68B8
:102A40003768103FAF4200D86FE2A76A002F00D16D
:102A50006BE20227104D3560E754FAE42C230E2276
:102A60000721E254083BE25C1E3B5600921991405C
:102A70009340856A8D438562826A08491343262202
:102A80008362A25C0300920018339B18196068E50A
:102A90005456000055230000FFFF00009A06000076
:102AA0002425655D0768AC4610256646B5402F4273
:102AB00000D009E77326012726230722E35CA755E8
:102AC00066461700760066440621B740BC460F00F4
:102AD000B740019730275E00B74002970327F618EA
:102AE0006E25B7409B0000930823B2403E00675B11
:102AF0001F4324336753E1540400009BCA49183430
:102B0000E31819606146836A019F8B438362836A7D
:102B10003B4383624369029F9343436143691E437E
:102B20004661C36BBB43C363C36BC36319E5242511
:102B3000665D0568AC461025B5402F0065463D42F0
:102B400000D047E209266E270225E654E65B2E43B5
:102B5000E6537EE4242110230268615C15008B405B
:102B60001D401A4200D1AEE000238360F9E4A36A5D
:102B7000002B00D1C5E000222C23A2620632E254D1
:102B8000AA4B059326230599E25C7BE7242326259F
:102B9000E15C8122FFF743FCA369615D18680222B2
:102BA000FFF7EAFBA26925271068635D0200A049D0
:102BB00018329B00D3181960E35D01269B00D218E0
:102BC0009C4B0635136000236655A362C9E48A0056
:102BD00029E5030025229749183357E51A33E25CAB
:102BE0000725816A1E3B3EE520252C220620A35B9B
:102BF0002B43A353A762A0546C228023A05A5B00EE
:102C00000343A352894D262608680322A15DFFF7DE
:102C1000B3FB2423E15CA36981221868FFF7FFFB63
:102C2000A269A35D10689A00030018339B181D6009
:102C300097E4236CE26CD218013323641578EDB26B
:102C4000A7E4A36A002B00D0FDE42C220821059BF9
:102C50003933FF330593A154FBE48F23DB00059345
:102C600095E5A56A002D00D0E8E6F2E6A3622C22E5
:102C70000623A354266C072E00DC27E5636D1B7822
:102C80009343902B00D197E07423E25C002AB3D0E9
:102C90000022E254B6E78223059ADB009A4200DC68
:102CA0005FE46C220221A35A0B43A35259E46C2225
:102CB0000821A35A0B43A35296E5A169E4E7242314
:102CC000A269E15C106826268122FFF7A8FBA369B0
:102CD000A15D18680222FFF74FFBA2692527106843
:102CE000A35D0200524918329B00D3181960E35DBE
:102CF000253E9B00D2184F4B13602C23E654A5624F
:102D00002FE401237022A3544B4A2C25059226223E
:102D10000D2707263021A25C67555500AA1896405A
:102D20009340A94073254269B2434261426913430B
:102D30004361C36B8B43C363C36BC363635D002B8E
:102D400000D11FE77123E35C002B68D0A36B013334
:102D5000A36317E7A26D059B21369E4200DB41E588
:102D600080235B009A4200DD3CE56C210825635A14
:102D70002B43635236E52068304E03685A6B1823A4
:102D8000B24221D19D4200DACCE0206803685A6B40
:102D90001723B24200D0C2E06C2240212364A35A20
:102DA0000B43A35242E51B6B1B7D5A0759D5002DDF
:102DB00060D01E4DA16926E7206803685B6B9847C9
:102DC00086423DDB266C81E490470300DAE7226B04
:102DD000636B9A4203DAA26BE36B9A4204DB6E22C6
:102DE0008021A35A0B43A3526E220021A35A002034
:102DF0009BB22361E36CA1526D3A6275002B00D047
:102E00001870002370217322206D2363E064236512
:102E1000A363A364054D6354A169A354F3E6236B34
:102E200001332363AEE6C046781E0000E8130000BD
:102E3000FEFF0000FFFF0000AF050000552300006B
:102E4000636DDD781A795B792D025BB21543002B37
:102E500070DB23685A8C1B6B1B7D954279D05A0717
:102E6000A7D402221A4205D0636D1B78134201D009
:102E7000CC23A3628848A26F036806339A422DD8F8
:102E80002025636D1A78154228D161681A780E786A
:102E90007240AA4322D1256C012D8ADD013203E064
:102EA0000132AA4200D184E79E1836788F5CB7427F
:102EB000F6D0A268002A19D0C0236C228021A36218
:102EC000A35A0B43A352A36A002B00D171E72C2312
:102ED0000522B625E254A169ED0094E6A268002A15
:102EE000EAD1236C002B08DB636D61689B181B78AB
:102EF0008B54236C01329342F6DA6C2200260125B2
:102F0000A360A35A616D9BB2E360A6522575036866
:102F1000A3670B785B06D6D4CC23A362D3E7904794
:102F2000431E39E7636C256C76E42C230822E254B7
:102F3000FFF717FB2368586B002800D133E70368BD
:102F400029001B6898472368002800DA2BE71B6BD1
:102F50001B7D5A078ED484E7252302006826A564CA
:102F600026253027E35C18329B00D3181E60635D72
:102F7000653E5D00AF40ED189B00D3188B221A60B0
:102F800062460721AE405300062263449A400196F0
:102F90000E009446AE400A0035009A404369160080
:102FA000AB4343614369019D2C222B43654643613A
:102FB000C36BBB43C363C36BC363836AB3438362A3
:102FC000836A2B436E258362009B63532364A15461
:102FD000FFF7C7FA0300B6002C339E192523020021
:102FE000E35C18329B00D318356819682739A94269
:102FF00037D931683E2934D98F212627274DC9007A
:103000001D600091E35D01269B00D318009A6E219C
:103010001A602C230422E2544833E654635A3C32AB
:1030200013436352FFF79DFA6E2380200021E25A7A
:103030000243E252E25A92B22261E152E36C013160
:1030400000226175002B00D01A70002370217322BA
:10305000256D63542363E5642365A363A364A354CC
:103060005AE42C230922E254FFF77BFA682378E420
:103070006E221023A15A0A4D0B43A352732303322D
:10308000A654A169E654BEE56C222023A15A266C01
:103090000B43A352FFF715FB18060010FFFF0000BB
:1030A000883C00000023426843741370012252429E
:1030B00082820232C1690281054A8375438283613B
:1030C000013093800B70C377D38013817047C04663
:1030D000180600100020009B18707047704703000E
:1030E0005A680020914203D39B688B424041C0B292
:1030F0007047030010B50020914206D85C68A142D9
:1031000003D39B6893424041C0B210BD436800693D
:10311000C91A4018704742680300891AC268002023
:10312000013A8A4201D31B69585C7047426810B566
:10313000891AC2684C1C013A03000020944204D84A
:103140001A69535C105D1B02184310BD10B5141EA4
:1031500000D072B6024B9847002C00D062B610BD6A
:10316000F11FFF1FF8B505000C0000268F18BC42A8
:1031700007D02B68217828005B68984701343618FF
:10318000F5E73000F8BD0200FF32527E0300101E4A
:103190000DD018695A6990420AD10C4A50698006CC
:1031A00006D511600223012051680B43536070471C
:1031B0007F205A690132024018698242FCD0586966
:1031C0001818983001705A61004AEBE700800040FF
:1031D0000300FF335B7E002B03D0026943699A42F0
:1031E000FBD17047194B30B55A69920607D5016972
:1031F0004269914219D102215A688A435A600124D6
:103200007F215A6922421FD0C268856801320A4074
:10321000AA4217D01D68C26882181576C2680132AA
:10322000C260C2680A40C260EBE77F21026982186F
:10323000983212781A6002690132026102690A400A
:103240000261DCE71A68DCE730BDC0460080004060
:10325000030070B5FF335B7E002B24D07F26C3684C
:103260008568C168826801333340914218D0816813
:1032700041180C7E81680131816082683240826031
:10328000AB420BD1094B5B69DB0707D58025084BA7
:10329000AD03DD67FFF7A6FF064B1D60200070BD84
:1032A00001246442ECE701246442F7E70080004017
:1032B00004E100E000E100E0C26883689A4203D0C4
:1032C0008368C018007E704701204042FBE7C36856
:1032D0008068181A00D580307047F0B5430685B075
:1032E0009B0F9A000193614B1F27D55803003B4069
:1032F00002930123029A9C4693408EB20A058914D8
:1033000003930B00340B2403120D3B40394200D1D0
:10331000634669468F898021760B0902032E08D106
:103320006E583E436E50E021C9018C4240D10623C5
:103330000DE06E58BE436E5080250021AD01AC42B9
:1033400022D14B4B98420CD14A4B19600723C1053F
:1033500003D5022B01D080210A4300211F244012F3
:1033600070E0454B984202D10121424BEDE7434BBF
:10337000984201D1424BE8E7424907238842E6D10F
:103380003F4901240C60E2E7C025AD01AC4253D0B7
:103390000F2B0DD1354C10348D002D59A84202D180
:1033A000394C2160D3E701310429F5D100F026F929
:1033B0000C2B0AD13549884202D135490024E1E776
:1033C00034498842C3D13249DBE70D2B09D1324958
:1033D000884201D13149F1E731498842B7D12F49BB
:1033E000CFE70E2B19D12F49884201D12E49E5E7AD
:1033F0002E49884201D12C49C3E72D49884202D188
:1034000002242949BEE72B49884201D12A49D5E740
:103410002A4988429BD12849B3E70B2B97D11B49F6
:10342000884203D1002426498C6190E725498842CF
:103430008DD101242249F7E7022388E701314011A9
:103440000429B3D0050025409D42F7D10C230198F3
:103450000A43434302981B1804485B00C3181B8CA3
:1034600019481B189B001A6005B0F0BD54560000A7
:1034700002C23A00C040044063823D0025423C0045
:10348000D040044049C20100D4400440424265009B
:10349000C84004402A83300C43826D00CC40044075
:1034A000298269000A4A7006B04004404B823B0002
:1034B0000602700041C27400C44004406242350EEE
:1034C000004004404482590000100110F8B5070084
:1034D000FFF7E8FD032301267C6A300022006363C6
:1034E000E36300237432A360E364A3622365137073
:1034F000483A1370A169314AD56F94460A79073268
:103500009040020060462A43C26708683100C363E6
:1035100043618362A31DDB7F426F99400B0013431D
:103520004367631DD97F8122FEF779FFA269244991
:1035300015686B6833436B6013791F221033134097
:1035400032009A401F4B1A601F4B186800F06CFE47
:1035500002220138E8606B68280013436B606B68D7
:1035600093436B60E31DD97F2B008A0018339B18AF
:10357000164A1A600322FEF7FFFEA31DD97FA36936
:103580008E401B6888001A0018321218104810600C
:10359000104A1268A26798603500DA6B154016422F
:1035A000FAD1E021206AC901FFF797FE0A49E069D4
:1035B000FFF793FE0123FD633B64F8BD04800440E4
:1035C00040420F0000E100E0200100105014000014
:1035D000FFFF00001806001020200000C02110B5D9
:1035E000054CC9012068FFF778FE80216068490119
:1035F000FFF773FE10BDC04618010010C02270B561
:10360000124B134C134963600B6A12061B021B0A10
:1036100013430B620023A36007332360FFF7DEFF31
:103620001F2101220C4B80251B68ED0319408A40A5
:103630005B060A499B0F9B0059589000A3682B42D8
:1036400002D113004350F9E70023FBE7FFFFFF001F
:1036500010E000E000ED00E01801001054560000FA
:1036600010B5FFF7CBFF0C4B70B50C49060018687E
:1036700000F0DAFD0A4C023E7043A568ADB20028A6
:1036800008DDA3689AB2AB1A01D561685B18150012
:10369000C01AF4E770BDC0462001001040420F0080
:1036A00010E000E010B5024BD868FEF7CBFE10BD6D
:1036B00018060010F7B5284D04002B0008330360EE
:1036C00018200192009100F0B1FE012300265B4218
:1036D0006060267266746682A382A675A661182051
:1036E00000F0A4FE3C35631CE061DE777C202560A1
:1036F00000F08AFE05000460182000F097FE174FC6
:1037000068603B001033AB61154B2868EB61154BCB
:10371000AE842B6203685B6B984700F087FE032240
:103720006865AB1DDB7F200002331340EA1DD377B1
:103730002B002C331E700123E362009B0A4A236393
:10374000019BA2626363094BFD601A602A6A65628D
:10375000A663E6635A60FEBDD4560000180600104A
:1037600028C201002982690040825C001801001013
:103770001430704710B50400806A002823D0226BF3
:10378000137D002920D07F2149420B43C0211375AE
:10379000A06AC901FFF7A1FD01201F220100A36A51
:1037A0001A4091400A00216BE46A097D0140002023
:1037B000A14200D010005B0605499B0F9B005B589F
:1037C0009200D050012010BD7E218B43DEE7C04621
:1037D00054560000B023426870B51370002243684D
:1037E000FA25DA701A71E12342682D015371012222
:1037F000436804009A713F32DA712800FFF733FF03
:103800002800FFF730FF084B2821186800F092FDD0
:103810000A204843281AFFF726FF08226168606AD9
:10382000FEF7BFFD70BDC04618060010036B187D83
:1038300001231840704701487047C04640825C0031
:1038400070B5402421420ED1B0234372130A037392
:103850006023C17301008373036842739B6A07226C
:103860000931984770BD3C259B00A943194321436A
:10387000EAE70B4A10B59388040001339380437C38
:10388000002B01D00023437481212000628A002391
:10389000FFF7D6FF23682000DB69984710BDC046BC
:1038A00018060010037A10B5002B0BD0437C002BB8
:1038B00008D0054B82691B689B1A044A934201D9C0
:1038C000FFF7D7FF10BDC046180600106F170000A5
:1038D0000A00054910B58B8801338B8000238121B4
:1038E000FFF7AEFF10BDC04618060010F0B504008B
:1038F0008BB0FFF7D7FF636AD96C9A6800293AD179
:10390000002A38D01A002C321278D0B2012A32D1D3
:10391000226B127D52072ED5C0265F68B6003A7919
:10392000FD7812022A4352BA92B20592BA79F97915
:1039300015029B6835400D43F021069394466B4673
:10394000A02289001B7E29409200914208D054D8C1
:103950000E008022813EFF3E9643B6B2002E4ED12D
:10396000059A002A4DD12268200095693A00A8479F
:10397000002800D0AAE0A06A00283CD0BD49FFF78B
:10398000ACFCA26ABC4D53069B0F9B0058591F23E9
:10399000134004229A401358606C5A1E9341B74A50
:1039A000216C1268834200D16AE1E2636364236C94
:1039B000002B06D1002904D0226B7F3B117D4B40A8
:1039C0001375C021A06AC901FFF787FC01201F22DF
:1039D0000100A36A1A4091400A00216BE46A097D44
:1039E00001400020A14200D010005B069B0F9B000D
:1039F000EB589200D0500BB0F0BDB142B0D02900CE
:103A0000AEE77D797F2D07D92068009345693B009B
:103A10002000059AA847ABE7658C059A954255D1D9
:103A200020267A1C0792BA787D7812022A430592E2
:103A30003A78324208D00022D0B2834222D9B85C10
:103A4000E569A8540132F7E7621CD27F002AF2D060
:103A50009342F0D1E5692A78B2432A70E5693E784D
:103A60002A789642E7D16A46127E013A0692069A71
:103A700090422BDA2E5C32003E5CB242DBD1013048
:103A8000C0B2F4E73C22604690430200601CC3775A
:103A900050B200286EDA059B5DBAA9B2802A0FD019
:103AA000812A30D03D2362469A430FD06346627C20
:103AB000DB0759D4002A38D12000FFF709FF05E0C1
:103AC000667C002E07D0013E012E13D9236820000A
:103AD0005B6A98474FE723682000DB699847674B8C
:103AE00065821B68A682A361637CA675012BEDD05D
:103AF00001232DE0638A8B42DED100232000637412
:103B0000FFF7B7FEE2E7637C013B012BDED8638A57
:103B10008B42DBD10023594A6374938821680133B7
:103B200093802000CB699847D0E7638A8B42C3D14A
:103B3000BB79FF2B01D09B061B0F142161568B42D2
:103B400008D02000FFF795FE637C002BBED0002339
:103B50006374BBE7022AF4D101330D32134023759D
:103B6000464B1B68A361C3E7002AA5D0638A8B423A
:103B7000A2D1E6E7079A7D78527812022A43BD79EE
:103B800052BA92B2FF2D01D0AD062D0F608A90423D
:103B900002D1607C002801D111008DE7152020564C
:103BA000854258D1172668B2059004A8361800201F
:103BB00030702068029301970096036A20001D0070
:103BC000059BA847628A059BC2212000FFF738FEAB
:103BD0000F22637D294D0133134063752B68A36168
:103BE0003378002B34D03B78033A1A4050235B42A1
:103BF000134362682000137023685B6A98470023B0
:103C000033700133A375637C002B21D03C216268A3
:103C100093798B43217D89000B4340210B439371A2
:103C2000628A6368110AD9701A71637C022B01D011
:103C3000022363740023A375636820005A790F235D
:103C40001A40236861689B6A073298472B68A36112
:103C50003378A3753AE70F2301381840854200D026
:103C60006FE76BB2C2212000FFF7EAFD034B1B6830
:103C7000A3612BE710100000545600001806001036
:103C8000E06B002800D192E6121A322A00D58EE6A7
:103C900000222364E2638AE670B50400D0181D0098
:103CA000074B6160013909187C332360A160E06033
:103CB00000F0BCFB00232061A5612000A38270BD41
:103CC000D456000015307047322330B58DB00390C4
:103CD000049105000C00012207A902A80293FFF736
:103CE00035FA079B01936B461B790793002B1CD178
:103CF000FA21343302930F4B89001868039504941A
:103D000000F092FA0122059007A902A8FFF71EFA17
:103D1000079B0193002B08D13533012207A902A884
:103D2000029303950494FFF711FA0798C0B20DB0FF
:103D300030BDC04620010010322330B58DB0029353
:103D40000309039305000B090C00012207A902A82F
:103D50000493FFF7FBF9079B01936B461B790793CD
:103D6000002B0FD1FA213B330293084B89001868CE
:103D70000395049400F058FA0122059007A902A8BF
:103D8000FFF7E4F90798C0B20DB030BD2001001074
:103D9000F0B5C3171B051B0DC31804000E0015005A
:103DA0008DB01B1372B6322207A9029202A800221C
:103DB00003930493FFF7CAF9079B01936B461F799E
:103DC0000797002F04D062B60798C0B20DB0F0BDBF
:103DD0003323FA2102930D4B89001868039404964B
:103DE000059500F021FA3A00069007A902A8FFF70E
:103DF000ADF9079A002AE6D1382307A902A8029351
:103E0000039404960595FFF7A1F9DCE72001001063
:103E100010B53A2304008AB0684605A90122009330
:103E2000FFF794F91022200006A900F0D1FA0598B6
:103E3000C0B20AB010BD0200C3171B05180D8018D0
:103E4000001370470200C017C0B2801800127047FC
:103E500000027047F0B51E0007000D008DB0131C66
:103E6000022A00DA022325241BB2019302ABE418D4
:103E70002800019900F05EFA3723CAB2092900D858
:103E8000073B013C9B18013E2370002E0DDC019B7B
:103E9000AB420AD9252302AA9B181A1B3B682100B2
:103EA00038001B6898470DB0F0BD0500E0E7F7B596
:103EB000002705000C001E000192B94206DA0368D3
:103EC0002D215B68984707006442013E33002800BB
:103ED0002100019AFFF7BEFFC019FEBD036870B54F
:103EE00004000D215B689847236805000A21200023
:103EF0005B689847281870BD70B5050000200C005D
:103F0000814208D02B6808001E6800F072FA210078
:103F100002002800B04770BDF8B516001F0004006D
:103F2000FFF7EAFF3A00050031002000069BFFF78B
:103F3000BEFF4019F8BDF8B516001F000400FFF7DA
:103F4000DBFF3A00050031002000069BFFF782FFEF
:103F50004019F8BD37B50500069800902800FFF716
:103F6000EAFF04002800FFF7B9FF20183EBD37B56F
:103F70000500069800902800FFF7CEFF04002800F7
:103F8000FFF7ACFF20183EBDF8B5160080222B4B82
:103F90009203DA6780232A4A0F00D16F5B010B433B
:103FA000D3670123274A284C13607F333343E360F0
:103FB000264B05009B6F1168E122D20297421CD16B
:103FC000A3230520A362030A63600723C0B2206015
:103FD000E660A36000230126236162682800324363
:103FE0006260AB60EB602B616B612B685B6998472B
:103FF0006369334212D02368FAE7154A974209D021
:10400000144A1068584300F00FF93900000900F015
:104010000BF9D8E7FB230320A362D4E7C5200E4B9E
:1040200080001A580D49FF351140C02212020A4380
:104030001A50802292031A606E76F8BD04E100E007
:1040400004800440988004400080004000800440C8
:1040500000CA08002001001000E100E0FF00FFFF9F
:10406000036810B55B69040098478022054B9203F2
:10407000DA67054A0549D36FFF340B40D367002345
:10408000637610BD04E100E004800440FFEFFFFF11
:10409000030010B5FF335B7E0C00002B01D0FFF74F
:1040A000DFFF20000149FFF718F910BD00103C00A8
:1040B000030010B5FF335B7E0C00002B01D0FFF72F
:1040C000CFFF20000149FFF708F910BD0060400054
:1040D00010B50248FFF786F810BDC0463006001044
:1040E000024A1368013313607047C0461806001077
:1040F000C02270B5124B134C134963600B6A120651
:104100001B021B0A13430B620023A36007332360C7
:10411000FFF764FA1F2101220C4B80251B68AD03B9
:1041200019408A405B060A499B0F9B005958900032
:10413000A3682B4202D113004350F9E70023FBE7A9
:10414000FFFFFF0010E000E000ED00E018010010AC
:104150005456000001220C4B10B51A750B4A0C4C3A
:104160001A61FA239B0063600A4B00222833236004
:104170002300FF3320005A760749FFF789FF20000C
:104180000649FFF795FF10BD18060010000001401A
:1041900030060010545700004782790048828100A1
:1041A0008E2120201A4B89005A5882435A500022EF
:1041B00071391A62FF39C04601390029FBD1012249
:1041C0001A645A6459645A64596C1142FCD023220F
:1041D0008E2180209A6089005A5882435A500122C9
:1041E000D9681142FCD00321196700215A67596729
:1041F0005A670122596F1142FCD09A670549064B54
:10420000D967064B1A60064B1A60064B1A60704756
:10421000008004405F00010004800440948004405A
:10422000988004409C800440002243088B4274D351
:1042300003098B425FD3030A8B4244D3030B8B42A7
:1042400028D3030C8B420DD3FF22090212BA030CB0
:104250008B4202D31212090265D0030B8B4219D391
:1042600000E0090AC30B8B4201D3CB03C01A5241B1
:10427000830B8B4201D38B03C01A5241430B8B42F9
:1042800001D34B03C01A5241030B8B4201D30B03E2
:10429000C01A5241C30A8B4201D3CB02C01A524109
:1042A000830A8B4201D38B02C01A5241430A8B42CC
:1042B00001D34B02C01A5241030A8B4201D30B02B5
:1042C000C01A5241CDD2C3098B4201D3CB01C01ACF
:1042D000524183098B4201D38B01C01A52414309D9
:1042E0008B4201D34B01C01A524103098B4201D3C7
:1042F0000B01C01A5241C3088B4201D3CB00C01A34
:10430000524183088B4201D38B00C01A52414308AB
:104310008B4201D34B00C01A5241411A00D20146D0
:10432000524110467047FFE701B5002000F006F843
:1043300002BDC0460029F7D076E770477047C046F7
:10434000030010B50800190000F002F810BDFFFFCF
:1043500010B5040004481300002804D00A0002200D
:10436000210000E000BF10BD0000000070B5002675
:104370000C4D0D4C641BA410A64209D1002601F07F
:1043800009FA0A4D0A4C641BA410A64205D170BD5F
:10439000B300EB5898470136EEE7B300EB58984767
:1043A0000136F2E7A0570000A0570000A057000018
:1043B000B457000030B500240139A24201D10020D9
:1043C00005E0035D01340D5DAB42F6D0581B30BDF6
:1043D000002310B59A4200D110BDCC5CC454013307
:1043E000F8E703008218934200D170471970013337
:1043F000F9E70023C25C0133002AFBD1581E704745
:1044000010B500F017F810BD10B5041E00D101342E
:10441000200000F03FF8002807D100F00FF8002836
:1044200001D100F011F88047F2E710BD10B5FFF799
:10443000EBFF10BD10B500F037F810BD014B186848
:104440007047C0464C070010FEE7FFFF10B5064C52
:104450002378002B07D1054B002B02D0044800E045
:1044600000BF0123237010BD5007001000000000A2
:10447000C0570000044B10B5002B03D0034904487B
:1044800000E000BF10BDC04600000000540700104F
:10449000C057000010B5034B0100186800F07AF80F
:1044A00010BDC0462801001010B5034B010018686C
:1044B00000F004F810BDC0462801001070B50500DA
:1044C000002910D00C1F2368002B00DAE418280004
:1044D00000F0E8F81D4A1368002B05D163601460F2
:1044E000280000F0E7F870BDA34208D921686018E1
:1044F0008342F3D118685B6841182160EEE71A0027
:104500005B68002B01D0A342F9D911685018A04272
:104510000BD120680918501811608342E0D1186847
:104520005B68411811605360DAE7A04202D90C239E
:104530002B60D5E721686018834203D118685B6857
:104540004118216063605460CAE7C0466C070010E0
:1045500070B50F4E0D0031680400002902D100F043
:104560008FF830602900200000F08AF8431C0AD040
:104570000323C51C9D43A84207D0291A200000F040
:104580007FF8431C01D101256D42280070BDC04653
:1045900070070010F7B50322CB1C934308330600C5
:1045A0001F000C2B32D20C27B94231D8300000F05A
:1045B00079F8324D2B681C00002C2ED139003000C8
:1045C000FFF7C6FF0400431C1ED12C682500002DF8
:1045D0004AD123682900E3183000019300F050F815
:1045E000019B834243D123680337FF1A03239F4370
:1045F00008370C2F00D20C2739003000FFF7A8FF36
:10460000431C34D02368DF19276013E0002BCBDA7A
:104610000C23002533602800FEBD2268D11B20D466
:104620000B2917D9E2192760A34211D12A606368C8
:10463000116053603000250000F03CF807220B3574
:10464000231D9543EA1A9D42E5D05B1BA350E2E788
:104650005A60ECE76268A34201D12A60EAE75A6037
:10466000E8E723006468A7E72C006D68AFE70C2338
:104670003000336000F01EF8CDE7C0466C07001034
:10468000002370B5064D040008002B6000F01CF8F4
:10469000431C03D12B68002B00D0236070BDC046A3
:1046A0007407001010B5024800F00CF810BDC046A9
:1046B0007807001010B5024800F005F810BDC0469C
:1046C000780700107047704770B50D4D04002B68D7
:1046D000002B01D10B4B2B6003232E6803349C432A
:1046E0003419200000F010F8002802D12C603000AE
:1046F00070BD00F015F801260C2376420360F6E742
:104700007C0700108007001003000448002803D035
:1047100000228342524110007047C0460000000052
:10472000014B18687047C0462801001041504349AA
:104730005F42415349435F524553544152545F5085
:1047400044550000646973636F6E6E656374436FF4
:10475000756E742000000000726570656174656498
:104760002000000069676E6F726564202000FFFF03
:1047700000000000000000000D31000017310000B3
:104780002D310000DF300000F33000005501000043
:104790005B010000610100006501000000000000F5
:1047A0000000000071010000C5010000ED380000AC
:1047B00051010000CD3400006D010000B101000086
:1047C000DD300000650200005923000015240000C0
:1047D00069010000612300005523000056656374E1
:1047E0006F727461626C652053697A653A2000FFCC
:1047F0003D3D3D3D3D3D3D3D3D3D3D3D3D3D3D3DE9
:104800003D3D3D3D3D3D3D3D3D3D3D3D3D3D3D3DD8
:104810003D3D3D3D3D3D3D3D3D3D3D3D3D3D3D3DC8
:104820003D3D3D3D3D3D3D3D3D00000053656C66D9
:10483000627573204B4E5820426F6F746C6F6164C9
:1048400065722056000000002C2044454255472048
:104850004D4F4445203A2D29000000004275696CF7
:10486000643A20004E6F76203138203230323200E8
:1048700031323A32363A3231000000004665617416
:1048800075726573202020202020202020202020E9
:1048900020202020202020203A2030780000000016
:1048A000466C617368202020202020287374617278
:1048B000742C656E642C73697A6529203A203078EF
:1048C00000000000426F6F746C6F61646572202895
:1048D00073746172742C656E642C73697A65292017
:1048E0003A203078000000004669726D7761726589
:1048F0002028737461727429202020202020202019
:10490000202020203A20307800000000426F6F7491
:104910002064657363726970746F722028737461A8
:1049200072742920202020203A20307800000000D6
:10493000426F6F742064657363726970746F722064
:104940007061676520202020202020203A203078C8
:1049500000000000426F6F742064657363726970B9
:10496000746F722073697A65202020202020202017
:104970003A20307800000000426F6F742064657345
:1049800063726970746F7220636F756E742020207B
:10499000202020203A200000706879736963616CE0
:1049A0002061646472657373202020202020202001
:1049B000202020203A2000002E0000003D3D3D3DFB
:1049C0003D3D3D3D3D3D3D3D3D3D3D3D3D3D3D3D17
:1049D0003D3D3D3D3D3D3D3D3D3D3D3D3D3D3D3D07
:1049E0003D3D3D3D3D3D3D3D3D3D3D3D3D3D3D2014
:1049F000627920736800FFFF0A0D436F70792066AB
:104A0000726F6D2052414D2077697468206C656E1D
:104A100067746820000000002C2061646472657374
:104A200073206F6666736574203078000A0D00008D
:104A30000A0D436F70792066726F6D20524F4D20C2
:104A400077697468206C656E6774682000FFFFFFEB
:104A500044696666202D20436F6D70617265205039
:104A60006167652000000000206469666665726504
:104A70006E742C204572617365205061676500007B
:104A800044696666202D2050726F6772616D2050F8
:104A900061676520617420416464726573732030BE
:104AA000780000002020657175616C2C20736B69A3
:104AB0007070696E672100FF736563746F722030D8
:104AC00078000000202D203078000000206E6F74E8
:104AD00020616C6C6F776564210000002069617053
:104AE0004572617365536563746F7252616E676579
:104AF000206661696C65642100000000204F4B0056
:104B00007061676520202030780000006E6F74208F
:104B1000616C6C6F77656421000000002069617032
:104B200045726173655061676552616E67652066A5
:104B300061696C65642100FF206572617365416481
:104B4000647265737352616E67652030780000008F
:104B50002D3078003A0000003034303030303033BF
:104B6000000000003030303030303031464600FF39
:104B70005550445F0000000045524153455F534586
:104B800043544F520000000053454E445F4441548B
:104B90004100000050524F4752414D005550444192
:104BA00054455F424F4F545F44455343000000005B
:104BB00053454E445F444154415F544F5F44454325
:104BC0004F4D50524553530050524F4752414D5F45
:104BD0004445434F4D505245535345445F4441541F
:104BE0004100000045524153455F434F4D504C45F5
:104BF00054455F464C415348000000004552415324
:104C0000455F4144445245535352414E474500008D
:104C10005245515F444154410000000044554D50FD
:104C20005F464C4153480000524551554553545F2F
:104C30005354415449535449430000005245535082
:104C40004F4E53455F535441544953544943000018
:104C50004745545F4C4153545F4552524F520000F8
:104C600053454E445F4C4153545F4552524F52009E
:104C7000554E4C4F434B5F44455649434500000059
:104C8000524551554553545F554944005245535080
:104C90004F4E53455F554944000000004150505F5E
:104CA00056455253494F4E5F524551554553540056
:104CB0004150505F56455253494F4E5F52455350F5
:104CC0004F4E53450000000052455345540000002C
:104CD000524551554553545F424F4F545F444553DD
:104CE00043000000524553504F4E53455F424F4FD3
:104CF000545F444553430000524551554553545F5A
:104D0000424C5F4944454E54495459005245535012
:104D10004F4E53455F424C5F4944454E54495459A8
:104D200000000000524553504F4E53455F424C5FC8
:104D300056455253494F4E5F4D49534D4154434898
:104D4000000000005345545F454D554C4154494FB8
:104D50004E000000436F6D6D616E6420756E6B6E6A
:104D60006F776E002C120000401200004A12000003
:104D7000541200005E120000681200003A13000096
:104D8000721200007C1200003A130000861200002C
:104D9000901200009A120000A41200003A130000C2
:104DA0003A1300003A1300003A1300003A130000CF
:104DB0003A130000AE120000B81200003A130000CF
:104DC0003A1300003A1300003A1300003A130000AF
:104DD0003A1300003A1300003A130000C212000018
:104DE000CC120000D6120000E0120000EA1200000F
:104DF000F4120000FE120000081300003A13000035
:104E00003A130000121300001C13000026130000C8
:104E10003A1300003A1300003A1300003A1300005E
:104E20003A1300003A1300003A1300003A1300004E
:104E30003A1300003A1300003A1300003A1300003E
:104E40003A1300003A1300003A1300003A1300002E
:104E50003A1300003A1300003A1300003A1300001E
:104E60003A1300003A1300003A1300003A1300000E
:104E70003A1300003A1300003A1300003A130000FE
:104E80003A1300003A1300003A1300003A130000EE
:104E90003A1300003A1300003A1300003A130000DE
:104EA0003A1300003A1300003A1300003A130000CE
:104EB0003A1300003A1300003A1300003A130000BE
:104EC0003A1300003A1300003A1300003A130000AE
:104ED0003A1300003A1300003A1300003A1300009E
:104EE0003A1300003A1300003A1300003A1300008E
:104EF0003A13000030130000494150204F4B00008E
:104F00004941505F494E56414C49445F434F4D4DD6
:104F1000414E442E000000004941505F5352435F10
:104F2000414444525F4552524F5200004941505F44
:104F30004453545F414444525F4552524F52000023
:104F40004941505F5352435F414444525F4E4F5476
:104F50005F4D4150504544004941505F4453545FB8
:104F6000414444525F4E4F545F4D415050454400C0
:104F70004941505F434F554E545F4552524F520086
:104F80004941505F494E56414C49445F5345435453
:104F90004F5200004941505F534543544F525F4EBA
:104FA0004F545F424C414E4B000000004941505F5E
:104FB000534543544F525F4E4F545F5052455041FA
:104FC0005245445F464F525F57524954455F4F50D8
:104FD00045524154494F4E004941505F434F4D5057
:104FE0004152455F4552524F000000004941505F19
:104FF0004255535900000000554E4B4E4F574E5FDF
:10500000434F4D4D414E44004352435F4552524F32
:1050100052000000414444524553535F4E4F545F89
:10502000414C4C4F5745445F544F5F464C415348A9
:1050300000000000534543544F525F4E4F545F41B0
:105040004C4C4F5745445F544F5F455241534500C8
:1050500052414D5F4255464645525F4F5645524676
:105060004C4F570057524F4E475F444553435249A8
:1050700050544F525F424C4F434B00004150504CF4
:1050800049434154494F4E5F4E4F545F5354415230
:105090005441424C450000004445564943455F4C4D
:1050A0004F434B45440000005549445F4D49534D23
:1050B000415443480000000045524153455F46417A
:1050C000494C454400000000464C4153485F45525E
:1050D000524F5200504147455F4E4F545F414C4C38
:1050E0004F5745445F544F5F4552415345000000C0
:1050F000414444524553535F52414E47455F4E4FE2
:10510000545F414C4C4F5745445F544F5F455241AB
:10511000534500004E4F545F494D504C454D454E50
:1051200054454400537461746520756E6B6E6F77DF
:105130006E2000FF1E1400002A140000341400002A
:105140003E14000048140000521400005C140000DB
:1051500066140000701400007A140000841400002B
:105160008E14000098140000A2140000AC1400007B
:10517000B6140000C0140000CA140000D4140000CB
:10518000DE140000E8140000F21400001A150000FC
:105190001A1500001A1500001A1500001A15000053
:1051A0001A150000FC140000061500001015000080
:1051B0002A230000CE220000D82200000E23000087
:1051C000E0220000EA22000030230000F22200006A
:1051D000F8220000302300002423000000230000F8
:1051E000082300003023000030230000302300009B
:1051F0003023000030230000302300003023000063
:10520000C8220000302300003023000030230000BB
:105210003023000030230000302300003023000042
:105220003023000030230000B2220000BA22000028
:1052300030230000C0220000302300002A23000099
:10524000162300003023000030230000302300002C
:105250001C2300002D2D3E4445564943455F4C4FCD
:10526000434B4544000000002D2D3E444556494324
:10527000455F554E4C4F434B454400002D2D3E702D
:10528000726F67427574746F6E20707265737365A8
:10529000640000002D2D3E70726F67427574746F4C
:1052A0006E204E4F54207072657373656400000069
:1052B00041707056657273696F6E52657175657372
:1052C00074204F4B3A20000041707056657273692C
:1052D0006F6E52657175657374206F757473696450
:1052E000652072616E6765202864656661756C74FF
:1052F000293A200046572073746172744020307838
:105300000000000020656E6440203078000000003E
:1053100020446573632E40203078000020435243C0
:10532000203A203078000000696170526561645550
:105330004944206572726F7200000000204F4B00DC
:1053400072616D4275666665722046756C6C000010
:105350002000000061743A200000000020230000BB
:1053600077726974696E67200000000020627974AA
:10537000657320402030780020637263203078000D
:105380002D2D3E6465636F6D70726573736F72006F
:10539000427974657320527820202020000000009C
:1053A000427974657320466C6173682000000000C8
:1053B0004469666620202020202020200000000074
:1053C000465720656E6420204020307800000000A1
:1053D000465720446573632E40203078000000005B
:1053E00046577320435243203A2030780000000093
:1053F000446573632E202020202020402030780038
:10540000446573632E2020202043524320307800CF
:1054100052656365697665642043524320307800A5
:105420002D2D3E5544505F4352435F4552524F52DB
:105430002000000020646174615B332D305D3A0010
:1054400020646174615B372D345D3A0020646174BF
:10545000615B31312D385D3A0000000020646174D9
:10546000615B31352D31325D3A00000043524320FB
:105470004D415443482C20636F6D706172696E67B3
:10548000204D43557320426F6F7444657363726996
:1054900070746F723A20636F756E743A200000006A
:1054A000697320657175616C2C20736B697070690C
:1054B0006E670000697427732064696666657265AB
:1054C0006E742C20457261736520506167653A20C7
:1054D00000000000466C61736820506167653A0007
:1054E0002D2D3E5544505F4150504C494341544945
:1054F0004F4E5F4E4F545F535441525441424C45BE
:1055000000000000557064617465722076657273E6
:10551000696F6E206D69736D6174636821205265D7
:1055200071756972656420002E0000002072656349
:1055300065697665643A2000424C20494420307801
:105540000000000020202020424C20666561747518
:1055500072652030780000002020202046572073FC
:105560007461727420202030780000002374656C10
:105570002000000020234443200000002023726507
:10558000702E2000202369676E6F722000000000DB
:10559000726573657455504450726F746F636F6CAD
:1055A0000000000020627920427574746F6E000064
:1055B00020627920554944000A0D466C61736820C9
:1055C0004469666620616464726573732030780094
:1055D000206C656E6774683A2000000020416464A6
:1055E000726573732070726F7465637465642100F3
:1055F00020416464726573732076616C69642C2049
:1056000000000000435243204572726F7221000077
:10561000435243204F4B00FF542B000062240000F4
:10562000702400009E26000038270000AC280000EF
:10563000CE280000F629000088250000EE29000091
:105640002E2B00008C2B00006E2B00005C2A00002B
:10565000A02A00000000005000000150000002508D
:105660000000035026C233004782790061C2340F24
:1056700064C279000300040007000B000C000D0059
:1056800013001400180019001A001D001E001F004E
:10569000200024002500280029002A0005000E0013
:1056A0001B00260002000A00170023001000110052
:1056B000000008000900150016001C00210022004F
:1056C00027002B000F001200000000000000000067
:1056D00000000000000000000000000000000000CA
:1056E00000000000A538000051010000A5300000B6
:1056F0006136000061360000DD300000D53000006A
:10570000613600006136000000000000000000006B
:105710000000000000000000ED3800005101000012
:10572000CD3400006136000061360000DD3000003D
:10573000D530000059230000152400006136000018
:10574000612300005523000000000000000000005D
:105750000D310000173100002D310000DF30000056
:10576000F330000061360000613600006136000051
:1057700061360000000000000000000065310000FC
:105780008731000051320000B9320000CF320000F2
:10579000D1310000F8B5C046F8BC08BC9E46704741
:1057A0005502000025090000452300005541000076
:1057B00075440000F8B5C046F8BC08BC9E4670476A
:1057C0001E0000005B5342204B4E5820424C205D8F
:1057D00000FFFFFFA55AA55A40825C00298269009C
:1057E000006CDC02000000002C0100100000000032
:1057F00000000000000000000000000000000000A9
:105800000000000000000000000000000000000098
:105810000000000000000000000000000000000088
:105820000000000000000000000000000000000078
:105830000000000000000000000000000000000068
:0C5840000000000000000000000000005C
:0400000300000103F5
:00000001FF
