:10000000001F00100B010000D5000000D700000009
:1000100000000000000000000000000000000000E0
:10002000000000000000000000000000D9000000F7
:100030000000000000000000DB0000008D23000035
:10004000DF000000DF000000DF000000DF00000034
:10005000DF000000DF000000DF000000DF00000024
:10006000DF000000DF000000DF000000DF00000014
:10007000DF000000DF000000DF000000DF00000004
:10008000DF000000D5160000DF000000DF000000E8
:10009000DF000000D9220000000000000000000086
:1000A000DF000000DF000000DF00000000000000B3
:1000B000DF000000DF000000DF000000DF000000C4
:1000C000BC2B0000000100101800000018010010F7
:1000D00058170000FEE7FEE7FEE7FEE7FEE7FEE753
:1000E000002330B55C181D18934203D22D680433E9
:1000F0002560F7E730BD002310B51C001A188B42AD
:1001000002D214600433F9E710BD10B50D4C0E4B4C
:100110009C4206D2A26861682068FFF7E1FF0C34B8
:10012000F5E70A4B9C4205D261682068FFF7E3FFC0
:100130000834F6E701F020F902F05CFA00F0FEFB6B
:10014000FEE7C046C0000000CC000000D400000064
:1001500010B501F0C8FF10BDF8B504000E0005226F
:100160000021002502F081FA200080222900A560EC
:10017000E5605200103002F078FA20008022113041
:1001800029009200FF3002F070FAC423C8279B00B8
:10019000E5500433E5500433E550BF000433E55027
:1001A0003000E55100F0B2FAE051300000F0AEFA54
:1001B000C7239B00E0502000F8BD03785A0606D5FF
:1001C000FC2240781B0292011340184370473F20E5
:1001D0001840FBE703785B0602D58078C0097047BA
:1001E0004078FBE70200FE2311788078DB034906A4
:1001F00009D5000418401379D1781B020B435BBA70
:100200009BB2184370475078000418405388F6E7B3
:100210008423F7B580229B00C51804001130290003
:100220005200C726FF3002F017FA8022B6005200B3
:100230002800A15902F010FA2F4D30492800FFF78D
:1002400087FFA3590A22190AFF2328001940FD3B02
:1002500001F024FF2200C423103201929B00E258D7
:100260000199A05902F0EAF9254F3860002840D0E2
:1002700024492800FFF76CFFFF23A259100A1840F9
:1002800001F056FE3860002805D028001E49FFF70F
:100290005FFF3868FEBD1D492800FFF759FF1C4964
:1002A0002800FFF755FF04231022A159280001F070
:1002B000C7FE80220199A059520001F05BFE12494D
:1002C0003860002800D111492800FFF741FFC722FC
:1002D0009200A35800210133FF33A350C42380228E
:1002E0009B00E1500198520002F0BFF9044B1868DE
:1002F000D0E70849E8E7C04618170010D0260000EC
:1003000018010010E5260000FC2600000727000069
:100310000D2700002F270000F8B5C626B600835928
:100320000400012B21D0022B00D193E0002B12D12D
:1003300001334AB20170C360002A0DDBA3604B0693
:1003400002D5A3680133A360A368012B06DDC62391
:1003500001229B00E250F8BD0423EFE7C6230222EE
:100360009B00E250043B0022F4E7C268531CC360C8
:10037000815482689342EEDB03787F2BEED9FFF73E
:1003800029FF26003E4D3F4F1036002839D03E4908
:100390002800FFF7DDFE2000FFF70FFF04230A22ED
:1003A0000100280001F07AFE39002800FFF7D0FE96
:1003B0002000FFF717FF042301001022280001F09E
:1003C0006DFE28003149FFF7C3FEC42320009B00C7
:1003D000E558FFF707FF75190136FF36361820007C
:1003E000FFF7EBFE31000200280002F035F9200093
:1003F000FFF7E3FEC4239B00E2581018E0500833D7
:10040000B1E723492800FFF7A3FE2000FFF7D5FE40
:1004100004230A220100280001F040FE39002800D0
:10042000FFF796FE2000FFF7DDFE042301001022F7
:10043000280001F033FE28001449FFF789FEC42389
:1004400020009B00E558FFF7CDFEC8239B007519DF
:10045000E658C3E7C42292008358581CE318A05002
:100460001974C5239B00E2582000551CE550FFF786
:10047000A4FE854200DA6EE70023A3516BE7C04675
:10048000181700106127000044270000042700000F
:1004900075270000C4220100012310B59200825884
:1004A0001031584200F0A4FA10BDC7239B00C05879
:1004B0007047C4239B00C0587047FFFF70B50C0005
:1004C0000300610602D53C210A4014430C210C486C
:1004D0001D0002783B351140502252420A43190058
:1004E00038310A705A6B6A7016121A002E70602525
:1004F0003E333D32157007221C7001F094FC70BD34
:1005000070010010F0B5364D0A00AB7869781B0217
:100510000B43A97985B0019102A9CE1D00210400E9
:100520005BBA406B9BB2317098422FD12D4BA172B8
:100530001B6880216364D0239B00134089008B4299
:100540000CD1F020800031001040274A00F0EAFA78
:1005500033780100002B0ED0C2210EE0E023C3212E
:100560009B009A4209D1BFF34F8F204B204ADA609B
:10057000BFF34F8FFEE700280AD03C27019A2000E6
:100580003A40FFF79BFF3378002B04D105B0F0BD54
:1005900038342070FAE70C222B7840211A4050237F
:1005A0005B4213432371636B1A122372A37AE271C5
:1005B00018002200084048320B420ED0216CBB4389
:1005C0000B43A372012313700F23627A28001A4091
:1005D0000732211D01F027FCD8E71070F4E7C04670
:1005E00070010010301800107701001000ED00E0DD
:1005F0000400FA0570B5264A0400937850781B026F
:100600000343402508005BBA9BB22840294226D00C
:10061000C320250001404835C22913D1297800297B
:100620000DD0616B99420AD13C219279E36C0A406A
:10063000934204D0236CE26404330B40236401230F
:100640002B7070BDC329FAD1626B9A42F7D1002298
:1006500020004239FFF732FF00236363EFE7802970
:100660000ED1616B002901D09942EAD16363002366
:100670000849236409681363616448342370E0E720
:100680008129DED1616B9942DBD160631063D8E7C9
:10069000700100103018001010B50E4C63797F2BDC
:1006A0000BD8E2782379E16A120213438B4204D11A
:1006B000A179CB0904D0FFF79DFF0023A36110BDF2
:1006C000C02309029B001940E3791943FFF71AFF81
:1006D000F3E7C04670010010C023016810B59B010C
:1006E0000400002099420ED3802362685B029A4284
:1006F00009D8914207D0521A013800F079F9A3685D
:10070000181A4342584110BDC068704710B5040024
:10071000FFF7E2FF002801D0206810BDC020800153
:10072000FBE770B5050001F0DEFC0400280001F0D5
:10073000CCFC201870BDFFFF10B50F4C01230F4AF1
:100740000421200000F0E4FFC0210D48C90100F0A1
:1007500069FE0C4B1A680C4B511C013208D0196011
:1007600020000A4901F012F80022094B1A7010BD4E
:1007700001221A60F4E7C0461C010010602000004E
:1007800063823D00301800106C010010C0FF0000B3
:100790000C160010184A10B514681849002C14D013
:1007A000174B1868001B10D416481B68406B0028B4
:1007B0001DD0FA331360002B01D101231360CA68E6
:1007C000136A58424341DB001362CB681B6A5A1E0E
:1007D00093418A68536000F063F900280BD0BFF39F
:1007E0004F8F094B094ADA60BFF34F8FFEE7FA20BB
:1007F00080001B18DEE710BD6C010010402B0000CC
:10080000301800101C01001000ED00E00400FA0593
:10081000802370B541680468074D5B05F0261A18FF
:1008200036069219126804C3AB42F7D10122034B7A
:100830001A60A546084770BDC8000010008004403B
:10084000FA212F4B70B51868890001F047FE80230C
:1008500001385B0498420DD2C0212A4A0906506033
:100860002948036A1B021B0A0B430362002393609F
:10087000073313600025254B1D60FFF75DFF9621B0
:10088000234C03222000C90101F080FCA56021490E
:10089000E560200025616561FFF743FF1E492000E8
:1008A00001F021FC042310221C49200001F0F6FB7A
:1008B0001B49200001F017FC1A49200001F013FC2D
:1008C0001949200001F00FFC1849200001F00BFC31
:1008D0001749200001F007FC81210423090210229E
:1008E000200001F0DBFB200001F0EFFB20001149AC
:1008F000FFF717FF104800F08DFEFFF74BFFF9E7F9
:100900001401001010E000E000ED00E030180010CD
:1009100018170010AC270000E42700005110000059
:10092000FD27000017280000882900002328000068
:100930002C2800003A2800001C010010802300220F
:100940005B051868124910B51A60884201D1FFF79B
:1009500077FF1049104800F065FD104B9B685B68FD
:10096000002BF4D0BC24A4012000FFF7B5FE002822
:1009700002D02068FFF74CFFB8208001FFF7ACFEE3
:100980000028E4D0064BE058FFF742FFDFE7C046FF
:1009900055B01F5E1010000040825C00402B00002C
:1009A00000FFFFFF13B50B4C50220021200001F087
:1009B0005CFE200000F096FE074B084A23600024EE
:1009C000074B084901940094074800F0F5FE074BD7
:1009D0001C6013BD1C0100109C27000028C20100F0
:1009E000298269003C180010700100106C01001091
:1009F000F7B58B18194D1A4E1A4F0193019B994266
:100A000001D1C043FEBD0B78174A5840C307DB171E
:100A100013408207D2172A405340020A534042072C
:100A2000D217324053400207D2173A400F4C53407E
:100A3000C206D217224053400D4C8206D2172240E4
:100A400053400C4C4206D2172240534000060A4A3B
:100A5000C017104058400131D0E7C0462C610EEE5F
:100A600019C46D073288DB0E963007776410B71D06
:100A7000C8206E3B9041DC762083B8ED064B002801
:100A800001D118607047054A126880180028F8D113
:100A900001221A60F6E7C046080500103018001061
:100AA0000020064A1168814206D0054B1B685B1A7C
:100AB000834201DB106001307047C046080500101A
:100AC00030180010437802781B021A438378C078EC
:100AD0001B0413430006184370470B0EC3700B0C26
:100AE00083700B0A437001707047FFFF0300C2B2AE
:100AF000002082B082420ED1081E0CD0074A01208D
:100B0000126801929A4206D8054A5B1812689A4206
:100B100080410192404202B07047C0460000000090
:100B2000BC2B0000F0B5B74BA5B09B6814780192C0
:100B30001A0002910F21FC32039353680C40594272
:100B40004B419B015360019B9878282801D900F004
:100B5000F0FB01F0B9FCE300190191015302DF0140
:100B6000FF01EE03EE03EE03EE03E503EE03EE03F7
:100B7000EE03EE03EE03EE03EE03EE03EE033C01A1
:100B8000EE03EE03EE03EE03EE03EE03EE03EE03DD
:100B9000EE0329007200EE03B600EE03A3009903F2
:100BA000EE03EE03EE03B903974F98493800FFF7C1
:100BB000CFFA974B01251B68964C0393FF335B7864
:100BC0001A002A4003922B420BD0934B934A94492C
:100BD0001A60002323603800FFF7BAFA914B002215
:100BE0006DE0039B04AE3000236001F0F5F90028AE
:100BF00017D10199B4460331019184212E00226856
:100C0000039B49000198C55C6046185C854201D091
:100C10000A00039601330C2BF4D1039B002B00D068
:100C20002260842322685B009A42D7D07A4B7B4AA9
:100C30007D491A6000232360CDE70127724D7B496F
:100C40002800FFF785FA724B724E1B680193FF3341
:100C50005B783B421DD0764B04A81C6801F0BCF9C0
:100C6000306000280ED16F236372724B20006381C5
:100C700080239B01A381029B0C221F700E3004A9CC
:100C800001F0EAFC6C492800FFF762FAC22025B0A7
:100C9000F0BD0823FF3369493360F4E768495A48D7
:100CA000FFF756FA5C4A5D4B12689A4204D1642001
:100CB000FFF7E4FE574B92E70822564BFF321A60CB
:100CC00085E0514D5F492800FFF742FA2F20019B34
:100CD000DB78C01A0002FFF717FD802304005B02D7
:100CE000984216D328005849FFF732FA574C504B18
:100CF000029A18686F2343724E4B21004381882368
:100D00009B018381012313700C220E3001F0A4FC9F
:100D1000BCE728004849FFF71BFAE8E73A4C4C4982
:100D20002000FFF715FA3C4A3C4B12689A4226D144
:100D3000019B0A22D9782000012301F0AFF9019B21
:100D4000344DD878022815D9424A434B94461B6843
:100D5000019363441B0B984206D3404B1B680193DD
:100D600063441B0B984205D901F0B8F83C49286050
:100D7000200031E70423FF333A492B60F8E70822CB
:100D8000244BFF321A6029E71F4D37492800FFF72F
:100D9000DFF9214A214B12689A428DD18022214EDF
:100DA0001C4F336852011919914222D801992F48DA
:100DB00022000331181801F04FFC33680A22E118B1
:100DC000002328003B600433316001F039F9184BEF
:100DD000029A186867234372254B4381A8235B015D
:100DE0008381012313700B4B0E301968FFF775FEDA
:100DF0004CE7822328005B001E493B60FFF7A8F9FF
:100E0000E5E7C046402B00001817001078280000C6
:100E10006C2B0000E0010010100100105AA55AA52B
:100E200081280000DC010010872800008D280000C8
:100E300074280000424C000008270000932800009E
:100E40009A280000A3280000B82800000001001024
:100E5000C9280000FF0F000000000000BC2B0000AC
:100E600007270000FC260000D72800000C05001012
:100E700042440000EB280000DD4FDE493800FFF758
:100E800067F9DD4ADD4B12689A4200D077E7019B93
:100E9000D81CFFF717FE019B0400D81DFFF712FEB8
:100EA00021000500FFF722FED54E00282FD001209B
:100EB0002200D4494042FFF79BFD039001980B307C
:100EC000FFF700FE039B98421DD18022D20094427E
:100ED00016D880239B009C4205D880204000A04269
:100EE000924102401218C749280001F043F80399C3
:100EF000306008231022380001F0A2F8C2496AE6E7
:100F000080225201EFE70223FF33336066E681233C
:100F10005B00FAE7BD49B648FFF71AF9B64AB74B86
:100F200012689A4200D0C7E68022B94B52011B6872
:100F3000E31893420AD8019D2C19A54200D1B9E6C5
:100F4000E978B448FFF7E8F90135F6E78222AC4BBF
:100F50005200B4E6A84AA94B12689A4200D00EE7A4
:100F6000AC4E3000FFF7A5FA07003000FFF79DFAFE
:100F700005009F4CA8492000FFF7EAF8042310223F
:100F80002900200001F05CF8A4492000FFF7E0F8F8
:100F900003230A223900200001F052F8280039000A
:100FA000FFF7A4FD964D002821D09D492000FFF7B2
:100FB000CFF83000FFF76EFA070001980B30FFF70B
:100FC00081FDB8420BD197492000FFF7C1F83000EE
:100FD000FFF71EF9852300280ED12860FEE52000CA
:100FE0009149FFF7B5F80223FF332B60F6E52000A7
:100FF0008E49FFF7ADF881235B00F6E77C4C8C4906
:101000002000FFF7A5F87C4A7C4B12689A4200D07A
:10101000E8E088492000FFF79BF8019BD81CFFF708
:1010200051FD020007000120764E40423100FFF7DB
:10103000DFFC814903902000FFF78AF80823102283
:101040000399200000F0FCFF7C492000FFF780F8A6
:10105000BC21042310228901200000F0F1FF78490F
:101060002000FFF775F83000FFF72CFD0423102255
:101070000100200000F0E4FF72492000FFF768F84B
:101080007148FFF71FFD042310220100200000F02B
:10109000D7FF6E492000FFF75BF86D48FFF712FDA0
:1010A000082310220100200000F0CAFF6949200037
:1010B000FFF74EF86848FFF705FD102201000423F2
:1010C000200000F0BDFF65492000FFF741F8019BBB
:1010D000DD1D2800FFF7F6FC082301001022200088
:1010E00000F0AEFF2800FFF7EDFC039B444D984253
:1010F00040D15B492000FFF72BF8BC203A003100BB
:10110000800101F09BFA071E2ED020005549FFF701
:101110001FF83000FFF7E0FA002820D02F2000F061
:1011200007FF0223010028600A22200000F088FF48
:101130002B68002B00D051E54B492000FFF708F841
:101140008022BC2031005200800100F013FF0223F6
:1011500001000A222860200000F072FF3EE5832390
:101160005B0042492B6003E620004149FEF7F0FF97
:101170002F6033E502233F49FF3320002B60FEF749
:10118000E7FF0198FFF79EFC1022010008232000D2
:1011900000F056FF38492000FEF7DAFF019B181DCA
:1011A000FFF790FC082310220100200000F048FF08
:1011B00032492000FEF7CCFF01980830FFF782FC8F
:1011C000082310220100200000F03AFF2C492000E3
:1011D000FEF7BEFF01980C30FFF774FC08230100F6
:1011E0001022B8E70822064BFF3226491A60BFE5F5
:1011F00018170010F9280000100100105AA55AA570
:10120000E00100100C050010042700001029000068
:10121000DC010010E4010010122900002A2900005E
:1012200034290000452900004F2900005C290000F6
:10123000722900007F2900008A29000097290000F8
:10124000AD290000BC29000010050010CB290000CA
:1012500014050010DA29000018050010E929000023
:10126000FB290000282A0000452A0000572A000018
:10127000632A0000782A0000842A0000902A0000D7
:101280009D2A0000AB2A00002B492C48FEF760FF86
:101290002B4A2C4B12689A4200D00DE52A4B1B6852
:1012A000002B00D0F2E4294BBC2118686F23437255
:1012B000274B029A438194239B01838101230E30A3
:1012C000137089010C2221E522491C48FEF740FFDA
:1012D0001B4A1C4B12689A4200D0EDE41A4B1A6864
:1012E000002A00D0D2E46F21184B02981B68597273
:1012F00017495981A42189019981012101700F3178
:10130000D973413199733031D97451395A741A747F
:101310005A751A759A745A761A76D9759A75B5E40B
:10132000074A084B12689A4200D0C5E4064B0A4AA5
:10133000C5E48022044B0BE6B22A00001817001007
:10134000100100105AA55AA5E001001074280000F1
:10135000424C0000C02A0000FFFF0000BC2110B575
:1013600003488901FEF7F8FE0022024B1A6010BD07
:10137000E4010010080500108E2120201A4B89007E
:101380005A5882435A50002271391A62FF39C046B6
:1013900001390029FBD101221A645A6459645A6444
:1013A000596C1142FCD023228E2180209A60890042
:1013B0005A5882435A500122D9681142FCD0032165
:1013C000196700215A6759675A670122596F1142FC
:1013D000FCD09A670549064BD967064B1A60064B45
:1013E0001A60064B1A607047008004405F000100DD
:1013F0000480044094800440988004409C80044011
:1014000070B500230400043918B2824205DD0133AF
:101410009D004D59A542F7D170BD00F0E5FF0120B8
:101420004042F9E7F8B543069B0F564A9B001F253B
:101430009A580300040001202B408FB20E05844609
:10144000891498403B0B1B03360D0D4000D16546B7
:10145000802180B27F0B0902032F08D157583843EF
:101460005050E022D20193423FD1062513E0575855
:101470008743575080229201934228D1424B9C428D
:1014800002D1424B002204E0414B9C4212D1012286
:101490003E4B07251A60E30503D5022D01D08023BA
:1014A0001E432900200000F0A9FD002863DA00F0A7
:1014B0009BFF61E0374B9C4201D1374BE2E7374B52
:1014C00007259C42E7D1344B01221A60E3E7C02292
:1014D000920193424DD00F2D07D1042230492000B4
:1014E000FFF78EFF2F4B1860D5E70C2D0AD12E4B3E
:1014F0009C4202D12D4B0022E7E72D4B9C42CAD1E2
:101500002A4BE1E70D2D09D12A4B9C4201D12A4BF0
:10151000F1E72A4B9C42BED1274BD5E70E2D19D1BE
:10152000274B9C4201D1274BE5E7274B9C4201D139
:10153000244BC9E7254B9C4202D1224B0222C4E72F
:10154000234B9C4201D1234BD5E7234B9C42A2D194
:10155000204BB9E70B2D9ED1134B9C4203D10022A7
:101560001E4B9A6197E71E4B9C4294D11B4B012264
:10157000F7E702258FE70643200000F033F8066006
:10158000F8BDC046402B000002C23A00C0400440F3
:1015900063823D0025423C00D040044049C2010026
:1015A000D02A0000D440044042426500C8400440B4
:1015B0002A83300C43826D00CC40044029826900AC
:1015C0000A4A7006B04004404B823B00060270009D
:1015D00041C27400C44004406242350E00400440E1
:1015E000448259001F23420603400C20920F5043AF
:1015F000C018034B4000C05A024BC018800070470F
:10160000E02A000000100110002330300370704702
:101610007047FFFF0300F7B530331B780400002B41
:101620004FD0284B9A69002A0CD0DB6C002B09D1D3
:10163000254B1B680193FF335B785B0702D503687A
:101640005B689847E06900283BD02049FFF7EAFE35
:10165000E2691F4D53069B0F9B0059591F231A40E7
:101660001B3B93402000595832224B1E9941243095
:10167000A76A00F007FC144B1B681E000193FF369D
:10168000002805D1002F03D0812273785340737056
:10169000C021E069C901FFF7C5FE01201F22717852
:1016A0000600E369246A1A40964001403200002097
:1016B000A14200D030005B069B0F9B00EB589200CC
:1016C000D050F7BD700100106C2B0000101000000E
:1016D000402B000010B5024800F0B0F910BDC04624
:1016E0007001001010B50400074B0833036024306C
:1016F00000F0C4FB054B0022E361012323622300B9
:10170000303320001A7010BD502B000040825C0066
:10171000F7B50400019303680092DB680F00984757
:1017200023000025383325711D7025641D74134B6B
:1017300001221B682E2019000126FF31524262331C
:10174000E264656348701D700D4B8E701B680D4818
:101750005A733A12DA70009A1D7312125A71009A73
:101760001F719A71019ADA71074B1D6023003033A3
:101770001E7000F037F8A6626562F7BD6C2B0000A2
:10178000682B00007001001014170010064B0A129D
:101790001B68DA7501221976044B1A700022044B7B
:1017A0001A60044BD9627047682B00000C160010B9
:1017B00014170010700100104362030030B503AC31
:1017C000257804AC247828330262C1611D705C70F6
:1017D000032302341C40030000222A331C709A7237
:1017E00030BDFFFF70B5374B04001A680125137E2A
:1017F000D17D1B020B435BBA9BB20200C362002384
:1018000034328361137004220363C2630200260032
:101810006832C36403651370C06900F073FD28006B
:10182000E36929361A683378516F984003000B43F7
:1018300053672300283319788122E06900F090FD76
:10184000E36921491A6853682B4353601F22E369F7
:101850001B79103313402A009A401C4B1A601C4B12
:10186000186800F03BFE2100E36901381B682A314B
:10187000D860E3690A781B68920018339B18154AF0
:101880001A6009780222E06900F04EFDE3693278BF
:101890001B68920018339B180F4A1A60E3691B6893
:1018A0009A60E3691A6833789D40D36B1D42FCD17E
:1018B000E021606AC901FFF7B5FD0849206AFFF71A
:1018C000B1FD70BD682B000040420F0000E100E058
:1018D00014010010FEFF0000FFFF000020200000A8
:1018E00070B5040003002500283319782A358122B9
:1018F000C06900F035FD29780222E06900F014FD8E
:10190000E3692A781B68920018339B18084A1A600A
:101910002200E36929321B681278183392009B1861
:10192000044A1A602200002334321370236370BD0E
:10193000FEFF0000FFFF00000023C26C1370026D69
:101940008363C264036583647047FFFF73B500233C
:101950000500036368352A7804009A4241D1026C7D
:10196000072A2ADD99425FD0C37800790002184324
:10197000637940BA80B27F2B14D9002803D000F0DD
:1019800063FDC143C90F2A4B1B680193FF335A788B
:1019900052070DD4226CA2615B789B0721D5CC2322
:1019A00023631EE0E16A091A48424141C9B2EAE7ED
:1019B000002916D0236CA361F1E7012A34D1436CCE
:1019C000DBB24364CC2B03D0826BC36B9A4208DD3D
:1019D000E36C002B05D0A36B002B02DD2000FFF78A
:1019E000ABFF236B21005E1EB341E2692A31114E29
:1019F000087812685B4233400F4E800018329B1902
:101A000012181360E0690978032200F08DFC2300AE
:101A100028331978E069812200F0A2FC00233434D5
:101A20002B700333237073BDA3610C23B8E7C0464A
:101A30006C2B000049F0FFFFE8130000F7B504002D
:101A400010220227250034352878C0B2092800D991
:101A5000CDE100F039FD0A0051001E00A000FC009D
:101A6000180135017D01B7019B01E3691B681A6804
:101A700023002833197810238B401A421DD02200EE
:101A80000023683223641370FF22236301336266EC
:101A9000236622002832107810228240E3691B68F6
:101AA000196811400ED1236E002B03D0616E4B429A
:101AB0005941C9B22000FFF749FFFF22E3691B68C3
:101AC0001A60F7BD21002A310A78183392009B185A
:101AD000C94A01261A600222E3691B685A605E60E7
:101AE00009789219E06900F01FFC00232E706364EE
:101AF000A3656665E665E0E7230001222A331B78CB
:101B0000E6699A40316801930868024023D12000B9
:101B1000283000782C31800009180D68A16D08006C
:101B20004430A8421ADA6831A16544239C46A16D6D
:101B3000606D8C444700AC450FDABC3398420CDC36
:101B4000636C68311843E36D606458425841A16585
:101B5000E0656765E9E7A84DE0E76765002AACD076
:101B6000236EE26D216C1A402266172906DC626C36
:101B7000481C20646254636E5A406266022122004F
:101B8000019B34328B40117032681832D318D02246
:101B900052001A6091E72600110028363078E36978
:101BA00081401B681B680B4002D000232B7049E763
:101BB000226B002A23D0A364682321002000E2695D
:101BC0002931126809781832890052181360E269C5
:101BD0002A300178126889001832233352181360B2
:101BE00001780322E06900F09FFB31788122E069EF
:101BF00000F0B6FB0023236404332B705DE7A26B77
:101C0000E36B9A4202DD2000FFF796FEE26C002AA9
:101C100000D1ECE068210F2013781B079B0F0133E4
:101C20004B43517901400831A164A16B0129C4D112
:101C300010781F3188431070A26CE06C013A821852
:101C4000107841401170A26B0132A263B5E7200009
:101C5000110028300078E36981401B681E680E423D
:101C600010D02600293636789868B60018339B19AC
:101C70001E680A3E864203D9604818602F70E1E66C
:101C80000523BAE71B68236B002B10D0236B63641A
:101C90008021012349006365636D626CFF2B0DDCBD
:101CA0001A4201D04A4062645B006365F4E7236C2A
:101CB0005A1C2264E26CD3181B78E8E701236365A1
:101CC00080206826616C4000626D530063650A42A3
:101CD00003D0824201DC6836F6E70622682E00D087
:101CE00007222A708022920093420ADD236CA26CA4
:101CF0003936FF36934226DA236B002B23D1053386
:101D00002B7022002B7828321178E0698122072B72
:101D100000D0802200F024FB2200E36929321B68F6
:101D200012782978183392009B1809290DD1334A6B
:101D30001A602200E3692A321B6812781833920075
:101D40009B181E60B9E60923DAE73200233AEFE771
:101D5000E36921001B6828311A0009782C328900B8
:101D600052181168220029321278183392009B18F9
:101D70001A68453A8A4207D9204A1A60220001238C
:101D800068322B70137098E6062336E72200E36969
:101D90002A321B681278183392009B18184A1A606E
:101DA0002300283319788122E06900F0D9FA236BE7
:101DB000002B03D00023236308231EE7A36B01330A
:101DC000A363F9E72300160028331878E3698640F7
:101DD0001B681968314208D093212C3380001818F1
:101DE0000368C9008B4200D867E60323DEE62000C3
:101DF000FFF776FD61E6C04642040000FFFF0000E9
:101E00005014000010B5C36A1B124B70C36AFF2048
:101E10008B7000239CB2A24203D9CC5C013360409A
:101E2000F8E7885410BD70B504000D00FFF7EAFF15
:101E3000236D002BFDD1E36C002B1DD1E56472B640
:101E4000230034331D78EDB2002D13D1032220007E
:101E5000A5631A70E3692A3001781B68890018337A
:101E60005B18012119600178E06900F05DFAE3690F
:101E70001B689D6062B670BD2565E0E700230360C6
:101E80007047FFFF10B5094B84681B688C4203D074
:101E900003608160406810BD01680029FAD09B1A78
:101EA0005B1AF7D4002344600360F3E73018001096
:101EB00010B572B6014B984762B610BDF11FFF1FF7
:101EC000322300B58BB00190029005A968460093BB
:101ED000FFF7EEFF0598C0B20BB000BD10B58CB097
:101EE0000400FFF7EDFF079000281AD13423FA21F0
:101EF00002930E4B890018680394049400F0EEFAE4
:101F000007A9059002A8FFF7D3FF079B0193002BB9
:101F100007D1353307A902A8029303940494FFF76D
:101F2000C7FF0798C0B20CB010BDC0461401001026
:101F30000F2310B50400C017184000198AB0001113
:101F4000FFF7BEFF059000280ED13B23FA21009336
:101F5000074B890018680194029400F0BFFA05A9A4
:101F600003906846FFF7A4FF0598C0B20AB010BD01
:101F70001401001070B50400C0170005000D2018F2
:101F80008CB000130E001500FFF79AFF0790002891
:101F90001CD13323FA2102930E4B89001868039455
:101FA0000496059500F09AFA07A9069002A8FFF793
:101FB0007FFF079B0193002B08D1383307A902A8A4
:101FC0000293039404960595FFF772FF0798C0B239
:101FD0000CB070BD1401001010B53A2304008AB093
:101FE00005A968460093FFF763FF102206A92000A9
:101FF00000F032FB0598C0B20AB010BD00231F22CA
:1020000010B54012040014408C4201D118B210BD2A
:1020100001334011042BF5D101204042F7E7F8B518
:1020200007000C0000258E18B44207D03B682178C9
:102030005B683800984701342D18F5E72800F8BD93
:10204000F0B512B21E008DB007000D00131C022A5D
:1020500000DA022325241BB2019302ABE418019994
:10206000280000F0C1FA3723CAB2092900D8073B7B
:10207000013C9B18013E2370002E0DDC019BAB42FE
:102080000AD9252302AA9B181A1B3B6821001B684A
:10209000380098470DB0F0BD0500E0E7F7B5002720
:1020A00005000C0001921E00B94206DA03682D21DA
:1020B0005B68984707006442013E33002800019A9C
:1020C0002100FFF7BDFFC019FEBD036870B5040015
:1020D0005B680D219847236805005B680A21200092
:1020E0009847281870BD70B5050000200C0081428B
:1020F00008D02B6808001E6800F0BFFA210002001B
:102100002800B04770BD026943699A42FBD170470D
:10211000026943699A420AD10E4B5A69920606D562
:102120000222196059680A435A60012070477F22D1
:1021300043690133134002699A42FCD04269821814
:102140009832117043610223024A51680B43536075
:10215000EBE7C04600800040FA2370B5040015008C
:102160009B006360064B0800083323600549FFF7B6
:1021700059F928000449FFF755F9200070BDC04601
:10218000702B000000103C0000604000F7B5170005
:1021900080221E4B92030191DA6780231C4A5B0167
:1021A000D16F01260B43D36780231A4C1A4A3B4355
:1021B0001660E360194B05009B6F1168184A1068A0
:1021C000584300F08BF90199000900F087F9030AE0
:1021D000C0B2636020600723E7600027A360276127
:1021E00063682800334363602B685B6998478023EA
:1021F000AF609B03EF602F616F616269324201D073
:102200002268FAE7074A1360F7BDC04604E100E020
:102210000480044000800040988004400080044016
:102220001401001000E100E0194B30B55A69920624
:1022300007D501694269914219D102215A688A433E
:102240005A6001247F215A6922421FD0C2688568E2
:1022500001320A40AA4217D01D68C268821815765A
:10226000C2680132C260C2680A40C260EBE77F21E7
:1022700002698218983212781A600269013202618A
:1022800002690A400261DCE71A68DCE730BDC0463B
:1022900000800040F8B50500C468876800F0F0F8D9
:1022A0007F23013406001C40BC420CD1074B5B6904
:1022B000DB0708D58024064BA403DC672800FFF762
:1022C000B3FF044B1C603000F8BDC04600800040E6
:1022D00004E100E000E100E010B50248FFF7A4FFD0
:1022E00010BDC0461817001010B5034A0349044832
:1022F000FFF732FF10BDC0462702340026C233006C
:102300001817001001230279064907329340002272
:1023100010B5CC6F2343CB670368DA635A619A62C6
:1023200010BDC046048004400368072070B5032434
:1023300006004C43A6401040A04030245D6949008F
:10234000B5435D615D692240284325008D408A4088
:102350005861D86BA843D863D86B0243DA6370BD69
:102360000323594310B5941109B22340D20701D574
:102370000422134307248C408B400268906AA043D8
:102380009062906A0343936210BDFFFF024A136894
:10239000013313607047C0463018001000220A4B0A
:1023A0001A710A4A1A600122094B1A71094A1A6005
:1023B0000222094B1A71094A1A600322084B1A714A
:1023C000084A1A607047C0463418001000C0004028
:1023D0003C1800100000014044180010004001406B
:1023E0004C1800100080014013B5C0211148C901EC
:1023F000FFF718F8C021104B104A11485A60026AC2
:1024000009061202120A0A43026200229A60073287
:102410001A600C4A80201268802101921A00000480
:102420008900936803405C426341019CDB01635077
:10243000F7E7C0460702050010E000E0FFFFFF00DD
:1024400000ED00E0402B00000C4B30B51B681A007B
:102450001632111E00D0997D0412C2B20120193328
:10246000814208DB1D78A54202D15D78954204D0F7
:1024700001300233F4E70120404230BD682B0000F8
:10248000C1688268030091420AD07F218268821865
:10249000107E9A6801329A609A680A409A60704782
:1024A00001204042FBE7C26883689A4203D08368F8
:1024B000C018007E704701204042FBE7C368806877
:1024C000181A00D58030704703B47146490840009F
:1024D0004900095A49008E4403BC70470022430852
:1024E0008B4274D303098B425FD3030A8B4244D3DC
:1024F000030B8B4228D3030C8B420DD3FF2209021E
:1025000012BA030C8B4202D31212090265D0030BDC
:102510008B4219D300E0090AC30B8B4201D3CB03D2
:10252000C01A5241830B8B4201D38B03C01A524114
:10253000430B8B4201D34B03C01A5241030B8B4216
:1025400001D30B03C01A5241C30A8B4201D3CB0201
:10255000C01A5241830A8B4201D38B02C01A5241E6
:10256000430A8B4201D34B02C01A5241030A8B42E9
:1025700001D30B02C01A5241CDD2C3098B4201D301
:10258000CB01C01A524183098B4201D38B01C01A7F
:10259000524143098B4201D34B01C01A52410309F6
:1025A0008B4201D30B01C01A5241C3088B4201D3A5
:1025B000CB00C01A524183088B4201D38B00C01A52
:1025C000524143088B4201D34B00C01A5241411A79
:1025D00000D20146524110467047FFE701B5002086
:1025E00000F006F802BDC0460029F7D076E7704734
:1025F0007047C04670B500260C4D0D4C641BA410EE
:10260000A64209D1002600F0C3FA0A4D0A4C641B09
:10261000A410A64205D170BDB300EB58984701360F
:10262000EEE7B300EB5898470136F2E79C2B000029
:102630009C2B00009C2B0000B02B000030B5002428
:102640000139A24201D1002005E0035D01340D5D96
:10265000AB42F6D0581B30BD002310B59A4200D1D2
:1026600010BDCC5CC4540133F8E7030082189342D8
:1026700000D1704719700133F9E70023C25C0133C0
:10268000002AFBD1581E704710B5064C2378002B4A
:1026900007D1054B002B02D0044800E000BF012306
:1026A000237010BD5418001000000000BC2B000067
:1026B000044B10B5002B03D00349044800E000BFD1
:1026C00010BDC0460000000058180010BC2B0000D0
:1026D00044696666202D20436F6D706172652050DD
:1026E000616765200020646966666572656E742C9A
:1026F00020457261736520506167650020466169FD
:102700006C6564210A0D00204F4B0A0D0044696678
:1027100066202D2050726F6772616D205061676571
:1027200020617420416464726573732030780020E6
:1027300020657175616C2C20736B697070696E67B0
:10274000210A0D000A0D436F70792066726F6D20AB
:1027500052414D2077697468206C656E67746820FB
:10276000002C2061646472657373206F6666736504
:1027700074203078000A0D436F70792066726F6D97
:1027800020524F4D2077697468206C656E677468BD
:102790002000FFFF000000000000000009160000FC
:1027A0009906000015160000111600003D3D3D3D44
:1027B0003D3D3D3D3D3D3D3D3D3D3D3D3D3D3D3D49
:1027C0003D3D3D3D3D3D3D3D3D3D3D3D3D3D3D3D39
:1027D0003D3D3D3D3D3D3D3D3D3D3D3D3D3D3D3D29
:1027E0003D3D3D0053656C66627573204B4E58202D
:1027F000426F6F746C6F616465722056002C2044C8
:1028000045425547204D4F4445203A2D290A0D4257
:1028100075696C643A20004A756C20323920323078
:1028200032300030303A30393A3338002046656172
:1028300074757265733A203078002D2D2D2D2D2D55
:102840002D2D2D2D2D2D2D2D2D2D2D2D2D2D2D2DB8
:102850002D2D2D2D2D2D2D2D2D2D2D2D2D2D2D2DA8
:102860002D2D2D2D2D2D2D2D2D2D2D2062792073EB
:102870006800FFFF1C010010556E6C6F636B3F20FA
:102880000042746E0A0D005549440A0D0055494432
:102890003F20004C4F434B0A0D0052657374617228
:1028A0007421004170705F56657273696F6E2052BB
:1028B00065717565737420004F7574736964652064
:1028C00072616E6765210A0D004572617365205360
:1028D0006563746F7220000D1B5B324B526563653C
:1028E00069766520446174613A20004275666665C8
:1028F000722046756C6C0A0D000A0D466C61736897
:1029000020536563746F722C20435243203078004B
:1029100023000A0D466C6173682044696666206175
:1029200064647265737320307800206C656E677420
:10293000683A200020416464726573732076616C8C
:1029400069642C2000435243204F4B2C0A0D004356
:102950005243204572726F72210A0D002041646457
:10296000726573732070726F746563746564210A95
:102970000D000A0D424F4F545F44657363200055AC
:102980006E6C6F636B65642C2000446573632E204E
:10299000435243203078002020446573632E206129
:1029A000742061646472657373203078000A0D4688
:1029B0005720737461727440203078000A0D4657B6
:1029C00020656E64202040203078000A0D46577341
:1029D00020435243203A203078000A0D46572044C5
:1029E0006573632E40203078000A0D526563656977
:1029F00076656420435243203078000A0D435243E9
:102A0000204D415443482C20636F6D706172696E94
:102A100067204D43557320426F6F74446573637232
:102A20006970746F723A2000697427732064696654
:102A3000666572656E742C20457261736520506105
:102A400067653A2000204F4B2C20466C617368204C
:102A5000506167653A2000417070204572726F7254
:102A60000A0D00697320657175616C2C20736B69A8
:102A70007070696E670A0D0020646174615B332DAC
:102A8000305D3A0020646174615B372D345D3A003B
:102A900020646174615B31312D385D3A00206461DE
:102AA00074615B31352D31325D3A004C6F636B0AD6
:102AB0000D00424F4F545F44657363203F0A0D0081
:102AC000424C5F4964656E74697479203F0A0D0059
:102AD00026C233004782790061C2340F64C2790094
:102AE0000300040007000B000C000D00130014008D
:102AF000180019001A001D001E001F0020002400ED
:102B00002500280029002A0005000E001B002600D1
:102B100002000A0017002300100011000000080046
:102B20000900150016001C002100220027002B00C0
:102B30000F00120000000000000000000000000074
:102B4000000000500000015000000250000003503F
:102B5000000000000000000009160000111600002F
:102B600015160000111600000C15001010160010AC
:102B700000000000000000001F20000011210000E4
:102B800095220000A7240000BD24000007210000BA
:102B9000F8B5C046F8BC08BC9E467047A5090000C1
:102BA0005D130000E92200009D230000B126000013
:0C2BB000F8B5C046F8BC08BC9E46704753
:102BBC005B5342204B4E5820424C205D00FFFFFFE0
:082BCC00A55AA55A006CDC02B9
:040000030000010BED
:00000001FF
