:10300000002000100B310000D5300000D730000048
:1030100000000000000000000000000000000000B0
:10302000000000000000000000000000D930000097
:103030000000000000000000DB300000D55400005C
:10304000DF300000DF300000DF300000DF30000044
:10305000DF300000DF300000DF300000DF30000034
:10306000DF300000DF300000DF300000DF30000024
:10307000DF300000DF300000DF300000DF30000014
:10308000DF300000ED440000DF300000DF300000E2
:10309000DF300000DF300000000000000000000012
:1030A000DF300000DF300000DF30000000000000F3
:1030B000DF300000DF300000DF300000DF300000D4
:1030C000905A0000000100100400000004010010EC
:1030D000A0030000FEE7FEE7FEE7FEE7FEE7FEE7EF
:1030E000002330B55C181D18934203D22D680433B9
:1030F0002560F7E730BD002310B51C001A188B427D
:1031000002D214600433F9E710BD10B50D4C0E4B1C
:103110009C4206D2A26861682068FFF7E1FF0C3488
:10312000F5E70A4B9C4205D261682068FFF7E3FF90
:103130000834F6E700F03CFD02F0F8FA02F0D8F8A7
:10314000FEE7C046C0300000CC300000D4300000A4
:10315000F8B500250123C02706000560436085609F
:10316000FF01124BAA00D4583900200000F076FD70
:1031700001221F231100234099400B000020640608
:10318000A40F0B49A40061589B00AD185850082D9E
:10319000E7D1084B08491B68F533FF33834202D05F
:1031A0000B603000F8BD0A60FBE7C046085900001C
:1031B0000C5A00006404001004010010F7B5826886
:1031C0000400002A06D0524B1B689B1A00D59AE0D7
:1031D000002383604F4E1F27B36803201D001B6A26
:1031E0005A1E9341DBB2019323684B4A9B009B58C4
:1031F000012219005B1139400340013088409B00D7
:103200009B598A4019180B68584243415B421A4047
:103210000A600A2002F0FEF8286A0325431E98413E
:1032200023683D499A008A580121174052112A40CB
:103230000135BD409200B258B94055192A6856422E
:103240007241524211402960627921791500019E34
:103250000D40B0424BD01800002D02D1802040001C
:1032600018430A4362710133490023602171082B1E
:1032700003D10023236001332371254B1B680A33DC
:10328000002B3ED0A360254A1568002D2ED0204982
:103290000B685B1B2AD40B680121F533FF33002B2D
:1032A00034D01360E37900220B4001931C4B1D784E
:1032B0002C00631E9C416442019B002B0FD0164BD7
:1032C0009100CB581F21012719408F4039005B0620
:1032D0009B0F104E9B009B5927408900CF50013215
:1032E000082AE9D101235D400D4B1D70FEBD002D64
:1032F00004D08020800018438A43B3E70120404275
:10330000B1E70123BEE701204042BCE71160C9E7F5
:10331000640400100C5A0000085900000401001059
:1033200008010010F0B501252C00134E8C408900D7
:1033300089591F260E40B5401600771EBE4149062A
:10334000890F0E4F8900C95976422E40AD006E504C
:103350008579E1B2002A07D00D438571002B02D098
:10336000C3791943C171F0BDC943C379C9B20D40D6
:1033700085711940F6E7C046085900000C5A000054
:1033800010B50348FFF7E4FE0022024B1A6010BD9F
:103390000C01001004010010F8B5164A01230421A5
:1033A000154801F0C1F8C0211448C90100F056FCCD
:1033B000C0210025C027C901114800F04FFC114E63
:1033C000FF01F3681D62104BAA00D4583900200099
:1033D00000F044FC1F220423224093400022640694
:1033E000A40FA400315901355A50082DEBD100F03B
:1033F00079FAF8BD60200000180100104682010033
:1034000063823D000C5A00002C59000010B501F0F9
:10341000EFFD002802DB00F0B5FAF8E700F0F8F95C
:10342000054B1A0034321278002A03D1DB6C002BD2
:1034300000D130BF10BDC0467C01001013B50A4C4E
:1034400064220021200002F0E7F9200001F056F884
:10345000064B074A23600023064901930093064860
:10346000064B01F0B5F813BD18010010245A0000F6
:1034700028C20100700400107C010010298269003C
:10348000F0B5804B8BB01B6800900C0004930728AC
:1034900015DD02000499083A5310CB180121D833E6
:1034A0001B780A40920013410F22134072D0082B60
:1034B00070DC013B1800009301F052FC0400012372
:1034C0001F00009A704E9740FA430292002209931F
:1034D00001920199099A019B0A4004995B08CB1853
:1034E000920005920793D83305991B78009A0B41F7
:1034F0000F2101320B409A4246D1019B5B00089399
:10350000049BED331D78089B1D4103232B4003933F
:10351000019B08331800069301F022FC039B050071
:10352000012B4ED0002B17D0022B2DD1069801F085
:1035300017FC02230400184200D190E0534B099974
:103540005A693A40084200D183E0002A00D093E053
:103550005A683A435A608FE0049B089AEE331B780E
:10356000134103221340022B16D0934216D0012B95
:1035700000D10443454B5A693A40002C1BD0002A25
:1035800002D15A683A435A60019B043601330193D1
:10359000042B9ED10BB0F0BD0440EBE73368044030
:1035A000002B06D0002804D101000822009801F069
:1035B0001FFC3560DEE7002AE6D1029A59680A400E
:1035C000E1E7069801F0CCFB314B009A1B68D34031
:1035D000039A58402D4B104219D059690F42A5D17A
:1035E000079A0598EF321278024103200240012A1F
:1035F00005D0022A08D0254B3943596196E7029A33
:10360000586802405A60F6E75A683A43FAE75A693E
:10361000174200D18AE7029905980A4007995A6132
:10362000EF3109780230014103200140012908D01F
:10363000022900D07AE73A4200D077E75A683A4345
:1036400005E03A4200D071E7029A59680A405A6090
:103650006CE7002A10D1029A59680A407AE732686A
:103660001A4209D0009801F07BFB084B5A690028E8
:1036700004D03A4200D16BE7346085E73A42FBD18F
:10368000E9E7C046585A00000C0200101C02001066
:10369000E8010010002901D101607047034B1B684D
:1036A00059180029F8D101230360F6E764040010DB
:1036B00010B5032201F09CFB10BDFFFFF7B50125FB
:1036C0002B00344A8340176804003A00EA3212782B
:1036D0001A4001923A181000E23006782E48DA3289
:1036E00040681278009018408446601928413818C4
:1036F000F93000782C4200D100090F252840274DD1
:10370000800045590198002809D16346002B1FD03D
:1037100000291CD1002E1AD0290071431EE0002A76
:1037200010D16246002A1FD1002910D01A4A5169CF
:10373000194202D100990B43536001212000FFF789
:10374000B7FFE9E76046002820D1002904D1F7BD82
:103750000029FCD0002AFAD0290051431048A400C7
:103760000019FFF797FFF2E70029F0D1EB373A781D
:103770001342ECD1084A5169194202D10099994388
:10378000516000212000FFF793FFE0E70029EDD012
:10379000C2E7C046585A00001C0200104C590000F5
:1037A000EC010010F7B5134EB36877680093BB4285
:1037B0001BD001250024104B1B68F3331B780193A9
:1037C000009B7B401D420CD00121A1407368194031
:1037D000019B1D420AD14B1E994120000C30FFF77E
:1037E00067FF01346D00082CEAD1F7BD4B42594107
:1037F000F3E7C0461C020010585A000008230021BD
:10380000024A013B02C2002BFBD17047EC010010C1
:10381000F8B52F48FFF7D2FC2E4C431C0BD0C30544
:1038200009D50122C0B282406169636811401A4221
:103830003DD000293FD0A269002A09D0264B1B6841
:103840009B1A05D40023A522A361244B1B681A628E
:103850000026234F3A68002A1BD01F4B1B689B1A77
:1038600017D401230021B3406569626839601D40A7
:103870001A4223D08D4225D00D0029003000FFF7D9
:1038800017FF29003000FFF719FF29003000FFF76C
:10389000F7FD01360437082EDCD16368A268934235
:1038A00004D0FFF77FFF200000F0B6F8F8BD002934
:1038B000C1D1134300E093436360BCE7002D04D003
:1038C0000125DAE79A436260D7E713436360F7E7BD
:1038D0000C0100101C0200106404001068040010A9
:1038E000EC010010244BF7B51D68244C2B00F2337B
:1038F0001A780021200000F00FF92B00F1331A781C
:103900001F4BF6351A6001272A786B7800251B02B9
:1039100013430193019A6B00DA401300032200263F
:103920001340012B04D03E00022B01D00126764229
:1039300031002800FFF7BCFE280031000C30FFF7F3
:10394000B7FE731C0AD03A00AA4063691340002EE8
:103950000BD0002B02D163681A4362600135082D39
:10396000D8D1200000F058F8F7BD002BF6D16368DD
:1039700093436360F2E7C046585A00001C020010EF
:10398000E801001070B5050001F0EAF9174C0600D7
:10399000072D17DC01002800FFF790FE144BAA004A
:1039A000D358002B0ED10133AB4062691A40002E70
:1039B00016D0002A02D162681343636031002800E8
:1039C000FFF776FE31002800FFF75AFD6368A26812
:1039D000934204D0FFF7E6FE200000F01DF870BD12
:1039E000002AEBD162689A431300E6E71C0200103C
:1039F000EC0100108269002A09D0054B1B689B1A54
:103A000005D40023A5228361024B1B681A6270470C
:103A10006404001068040010F7B54168C3680F0023
:103A200082685F40514053403A00040001919A433C
:103A30000AD0FA22324B52001B681A62314B1B68C3
:103A40001133002B49D0A36100250126019B1E42A2
:103A500019D02D49AB00CB581F210120194032004D
:103A600088405B063A4001009B0F3CD0002A36D0CC
:103A7000236A19432162531E9A412900D2B20023BE
:103A80002248FFF74FFC01357600082DDED1636830
:103A9000E269A360236A190011430AD0FA20184989
:103AA000400009680862174909681131002924D0CB
:103AB000A1611748174D0168806892009B0055501E
:103AC0001D500023626A23629200E3615350A26A90
:103AD00092001350A3626362F7BD0123B3E7A36AA8
:103AE0001943A162C7E7002A03D0E3691943E161E2
:103AF000C1E7636A19436162BDE70121D8E7C046A7
:103B000068040010640400102C5900000C0100101F
:103B10000C5A0000FFFF0000F7B50E00E02104275B
:103B2000C90105001748019200F098F8164C2000D2
:103B300001F08CFC23682022DF600221200001F0CC
:103B400097FCA522236803211A625A6F20001743AD
:103B50005F67022201F08CFCFA22012123685200E7
:103B60005A625A680A435A60084B1B681133002B8B
:103B700006D0AB616E60F643019BAE60EB60F7BDB3
:103B8000A961F7E76242350E680400106404001072
:103B9000054A064B08321A6000225A609A60DA60C1
:103BA0005A619A617047C0468C5900001C0200108F
:103BB0008E2120201A4B89005A5882435A500022E5
:103BC00071391A62FF39C04601390029FBD101223F
:103BD0001A645A6459645A64596C1142FCD0232205
:103BE0008E2180209A6089005A5882435A500122BF
:103BF000D9681142FCD00321196700215A6759671F
:103C00005A670122596F1142FCD09A670549064B49
:103C1000D967064B1A60064B1A60064B1A6070474C
:103C2000008004405F000100048004409480044050
:103C3000988004409C80044070B50023040004393F
:103C400018B2824205DD01339D004D59A542F7D1DE
:103C500070BD01F079FC01204042F9E7F8B5430658
:103C60009B0F564A9B001F259A5803000400012011
:103C70002B408FB20E058446891498403B0B1B03E2
:103C8000360D0D4000D16546802180B27F0B0902C0
:103C9000032F08D1575838435050E022D2019342A5
:103CA0003FD1062513E05758874357508022920191
:103CB000934228D1424B9C4202D1424B002204E065
:103CC000414B9C4212D101223E4B07251A60E3056D
:103CD00003D5022D01D080231E432900200001F0CE
:103CE000F3FA002863DA01F02FFC61E0374B9C42C5
:103CF00001D1374BE2E7374B07259C42E7D1344BE4
:103D000001221A60E3E7C022920193424DD00F2DA9
:103D100007D1042230492000FFF78EFF2F4B186097
:103D2000D5E70C2D0AD12E4B9C4202D12D4B0022FF
:103D3000E7E72D4B9C42CAD12A4BE1E70D2D09D173
:103D40002A4B9C4201D12A4BF1E72A4B9C42BED11F
:103D5000274BD5E70E2D19D1274B9C4201D1274B7C
:103D6000E5E7274B9C4201D1244BC9E7254B9C42F8
:103D700002D1224B0222C4E7234B9C4201D1234BA8
:103D8000D5E7234B9C42A2D1204BB9E70B2D9ED106
:103D9000134B9C4203D100221E4B9A6197E71E4BA6
:103DA0009C4294D11B4B0122F7E702258FE7064383
:103DB000200000F033F80660F8BDC0460C5A000041
:103DC00002C23A00C040044063823D0025423C00EC
:103DD000D040044049C201009C590000D440044036
:103DE00042426500C84004402A83300C43826D0083
:103DF000CC400440298269000A4A7006B040044061
:103E00004B823B000602700041C27400C440044073
:103E10006242350E00400440448259001F2342068E
:103E200003400C20920F5043C018034B4000C05A6F
:103E3000024BC01880007047AC5900000010011000
:103E400010B5040001F016F92300012258331A704E
:103E5000024B1B6823660023E36510BD6404001059
:103E600070B54B0602D53C231A4011430C220D4C71
:103E70000500237838351A4050235B421343020073
:103E80002B70436B3B3253701E120300167060227E
:103E90003D333E301A700170593A2900200000F07D
:103EA000CEFE70BD7C01001003000020814207D1CE
:103EB00063225A72034A01305A81902252019A8138
:103EC0007047C04643400000F0B5AC4B85B05A780F
:103ED0009B7804001B0213435BBA426B9BB29A426D
:103EE0007BD10022A54B9B7982720293A44B1B6865
:103EF0004364F02380209B000B408000834233D03A
:103F000011DC803883421FD0E0239B00994207DBFD
:103F10009C4A914200DCDBE09B4B994200D1FBE0E4
:103F20000025C32150E0A022920093421CD0803291
:103F30009342E9D13F2320001940FFF7B5FF4142EA
:103F400041410500C2313FE064208C4B8B49DB7955
:103F5000097A60722338A07281380343E3722173B7
:103F60006273A27301252EE0844AD6790F2216408F
:103F7000824A128955BA1700A022ADB2920093422C
:103F800000D0F1E0206D00280DD0036829009B6867
:103F90009847002807D0206D7C4A036829001B68D9
:103FA0001F003300B847681EFF38FF2817D8784B2A
:103FB0003200C018754901F0DBFB01220025754B6A
:103FC0001A70754B1D60C2213C26029A20003240B7
:103FD000FFF746FF002D00D0A5E005B0F0BD6F4B08
:103FE0001868854201DA0025EDE70300FF33AB4294
:103FF000F9DB281A602811D831185F290ED9684AD0
:104000005E4B1268674E0392FF328142EBD09D7A7D
:1040100060280AD1557001300133F6E7614D320056
:1040200040195A4901F0A4FBDDE73554F3E7691E56
:10403000FF39FF2925D820003200554B0E30C91812
:1040400001F096FB206D002811D0036829009B68C1
:10405000984700280BD00022206D290003680092A9
:104060005B6822009C460E3233006546A847330049
:10407000633363724223A372023B1E43E672A7813D
:1040800070E7464B19688D42DCDB0B00FF33AB4217
:10409000D8DB2000691A0E30424B602912D8721802
:1040A0005F2A0FD99C463E4B1B68FF3303938A421D
:1040B000C8D0602909D1039B5B78DBB20370013162
:1040C0000130F4E7C9183200BAE763465B5CF5E7F4
:1040D00099420BD0294B1B7A002B07D1274B5B7AD7
:1040E000FF2B03D18023304A5B051A60606D0028E6
:1040F00003D0036801211B68984700F0D1FF206DB1
:10410000002801D001F046F9BFF34F8F274B284A12
:10411000DA60BFF34F8FFEE762236372254B638142
:10412000002323731EE70C22144B21001B78483117
:104130001A4050235B4213432371636B1A1223729C
:104140004023E271A27A134004D0236CB2431A4395
:104150000123A2720B700F23627A211D1A400732CD
:10416000064800F06CFD38E780229200934200D1AF
:104170005DE70023383423702FE7C0467C01001030
:104180006404001081030000D103000086010010C8
:1041900050020010500300105C040010580400107E
:1041A0005C5A00005403001055B01F5E00ED00E0A3
:1041B0000400FA0543D2FFFF70B5264A0400937845
:1041C00050781B02034340205BBA9BB2084026D0C4
:1041D000C320250001404835C22913D12978002980
:1041E0000DD0616B99420AD13C219279E36C0A406F
:1041F000934204D0236CE26404330B402364012314
:104200002B7070BDC329FAD1626B9A42F7D100229C
:1042100042392000FFF724FE00236363EFE7802983
:104220000FD1616B0029ECD1636323000A48483346
:10423000006821646064197001235B42E3641163C8
:10424000DFE78129DDD1616B9942DAD160631063C8
:10425000D7E7C0467C01001064040010F7B5C02504
:10426000284CAD00E3782279A1791B0213430A029E
:104270002A40E5792A4395B2002B24D122490968C6
:104280000191FF314978C90706D5C02A07D1218994
:1042900049BA89B200F086F90023A361F7BD8022F4
:1042A00052009542F8D10C212278C371114050225E
:1042B000164B52420A4302718360011D08222000FE
:1042C00000F0BDFCE8E73C260F00B7433E006779ED
:1042D0007F2F0CD8E56AAB42DED176B2002E02DA2F
:1042E000FFF76AFFD8E71100FFF7EEFDD4E7002ED5
:1042F000D2D1F021890029402200180000F0AAFD47
:10430000CAE7C0467C0100105C5A000000E1014091
:1043100010B50400406D002803D0036803211B681A
:104320009847200000F07CF800F0BAFE206D0028CD
:1043300001D001F02FF810BD030070B530331B78A9
:104340000400002B5CD000F071F8230058331B7878
:10435000002B1AD02C4BDB6C002B16D12B4D226E70
:104360002B689B1AE26D934205D300F0F3FD002801
:1043700001D02B682366236E2A682549D21A8A4207
:1043800003D9FA2292009B182366636B002B0DD091
:104390001E4B626C1B689B1A1E4A934206D9002270
:1043A00081212000FFF75CFD002363631A4B1B781B
:1043B000002B25D0144B1A0034321278002A1FD15A
:1043C000DA6C002A1CD19B69002B19D1636B002B7E
:1043D00016D1124A0D4910680B68002811D01B1A1B
:1043E000002B0DDD606D002803D0036802211B68DF
:1043F000984700F055FE206D002801D000F0CAFF5C
:1044000070BD32331360FBE77C01001064040010C0
:10441000CF07000070170000500300105C0400106C
:1044200000233030037070477047FFFF0300F7B57B
:1044300030331B780400002B4FD0284B9A69002A98
:104440000CD0DB6C002B09D1254B1B680193FF338B
:104450005B785B0702D503685B689847E0690028D2
:104460003BD02049FFF7FAFBE2691F4D53069B0F33
:104470009B0059591F231A401B3B93402000595859
:1044800032224B1E99412430A76A00F051FE144B92
:104490001B681E000193FF36002805D1002F03D0B2
:1044A0008122737853407370C021E069C901FFF71E
:1044B000D5FB01201F2271780600E369246A1A40A7
:1044C0009640014032000020A14200D030005B063F
:1044D0009B0F9B00EB589200D050F7BD7C01001061
:1044E0005C5A0000101000000C5A000010B5024881
:1044F00000F0B0F910BDC0467C01001010B50400FA
:10450000074B08330360243000F00EFE054B0022F9
:10451000E361012323622300303320001A7010BDB1
:10452000345A000040825C00F7B504000193036830
:104530000092DB680F00984723000025383325716F
:104540001D7025641D74134B01221B682E20190059
:104550000126FF3152426233E264656348701D7088
:104560000D4B8E701B680D485A733A12DA70009A20
:104570001D7312125A71009A1F719A71019ADA71A1
:10458000074B1D60230030331E7000F037F8A66221
:104590006562F7BD5C5A0000585A00007C010010AB
:1045A0005C040010064B0A121B68DA7501221976AA
:1045B000044B1A700022044B1A60044BD9627047F6
:1045C000585A0000500300105C0400107C010010D9
:1045D0004362030030B503AC257804AC247828335B
:1045E0000262C1611D705C70032302341C40030031
:1045F00000222A331C709A7230BDFFFF70B5374B12
:1046000004001A680125137ED17D1B020B435BBA9F
:104610009BB20200C3620023343283611370042210
:104620000363C263020026006832C364036513702B
:10463000C06900F00BFF2800E36929361A68337857
:10464000516F984003000B435367230028331978B8
:104650008122E06900F028FFE36921491A68536864
:104660002B4353601F22E3691B79103313402A0048
:104670009A401C4B1A601C4B186800F0CBFF2100BD
:10468000E36901381B682A31D860E3690A781B683E
:10469000920018339B18154A1A6009780222E069C3
:1046A00000F0E6FEE36932781B68920018339B182D
:1046B0000F4A1A60E3691B689A60E3691A683378E5
:1046C0009D40D36B1D42FCD1E021606AC901FFF718
:1046D000C5FA0849206AFFF7C1FA70BD585A0000B0
:1046E00040420F0000E100E000010010FEFF00006A
:1046F000FFFF00002020000070B50400030025002B
:10470000283319782A358122C06900F0CDFE297836
:104710000222E06900F0ACFEE3692A781B6892008F
:1047200018339B18084A1A602200E36929321B6873
:104730001278183392009B18044A1A602200002352
:1047400034321370236370BDFEFF0000FFFF0000D2
:104750000023C26C1370026D8363C26403658364BB
:104760007047FFFF73B500230500036368352A789F
:1047700004009A4241D1026C072A2ADD99425FD097
:10478000C378007900021843637940BA80B27F2B66
:1047900014D9002803D000F007FFC143C90F2A4BEA
:1047A0001B680193FF335A7852070DD4226CA26123
:1047B0005B789B0721D5CC2323631EE0E16A091AAD
:1047C00048424141C9B2EAE7002916D0236CA361EF
:1047D000F1E7012A34D1436CDBB24364CC2B03D024
:1047E000826BC36B9A4208DDE36C002B05D0A36B90
:1047F000002B02DD2000FFF7ABFF236B21005E1EC4
:10480000B341E2692A31114E087812685B423340A5
:104810000F4E800018329B1912181360E069097856
:10482000032200F025FE230028331978E069812255
:1048300000F03AFE002334342B700333237073BD31
:10484000A3610C23B8E7C0465C5A000049F0FFFFA3
:10485000E8130000F7B504001022022725003435C4
:104860002878C0B2092800D9CDE100F0C9FE0A00BD
:1048700051001E00A000FC00180135017D01B701A8
:104880009B01E3691B681A682300283319781023F9
:104890008B401A421DD0220000236832236413701B
:1048A000FF222363013362662366220028321078D8
:1048B00010228240E3691B68196811400ED1236EF3
:1048C000002B03D0616E4B425941C9B22000FFF763
:1048D00049FFFF22E3691B681A60F7BD21002A31F6
:1048E0000A78183392009B18C94A01261A600222DE
:1048F000E3691B685A605E6009789219E06900F00C
:10490000B7FD00232E706364A3656665E665E0E786
:10491000230001222A331B78E6699A40316801930B
:104920000868024023D12000283000782C31800014
:1049300009180D68A16D08004430A8421ADA6831E0
:10494000A16544239C46A16D606D8C444700AC4535
:104950000FDABC3398420CDC636C68311843E36DAA
:10496000606458425841A165E0656765E9E7A84D74
:10497000E0E76765002AACD0236EE26D216C1A4037
:104980002266172906DC626C481C20646254636E40
:104990005A40626602212200019B34328B40117022
:1049A00032681832D318D02252001A6091E72600DC
:1049B000110028363078E36981401B681B680B4082
:1049C00002D000232B7049E7226B002A23D0A36476
:1049D000682321002000E269293112680978183221
:1049E000890052181360E2692A3001781268890040
:1049F000183223335218136001780322E06900F063
:104A000037FD31788122E06900F04EFD00232364F8
:104A100004332B705DE7A26BE36B9A4202DD20004A
:104A2000FFF796FEE26C002A00D1ECE068210F202F
:104A300013781B079B0F01334B4351790140083119
:104A4000A164A16B0129C4D110781F318843107073
:104A5000A26CE06C013A8218107841401170A26B90
:104A60000132A263B5E72000110028300078E36925
:104A700081401B681E680E4210D026002936367809
:104A80009868B60018339B191E680A3E864203D9FF
:104A9000604818602F70E1E60523BAE71B68236BB6
:104AA000002B10D0236B63648021012349006365D0
:104AB000636D626CFF2B0DDC1A4201D04A406264C8
:104AC0005B006365F4E7236C5A1C2264E26CD31824
:104AD0001B78E8E70123636580206826616C40004D
:104AE000626D530063650A4203D0824201DC68367E
:104AF000F6E70622682E00D007222A708022920054
:104B000093420ADD236CA26C3936FF36934226DAD3
:104B1000236B002B23D105332B7022002B782832F6
:104B20001178E0698122072B00D0802200F0BCFCC4
:104B30002200E36929321B68127829781833920021
:104B40009B1809290DD1334A1A602200E3692A32E1
:104B50001B681278183392009B181E60B9E609236F
:104B6000DAE73200233AEFE7E36921001B682831D6
:104B70001A0009782C328900521811682200293253
:104B80001278183392009B181A68453A8A4207D95E
:104B9000204A1A602200012368322B70137098E6B5
:104BA000062336E72200E3692A321B68127818339D
:104BB00092009B18184A1A60230028331978812222
:104BC000E06900F071FC236B002B03D0002323630A
:104BD00008231EE7A36B0133A363F9E72300160044
:104BE00028331878E36986401B681968314208D079
:104BF00093212C33800018180368C9008B4200D819
:104C000067E60323DEE62000FFF776FD61E6C04697
:104C100042040000FFFF00005014000010B5C36AFA
:104C20001B124B70C36AFF208B7000239CB2A24200
:104C300003D9CC5C01336040F8E7885410BD70B5EF
:104C400004000D00FFF7EAFF236D002BFDD1E36C9C
:104C5000002B1DD1E56472B6230034331D78EDB20C
:104C6000002D13D103222000A5631A70E3692A30B6
:104C700001781B68890018335B18012119600178DD
:104C8000E06900F0F5FBE3691B689D6062B670BDEA
:104C90002565E0E770B5050000F0A8FC0378441C2A
:104CA0005B00C3189C4210D26278AA420BD100F07C
:104CB00097FC23785B00C31898785A780002104359
:104CC00040BA80B270BD0234ECE70020FAE7FFFF83
:104CD000BC22084B10B51B6807481A710A12DA711A
:104CE000E1225A72002219725A81191D0832FFF707
:104CF000A6FF10BD285900007C010010024B1B6864
:104D0000987C024BC0187047585A0000500200109F
:104D100010B50400FFF7F2FF032363430233C31807
:104D200018785B789B0602D5024BC01810BD024B69
:104D3000FBE7C046500200105403001010B50400F9
:104D4000FFF7DCFF03236343C01802790120052A23
:104D500003DD024B9B18063B187810BD4C5A00002F
:104D600070B50500FFF7EAFF04002800FFF7D0FF49
:104D70000219531E1878A41A1A19002A04DD013BDF
:104D80001A7800021043F7E770BDFFFF10B504006A
:104D9000FFF7B4FF03236343C01802790020052AFC
:104DA00003DD024B9B18063B187810BD4C5A0000DF
:104DB000044B1B689A7C044B9B185878034BC01813
:104DC0007047C046585A00005002001054030010AB
:104DD00070B504000D00FFF7EBFF002807D0E307D4
:104DE00000D52D016410001903781D43057070BDB6
:104DF000F8B504000D001600FFF78AFF071E0ED05D
:104E00002000FFF79BFF3818C21B002A03DD3D700E
:104E10002D0A0137F8E731002000FFF7D9FFF8BD70
:104E200070B505000C00FFF773FF06002800FFF7C0
:104E3000ADFF021E09DD21003000083100F078FBD3
:104E400028000821FFF7C4FF70BD3F22E37913401B
:104E50003370F5E7F0B585B0019103920600FFF7D6
:104E60004DFF029000F0C2FB07780500300000F013
:104E70009BFB0090002828DB6C1C7F00631B9F427B
:104E800023DB2378009A934211D1032340216078D9
:104E9000029A4343D318019ADB78403A8A4308D1F7
:104EA00014321340934202D10399FFF7B9FF023441
:104EB000E4E7019A002AFAD10C3213409342F6D16A
:104EC0000B3A310000F004F8F1E705B0F0BDFFFF48
:104ED000F7B50E0004000192FFF71AFF070020004B
:104EE000FFF754FF194B0F221C68BC2323713312A8
:104EF000E371431C1A4020235B4213436372002377
:104F0000019AA372050026724033002A00D1403373
:104F1000E372002D13D020002A000C30390000F07D
:104F200007FB0434300022008021FFF793FF2A00A2
:104F3000083292B221000648FFF781FEF7BD3F21FB
:104F40003A780A401343E372EBE7C0462859000061
:104F50007C010010F0B585B0FFF72AFF051E35D0A3
:104F6000FFF7CCFE037802900393204B1C68039B51
:104F70009C4236DA61106B181A789C4601231700A0
:104F80001C4200D0171103233B40032B27D10426DA
:104F90001900A000304081408A43614663430A7093
:104FA000029A20000332D35C0193FFF773FE011EC7
:104FB00015D0019B334212D03A00324008D0200075
:104FC000FFF786FE0120094B01341C6005B0F0BDDF
:104FD000019B5B0603D52000FFF77AFFF2E701345F
:104FE000C5E70020014B1860F0E7C0464C020010F6
:104FF000F7B5FFF7DDFE041E21D0FFF77FFE037833
:10500000082701937F239C460E490868019B98421C
:1050100013DA4210A218137801261D003D403042D9
:1050200002D01D006646B543461C002D03D0AB439D
:1050300013700E60FEBD3000E8E700230B60012016
:105040004042F7E74802001010B500F021F9084B84
:10505000C41800F01DF90138FF38A04205D3030041
:10506000FF331B78FF2BF6D010BD0020FCE7C046B5
:1050700000F0FFFF10B5FFF7E7FF802201005200AC
:105080000548002905D000F073FB0022034B1A707D
:1050900010BD00F0C1FBF8E75002001050030010F3
:1050A00070B51D4D2B78002B35D01C4BDA6C34338A
:1050B00019780029FCD1002AFAD172B6FFF7C4FF93
:1050C000040000F0E5F80138FF38844210D100F008
:1050D000DFF8134BC01800F0D5F800F055F80028A1
:1050E00001D000F031FA00F0D3F80D4BC01803E006
:1050F000002CF8D0601CFF300A4980220B000024ED
:10510000FF3352001C7000F08BF8A04201D000F079
:105110001BFA62B62C7070BD500300107C010010A9
:1051200000F0FFFF50020010002303607047FFFFF4
:1051300010B5094B84681B688C4203D00360816002
:10514000406810BD01680029FAD09B1A5B1AF7D499
:10515000002344600360F3E76404001010B572B6E6
:10516000014B984762B610BDF11FFF1F322300B5F7
:105170008BB00190029005A968460093FFF7EEFFFF
:105180000598C0B20BB000BD10B58CB00400FFF79D
:10519000EDFF079000281AD13423FA2102930E4B19
:1051A000890018680394049400F034FA07A9059064
:1051B00002A8FFF7D3FF079B0193002B07D13533DC
:1051C00007A902A8029303940494FFF7C7FF079866
:1051D000C0B20CB010BDC046000100100F2310B5C6
:1051E0000400C017184000198AB00011FFF7BEFF75
:1051F000059000280ED13B23FA210093074B89002C
:1052000018680194029400F005FA05A90390684615
:10521000FFF7A4FF0598C0B20AB010BD000100104E
:1052200070B50400C0170005000D20188CB00013E5
:105230000E001500FFF79AFF079000281CD13323BA
:10524000FA2102930E4B8900186803940496059581
:1052500000F0E0F907A9069002A8FFF77FFF079B7F
:105260000193002B08D1383307A902A802930394B5
:1052700004960595FFF772FF0798C0B20CB070BD99
:1052800000010010C3171B051B0DC0180013704749
:1052900030B50C4D8BB02868002810D1352302247E
:1052A000009305A9684601940294FFF757FF059BF8
:1052B000072B02D00234802CF3D1200328600BB0DE
:1052C00030BDC0466004001000231F2210B54012FC
:1052D000040014408C4201D118B210BD01334011BA
:1052E000042BF5D101204042F7E730BF7047FFFFA4
:1052F00037B5FA211F4B8900186800F08BF91E4B57
:10530000013898420DD8C0211C4A090650601C483B
:10531000036A1B021B0A0B430362002393600733DB
:10532000136000220925174B1A60FEF735F8164B5B
:105330001C68236820009B689847230030331B7843
:10534000002B13D0114B1B680193FF335A782A406E
:10535000082A0BD19B78012B08D10D4B1B680193B8
:105360005B7BFF2B02D1FEF751F8E2E7FFF7BDFFB1
:10537000DFE7C04600010010FFFFFF0010E000E083
:1053800000ED00E064040010285900005C5A0000A1
:10539000585A0000F8B500251C4E0400825DAA4250
:1053A00014D08068FFF71AFFA84201D000F0CCF8B3
:1053B00080222100520014316068FFF731FF00287D
:1053C00001D000F0C1F800230125A355104EA35DC4
:1053D000002B19D08527BF00E059FFF7FFFE0028FA
:1053E00001D000F0B1F821008022E059153100020F
:1053F0005200FF31FFF714FF002801D000F0A4F89D
:105400000023A35502331D432800F8BD22020000EB
:10541000210200000A4B70B50A490500186800F027
:10542000F9F8023D084E6843B468002807DDB36808
:10543000E41A01D57268A418001B1C00F5E770BDC2
:105440000001001040420F0010E000E0012302794B
:10545000064907329340002210B5CC6F2343CB6737
:105460000368DA635A619A6210BDC0460480044042
:105470000368072070B5032406004C43A640104083
:10548000A04030245D694900B5435D615D692240FB
:10549000284325008D408A405861D86BA843D863C3
:1054A000D86B0243DA6370BD0323594310B59411DE
:1054B00009B22340D20701D50422134307248C40AC
:1054C0008B400268906AA0439062906A03439362A3
:1054D00010BDFFFF024A1368013313607047C046D6
:1054E0006404001000220A4B1A710A4A1A60012251
:1054F000094B1A71094A1A600222094B1A71094AAA
:105500001A600322084B1A71084A1A607047C04695
:105510006804001000C0004070040010000001404A
:105520007804001000400140800400100080014019
:1055300010B501398018002A04DD8C5C5342C45434
:10554000013AF8E710BDFFFF13B5C0211148C901AA
:10555000FEF784FBC021104B104A11485A60026AC2
:1055600009061202120A0A43026200229A600732F6
:105570001A600C4A80201268802101921A000004EF
:105580008900936803405C426341019CDB016350E6
:10559000F7E7C0460702050010E000E0FFFFFF004C
:1055A00000ED00E00C5A00000C4B30B51B681A00EF
:1055B0001632111E00D0997D0412C2B20120193397
:1055C000814208DB1D78A54202D15D78954204D066
:1055D00001300233F4E70120404230BD585A000048
:1055E000014B186816307047585A0000024B1B6870
:1055F000587C024BC0187047585A000050020010E7
:1056000003B47146490840004900095A49008E44D4
:1056100003BC7047002243088B4274D303098B42BA
:105620005FD3030A8B4244D3030B8B4228D3030C72
:105630008B420DD3FF22090212BA030C8B4202D314
:105640001212090265D0030B8B4219D300E0090A3C
:10565000C30B8B4201D3CB03C01A5241830B8B4245
:1056600001D38B03C01A5241430B8B4201D34B032E
:10567000C01A5241030B8B4201D30B03C01A524193
:10568000C30A8B4201D3CB02C01A5241830A8B4218
:1056900001D38B02C01A5241430A8B4201D34B0201
:1056A000C01A5241030A8B4201D30B02C01A524165
:1056B000CDD2C3098B4201D3CB01C01A5241830919
:1056C0008B4201D38B01C01A524143098B4201D353
:1056D0004B01C01A524103098B4201D30B01C01A7E
:1056E0005241C3088B4201D3CB00C01A52418308F8
:1056F0008B4201D38B00C01A524143088B4201D325
:105700004B00C01A5241411A00D201465241104684
:105710007047FFE701B5002000F006F802BDC04663
:105720000029F7D076E770477047C04670B50C4D3A
:105730000C4E761BB61005D0002408CD01349847D6
:10574000A642FAD100F08CF9074D084E761BB61030
:1057500005D0002408CD01349847A642FAD170BD87
:105760006C5A00006C5A00006C5A0000845A000009
:10577000F0B5C64600B50F2A43D90B0003260343F4
:105780001E400C000300002E40D11500103D2D09D5
:10579000AC462D01A846804400E03B0067682568C0
:1057A0005F60E7681D60DF601F00A56810379D60BF
:1057B00010344345F1D165460F230C2401352D01EA
:1057C000491913404519144223D08C59AC51043661
:1057D0009C1B032CF9D80324043B9B0801339B003A
:1057E0002240ED18C918561E002A07D0002300E0F9
:1057F0002300CA5C5C1CEA549E42F9D104BC90466A
:10580000F0BD0500561E002AF0D1F7E7561E050030
:10581000ECE71A00F6E7C046F0B5050083074AD06A
:10582000541E002A44D0CEB20300032202E0013508
:10583000013C3DD301332E701342F8D1032C2FD9F4
:10584000FF220A40150215432A0415430F2C35D9AF
:105850002700103F3F093E01B4461E001A001036D3
:105860006644156055609560D5601032B242F8D13B
:105870000F260C2201373F012640DB193700224258
:1058800017D03E1FB608B400A4461A001C1D64447D
:1058900020C2A242FCD103240136B6009B193C4031
:1058A000002C05D0C9B21C19197001339C42FBD1E0
:1058B000F0BD3400F4E714000300BFE72700E0E781
:1058C00010B5064C2378002B07D1054B002B02D0D6
:1058D000044800E000BF0123237010BD88040010BD
:1058E00000000000905A0000044B10B5002B03D0BC
:1058F0000349044800E000BF10BDC046000000009E
:105900008C040010905A000065C2810064C27900C6
:1059100041C2740003020000448259004582010024
:105920002A83300C0B41100618010010424265001A
:10593000070205004A02000049C2010002C23A0003
:1059400008023300094233004B823B008200000012
:1059500004010000080200001004000020080000FC
:105960004010000080200000004100000082000084
:1059700000040100000802000010040000200800DC
:1059800000401000008020000000410000000000E6
:1059900000000000F5390000193A000026C233006B
:1059A0004782790061C2340F64C2790003000400A9
:1059B00007000B000C000D00130014001800190064
:1059C0001A001D001E001F002000240025002800D2
:1059D00029002A0005000E001B00260002000A0014
:1059E0001700230010001100000008000900150036
:1059F00016001C002100220027002B000F001200BF
:105A00000000000000000000000000000000005046
:105A10000000015000000250000003500000000090
:105A200000000000114300005D4200003943000007
:105A3000413E000000000000000000002144000082
:105A4000294400002D440000294400000101020304
:105A50000406080A0E0FFFFF500200105403001046
:105A6000F8B5C046F8BC08BC9E46704781330000BC
:105A70003D340000FD370000913B0000E55400007C
:105A8000E9580000F8B5C046F8BC08BC9E4670470F
:045A9000006CDC02C8
:040000030000310BBD
:00000001FF
