:1030000000200010ED300000D5300000D930000065
:1030100000000000000000000000000000000000B0
:10302000000000000000000000000000DD30000093
:103030000000000000000000E130000085580000A2
:10304000E9300000E9300000E9300000E93000001C
:10305000E9300000E9300000E9300000E93000000C
:10306000E9300000E9300000E9300000E9300000FC
:10307000E9300000E9300000E9300000E9300000EC
:10308000E93000009D480000213E0000E9300000CA
:10309000E9300000E93000000000000000000000FE
:1030A000E9300000E9300000E930000000000000D5
:1030B000E9300000E9300000E9300000F13D000097
:1030C000405E000000010010040000001801001024
:1030D000A4030000FEE7C046FEE7C046FEE7C04688
:1030E000FEE7C046FEE7C046FEE7C046F8B5194A0F
:1030F000194EB24210D211000B0098680D684C684E
:103100000C310A000023002804D0EF58E7500433A4
:103110009842FAD88E42EFD810498A4213D2072338
:103120000139891A9943130000240833C9185068DB
:1031300015680023002803D0EC5004339842FBD8D4
:1031400008329142F3D100F0C9FE02F0C7FC02F050
:10315000A7FAFEE7C0300000CC300000D4300000F9
:1031600010B5002A05D00023C458CC5004339A422D
:10317000FAD810BD002905D000230022C250043324
:103180009942FBD87047C046F0B500234F464646EB
:10319000D646C0B503608360203399460122184D9E
:1031A000184B82464260A944174C98461F270126B7
:1031B00000E02C68C0212000C90100F0E5FE3B00C2
:1031C000320023409A401300424600216406A40FB7
:1031D000A40012599B00043599504D45E9D10B4B81
:1031E0001B68F533FF33002B07D0094A13605046A4
:1031F0001CBC90469946A246F0BD054B1E60F6E702
:10320000B85C0000BC5D000065C281007C04001059
:1032100018010010F0B5DE4657464E464546E0B56B
:10322000836883B00400002B00D0ABE0614B9A466A
:10323000614B624999469B688B4600931B6A2168E3
:103240005A1E93411F27DAB28B005946CB583900DA
:10325000012504201940019280462A008840032657
:103260008A40010048465B1133409B00C3585918FF
:103270000B68584243415B421A400A600A2002F040
:10328000A1FA5846009B196A4B1E994123689A007F
:1032900082581740521116404246BD40BA404F4630
:1032A000B600B85980180268564272415242154021
:1032B0000560657922792E0001981640814269D017
:1032C0001800002E5AD01543657101335200236057
:1032D0002271082B03D1002323600133237153464D
:1032E0001B680A33002B47D0A360354A1368002BB4
:1032F0003BD051460968CB1A37D453461B68F53387
:10330000FF33002B54D01360E37901241C402D4B74
:103310002A4A1B7815009C461F2367469B461E3B86
:103320009A467B1E9F41244B20359946032398469D
:103330007F420090002C0ED05946564613684046F6
:1033400019408E405B110340484631009B001B58DA
:103350003E408900CE5004329542EBD101236246B3
:103360005A401300174A0098137003B03CBC9046B3
:103370009946A246AB46F0BD0123B5E78020400048
:103380001843A0E70B4A92461268D31A0AD50120C7
:103390004042AAE7002E08D08020954380001843C1
:1033A000657192E70023836042E7012040428CE789
:1033B0000123A8E77C040010BC5D0000B85C00009D
:1033C000180100101C010010F0B5134C8D002C5991
:1033D00001251F262F008D4026406406A40F0F49AB
:1033E000A400B740EDB286796158002A09D0BA002E
:1033F0002E4357508671002B02D0C3791D43C571EF
:10340000F0BDED43BF007A50C379EDB22E401D40B0
:103410008671C571F4E7C046B85C0000BC5D000071
:1034200010B50348FFF7B0FE0022024B1A6010BD32
:10343000200100101801001080B500AF014B1800EA
:10344000BD4680BD04010010F0B5D64646464F4645
:10345000C0B5FFF7F1FF0123234A0421234801F0FF
:103460003BFAC0212248C90100F08EFDC02121484D
:10347000C90100F089FD00221F4E204DF368204C49
:103480001A6220239A46013B99461E3BAA4498465D
:1034900000E02C68C0212000C90100F075FD4B46FA
:1034A000424623409A40130000216406A40FA40062
:1034B00032599B00043599505545EAD100F04CFB38
:1034C00080211048490100F03FFE802220200E4B51
:1034D00012061A6031680D4A8B5803438B501CBC8E
:1034E00090469946A246F0BD602000002C010010D5
:1034F0004682010063823D00BC5D0000DC5C000090
:10350000424265000542020000E100E01080000038
:1035100010B501E000F066FA01F042FF0028F9DA88
:1035200000F09CFA3422054B9A5C002A02D1DB6C35
:10353000002B00D010BD30BFFCE7C046900100104A
:1035400010B500F001F810BD10B50B4C82B064222C
:103550000021200002F038FB200001F0A7F9074B02
:10356000074A236000230749019300930648074B4D
:1035700001F006FA02B010BD2C010010D45D00006D
:1035800028C20100880400109001001029826900FF
:10359000F0B557464E46DE464546E0B50127524B4C
:1035A00004001A683D00EA238540D05C13198A465E
:1035B0001900DA33E23109781E784C4B83B0009160
:1035C000596894460B002B409946631C5B1063447A
:1035D000F9331B7801929B4628401B09274202D0F1
:1035E0000F235A461340424A9B009B5898464B462D
:1035F000002815D1002B2CD05346002B09D1009B5D
:10360000002B06D047465F43002F64D1394BA400FE
:10361000E05003B03CBC90469946A246AB46F0BD94
:10362000002E2AD1002B42D05346002BF1D1EB23A0
:10363000019AD35C1D42ECD12C4B5B692B4202D129
:103640002A4BA943596003220021200001F0A8FD64
:10365000DFE75346002BDCD0002EDAD0434673431D
:103660001E1ED3D0244BA4001F68224BF6191E51F6
:10367000002ECED101221A51CBE7002B0BD153469D
:10368000002BC6D0434673431E1EEBD14A46194B4E
:10369000A400E250BDE75346002BC8D04746009B2C
:1036A0005F43002F17D1134BA400E750B1E75346F7
:1036B000002BAED00D4B5B692B4202D10B4B0D435F
:1036C0005D60474603220121200001F069FD009B57
:1036D0005F43002FE7D0084BA4001E68054BBF19BD
:1036E0001F51002F95D1C5E7085E00003002001081
:1036F000FC5C0000000200107C040010F0B547469E
:10370000CE4680B5174F83B07B68BE689E4223D0FB
:10371000154A5E40126801230192F32201990125A6
:103720008A5C0024914698460AE04B1E994120008D
:1037300003220C3001F034FD01346D00082C0BD055
:103740003542F9D04146A1407B6819404B461D42A5
:10375000EBD04B425941EAE703B00CBC9046994686
:10376000F0BDC04630020010085E0000F0B55746BC
:103770004546DE464E46E0B5914B87B01B68804615
:103780008A460093072857DC012343449B460123C4
:10379000424693400193DB4303938A4B00261F006C
:1037A000C146009B74089C46644423000125D8331D
:1037B0001A783540AD002A410F2313405B450AD0EB
:1037C00001360437042EECD107B03CBC9046994634
:1037D000A246AB46F0BD6146ED23CB5C72001341BF
:1037E000059203221A4008239C46B444634690463F
:1037F0006046029301F08CFC43460490012B57D0A5
:10380000002B35D0022BDBD1029801F081FC022382
:103810008246034246D001006B4B019A5B690293DA
:103820001340C9076DD5002B3FD1674B5B680293EE
:103830001343654A536038E0009B01009C46012316
:1038400008394A106244D83212780B409B001A4162
:1038500013000F221A409346B6D0082AB4DC012385
:103860005B425B441800984601F052FC82468EE7AA
:10387000EE23009AD35C059A134103221340022BD6
:1038800071D0032B79D0012B72D050464E4A01994A
:1038900053690B4000282CD0002B91D153680B4367
:1038A00053608DE73A681A4251D153463B6087E72F
:1038B000029801F02DFC4A46444B1B68D340424617
:1038C00043401A4227D04049019A4B691A429BD182
:1038D000EF34227803202A410240012A5CD0022AD8
:1038E00003D14A68019802434A60019A13434B612D
:1038F0008AE7002B00D063E75168039B0B405360BD
:103900005EE7002BD1D1304B039A5B6802931340E2
:103910002D4A5360C9E72C4A019B51690B4200D1E3
:1039200072E7039BEF3419405161237802352B4134
:1039300003200340012B34D0022B00D064E7019810
:10394000014200D060E75368034353605CE7484698
:1039500001F0DEFB1C4B019A5B690293002818D032
:103960001342A2D161E75346049A13409A468CE76A
:103970005346049A13439A4687E75346049A1340E2
:103980009A463B68002B01D0002A13D0049B3B6071
:103990007BE7134289D1B6E74868039A02404A6040
:1039A000A3E7019B194200D02EE75168039B0B400F
:1039B000536029E708320021484601F0F1FBE5E7B2
:1039C000085E00002002001030020010FC01001010
:1039D000034B00221900203104C39942FCD17047E7
:1039E0000002001070B5040001F092FB0600072CE5
:1039F0000EDD184D31002000FFF7B8FE6B68AA6895
:103A0000934204D0FFF77AFE280000F023F970BD3E
:103A100001002000FFF7BCFD0F4BA200D358002B84
:103A2000E7D10123A3400B4D6A691A40002E0AD04A
:103A3000002A02D16A6813436B6003223100200020
:103A400001F0AEFBD6E7002AF7D16A689A436A60B4
:103A5000F3E7C0463002001000020010F0B5D64671
:103A600046464F463748C0B5FFF7D4FB364E71681F
:103A7000431C01D0C3054CD4B369002B03D0334A97
:103A80001268D31A52D5002399460133304D0024D1
:103A90002E4F984603E001340435082C13D02B68D0
:103AA000002BF8D03A68D31AF5D44B462B60434626
:103AB000A34072691A409246194211D0002A25D1BA
:103AC0009943716010E0B3688B4204D0FFF716FE93
:103AD000300000F0BFF81CBC90469946A246F0BDED
:103AE000002A10D001239A4603225146200001F0FB
:103AF00057FB51462000FFF74BFD51462000FFF7D2
:103B000035FE7168C7E719437160EBE700239A46F9
:103B1000EAE7FF231840FE3B834072691A401942CE
:103B20000BD0002AA8D199437160A5E70023A522F4
:103B3000B361084B1B681A62A5E7002A9CD11943A0
:103B4000716099E720010010300200107C04001021
:103B50000002001080040010F8B5CE464746304BF6
:103B600080B51C68F2232F4FE25C0021380000F082
:103B7000C3F8F123E25C2C4B1A60F623E25CF634C6
:103B8000637800241B02134398460323994610E0F0
:103B9000022D32D0012103224942200001F000FB16
:103BA000012103224942300001F0FAFA0134082CC5
:103BB0001CD045466300DD4026004B460C361D40B8
:103BC000012DE5D1A54003220021200001F0E8FAF3
:103BD00003220021300001F0E3FA7B692B42E5D19A
:103BE0007B680134AB437B60082CE2D1380000F0E5
:103BF00031F80CBC90469946F8BD03220121200003
:103C000001F0CEFA03220121300001F0C9FA0123AC
:103C1000A3407A691A42C9D17A6813437B60C5E729
:103C2000085E000030020010FC0100108369002BC8
:103C300003D0064A1268D31A00D570470023A52284
:103C40008361034B1B681A62F7E7C0467C040010CF
:103C500080040010F8B557464E464546DE46C36818
:103C6000E0B5476806007B409846836800245F40C3
:103C70001F4B01259B461F239A461E4B994610E079
:103C8000002A22D0336A19433162531E9A4121001F
:103C9000D2B200234846FFF797FB01346D00082C91
:103CA00017D03D42F9D05946A3005046CB58424662
:103CB000012118405B062A4081409B0FE0D1002A79
:103CC00011D0F3691943F161DFE7B36A1943B162B7
:103CD000DBE77368B3600123F3623CBC904699460E
:103CE000A246AB46F8BD736A19437162CDE7C04680
:103CF000DC5C000020010010F0B5C6460E00E0219B
:103D000000B5C90104003248170000F03DF9314DFB
:103D1000280001F073FD042290462B680221DA602E
:103D200028001C3201F07CFDA52241462B682800AA
:103D30001A625A6F0A435A670139022201F070FD74
:103D4000FA2201212B6852005A625A680A435A60CB
:103D5000214B1B681133002B38D0A3610023666010
:103D6000F643E760A660E362A36223626362E361F5
:103D70001A4C200001F042FD194B1A49186801F055
:103D800021FE23680138D86006222000032101F0BB
:103D900047FD20000122002101F042FD0122012106
:103DA000200001F03DFD8022236892009A6140329C
:103DB000DA610D4A5A621F22237910331A40012317
:103DC00093400A4A136004BC9046F0BDA161C5E768
:103DD0006242350E800400107C0400109004001034
:103DE00000010010A08601004102000000E100E097
:103DF0002021074B1A68074BD150074B1F391A680F
:103E000053680B4353600022044BDA627047C0468C
:103E1000BC5D00001C800000900400103002001007
:103E200070B501241F4B82B01B681A6814421ED063
:103E30001D4AD069116A05000D430AD0FA261B4DB0
:103E400076002D682E621A4D2D681135002D26D171
:103E50009461184D80002C6889000194019E164CD5
:103E60008451A8680C50002101901162D1611A6838
:103E7000920710D50F4C226801920B4A019D516A9E
:103E8000880000214151A0680190906A019C800047
:103E9000015191625162FF221A6002B070BD9561BA
:103EA000D7E7C046900400103002001080040010D4
:103EB0007C040010BC5D0000FFFF0000054A064BBB
:103EC00008321A6000225A609A60DA605A619A6178
:103ED0007047C0463C5D0000300200108E2120205B
:103EE0001A4B89005A5882435A50002271391A627B
:103EF000FF39C04601390029FBD101221A645A64F6
:103F000059645A64596C1142FCD023228E218020BE
:103F10009A6089005A5882435A500122D968114246
:103F2000FCD00321196700215A6759675A6701229B
:103F3000596F1142FCD09A670549064BD967064B69
:103F40001A60064B1A60064B1A60704700800440E6
:103F50005F00010004800440948004409880044085
:103F60009C80044070B500230400043918B28242DA
:103F700005DD01339D004D59A542F7D170BD01F01B
:103F8000BBFC01204042F9E7F8B543069B0F564AB7
:103F90009B001F259A580300040001202B408FB27C
:103FA0000E058446891498403B0B1B03360D0D40CB
:103FB00000D16546802180B27F0B0902032F08D112
:103FC000575838435050E022D20193423FD1062542
:103FD00013E057588743575080229201934228D1CB
:103FE000424B9C4202D1424B002204E0414B9C4296
:103FF00012D101223E4B07251A60E30503D5022D9D
:1040000001D080231E432900200001F035FB002849
:1040100063DA01F071FC61E0374B9C4201D1374B10
:10402000E2E7374B07259C42E7D1344B01221A6067
:10403000E3E7C022920193424DD00F2D07D1042215
:1040400030492000FFF78EFF2F4B1860D5E70C2D6D
:104050000AD12E4B9C4202D12D4B0022E7E72D4B7B
:104060009C42CAD12A4BE1E70D2D09D12A4B9C4233
:1040700001D12A4BF1E72A4B9C42BED1274BD5E711
:104080000E2D19D1274B9C4201D1274BE5E7274B39
:104090009C4201D1244BC9E7254B9C4202D1224BC3
:1040A0000222C4E7234B9C4201D1234BD5E7234B8B
:1040B0009C42A2D1204BB9E70B2D9ED1134B9C42C1
:1040C00003D100221E4B9A6197E71E4B9C4294D16C
:1040D0001B4B0122F7E702258FE70643200000F083
:1040E00075F80660F8BDC046BC5D000002C23A002B
:1040F000C040044063823D0025423C00D040044063
:1041000049C201004C5D0000D440044042426500B9
:10411000C84004402A83300C43826D00CC400440E8
:10412000298269000A4A7006B04004404B823B0075
:104130000602700041C27400C44004406242350E61
:10414000004004404482590070B50E0080214306AF
:10415000194A9B0F9B0049019C580500FFF714FF6B
:104160001F231D40802380205B02AB40134A400088
:1041700030401B0CA158002812D01943A150104AFE
:10418000F1060FD5A1581943A1500E490E4A002837
:104190000BD0605818436050A1580B43A35070BD1A
:1041A0009943EBE7A1589943EEE7DB436058184089
:1041B0006050A1580B40F1E7BC5D00000480000096
:1041C000088000000C800000108000001F234206C1
:1041D00003400C20920F5043C018034B4000C05ABC
:1041E000024BC018800070475C5D00000010011099
:1041F00010B5040001F016F92300012258331A709B
:10420000024B1B6823660023E36510BD7C0400108D
:1042100070B54B0602D53C231A4011430C220D4CBD
:104220000500237838351A4050235B4213430200BF
:104230002B70436B3B3253701E12030016706022CA
:104240003D333E301A700170593A2900200000F0C9
:10425000CEFE70BD9001001003000020814207D106
:1042600063225A72034A01305A81902252019A8184
:104270007047C04643400000F0B5AC4B85B05A785B
:104280009B7804001B0213435BBA426B9BB29A42B9
:104290007BD10022A54B9B7982720293A44B1B68B1
:1042A0004364F02380209B000B408000834233D086
:1042B00011DC803883421FD0E0239B00994207DB4A
:1042C0009C4A914200DCDBE09B4B994200D1FBE031
:1042D0000025C32150E0A022920093421CD08032DE
:1042E0009342E9D13F2320001940FFF7B5FF414237
:1042F00041410500C2313FE064208C4B8B49DB79A2
:10430000097A60722338A07281380343E372217303
:104310006273A27301252EE0844AD6790F221640DB
:10432000824A128955BA1700A022ADB29200934278
:1043300000D0F1E0206D00280DD0036829009B68B3
:104340009847002807D0206D7C4A036829001B6825
:104350001F003300B847681EFF38FF2817D8784B76
:104360003200C018754901F0DBFB01220025754BB6
:104370001A70754B1D60C2213C26029A2000324003
:10438000FFF746FF002D00D0A5E005B0F0BD6F4B54
:104390001868854201DA0025EDE70300FF33AB42E0
:1043A000F9DB281A602811D831185F290ED9684A1C
:1043B0005E4B1268674E0392FF328142EBD09D7ACA
:1043C00060280AD1557001300133F6E7614D3200A3
:1043D00040195A4901F0A4FBDDE73554F3E7691EA3
:1043E000FF39FF2925D820003200554B0E30C9185F
:1043F00001F096FB206D002811D0036829009B680E
:10440000984700280BD00022206D290003680092F5
:104410005B6822009C460E3233006546A847330095
:10442000633363724223A372023B1E43E672A78189
:1044300070E7464B19688D42DCDB0B00FF33AB4263
:10444000D8DB2000691A0E30424B602912D872184E
:104450005F2A0FD99C463E4B1B68FF3303938A4269
:10446000C8D0602909D1039B5B78DBB203700131AE
:104470000130F4E7C9183200BAE763465B5CF5E740
:1044800099420BD0294B1B7A002B07D1274B5B7A23
:10449000FF2B03D18023304A5B051A60606D002832
:1044A00003D0036801211B68984700F0D1FF206DFD
:1044B000002801D001F046F9BFF34F8F274B284A5F
:1044C000DA60BFF34F8FFEE762236372254B63818F
:1044D000002323731EE70C22144B21001B78483164
:1044E0001A4050235B4213432371636B1A122372E9
:1044F0004023E271A27A134004D0236CB2431A43E2
:104500000123A2720B700F23627A211D1A40073219
:10451000064800F06CFD38E780229200934200D1FB
:104520005DE70023383423702FE7C0469001001068
:104530007C04001081030000D10300009A010010E8
:10454000680200106803001074040010700400106A
:104550000C5E00006C03001055B01F5E00ED00E023
:104560000400FA0543D2FFFF70B5264A0400937891
:1045700050781B02034340205BBA9BB2084026D010
:10458000C320250001404835C22913D129780029CC
:104590000DD0616B99420AD13C219279E36C0A40BB
:1045A000934204D0236CE26404330B402364012360
:1045B0002B7070BDC329FAD1626B9A42F7D10022E9
:1045C00042392000FFF724FE00236363EFE78029D0
:1045D0000FD1616B0029ECD1636323000A48483393
:1045E000006821646064197001235B42E364116315
:1045F000DFE78129DDD1616B9942DAD16063106315
:10460000D7E7C046900100107C040010F7B5C02524
:10461000284CAD00E3782279A1791B0213430A02EA
:104620002A40E5792A4395B2002B24D12249096812
:104630000191FF314978C90706D5C02A07D12189E0
:1046400049BA89B200F086F90023A361F7BD802240
:1046500052009542F8D10C212278C37111405022AA
:10466000164B52420A4302718360011D082220004A
:1046700000F0BDFCE8E73C260F00B7433E00677939
:104680007F2F0CD8E56AAB42DED176B2002E02DA7B
:10469000FFF76AFFD8E71100FFF7EEFDD4E7002E21
:1046A000D2D1F021890029402200180000F0AAFD93
:1046B000CAE7C046900100100C5E000000E1014016
:1046C00010B50400406D002803D0036803211B6867
:1046D0009847200000F07CF800F0BAFE206D00281A
:1046E00001D001F02FF810BD030070B530331B78F6
:1046F0000400002B5CD000F071F8230058331B78C5
:10470000002B1AD02C4BDB6C002B16D12B4D226EBC
:104710002B689B1AE26D934205D300F0F3FD00284D
:1047200001D02B682366236E2A682549D21A8A4253
:1047300003D9FA2292009B182366636B002B0DD0DD
:104740001E4B626C1B689B1A1E4A934206D90022BC
:1047500081212000FFF75CFD002363631A4B1B7867
:10476000002B25D0144B1A0034321278002A1FD1A6
:10477000DA6C002A1CD19B69002B19D1636B002BCA
:1047800016D1124A0D4910680B68002811D01B1A67
:10479000002B0DDD606D002803D0036802211B682B
:1047A000984700F055FE206D002801D000F0CAFFA8
:1047B00070BD32331360FBE7900100107C040010E1
:1047C000CF07000070170000680300107404001089
:1047D00000233030037070477047FFFF0300F7B5C8
:1047E00030331B780400002B4FD0284B9A69002AE5
:1047F0000CD0DB6C002B09D1254B1B680193FF33D8
:104800005B785B0702D503685B689847E06900281E
:104810003BD02049FFF7B8FBE2691F4D53069B0FC1
:104820009B0059591F231A401B3B934020005958A5
:1048300032224B1E99412430A76A00F051FE144BDE
:104840001B681E000193FF36002805D1002F03D0FE
:104850008122737853407370C021E069C901FFF76A
:1048600093FB01201F2271780600E369246A1A4035
:104870009640014032000020A14200D030005B068B
:104880009B0F9B00EB589200D050F7BD9001001099
:104890000C5E000010100000BC5D000010B5024866
:1048A00000F0B0F910BDC0469001001010B5040032
:1048B000074B08330360243000F00EFE054B002246
:1048C000E361012323622300303320001A7010BDFE
:1048D000E45D000040825C00F7B5040001930368CA
:1048E0000092DB680F0098472300002538332571BC
:1048F0001D7025641D74134B01221B682E201900A6
:104900000126FF3152426233E264656348701D70D4
:104910000D4B8E701B680D485A733A12DA70009A6C
:104920001D7312125A71009A1F719A71019ADA71ED
:10493000074B1D60230030331E7000F037F8A6626D
:104940006562F7BD0C5E0000085E0000900100107B
:1049500074040010064B0A121B68DA7501221976DE
:10496000044B1A700022044B1A60044BD962704742
:10497000085E00006803001074040010900100102D
:104980004362030030B503AC257804AC24782833A7
:104990000262C1611D705C70032302341C4003007D
:1049A00000222A331C709A7230BDFFFF70B5374B5E
:1049B00004001A680125137ED17D1B020B435BBAEC
:1049C0009BB20200C362002334328361137004225D
:1049D0000363C263020026006832C3640365137078
:1049E000C06900F00BFF2800E36929361A683378A4
:1049F000516F984003000B43536723002833197805
:104A00008122E06900F028FFE36921491A685368B0
:104A10002B4353601F22E3691B79103313402A0094
:104A20009A401C4B1A601C4B186800F0CBFF210009
:104A3000E36901381B682A31D860E3690A781B688A
:104A4000920018339B18154A1A6009780222E0690F
:104A500000F0E6FEE36932781B68920018339B1879
:104A60000F4A1A60E3691B689A60E3691A68337831
:104A70009D40D36B1D42FCD1E021606AC901FFF764
:104A800083FA0849206AFFF77FFA70BD085E0000CC
:104A900040420F0000E100E000010010FEFF0000B6
:104AA000FFFF00002020000070B504000300250077
:104AB000283319782A358122C06900F0CDFE297883
:104AC0000222E06900F0ACFEE3692A781B689200DC
:104AD00018339B18084A1A602200E36929321B68C0
:104AE0001278183392009B18044A1A60220000239F
:104AF00034321370236370BDFEFF0000FFFF00001F
:104B00000023C26C1370026D8363C2640365836407
:104B10007047FFFF73B500230500036368352A78EB
:104B200004009A4241D1026C072A2ADD99425FD0E3
:104B3000C378007900021843637940BA80B27F2BB2
:104B400014D9002803D000F007FFC143C90F2A4B36
:104B50001B680193FF335A7852070DD4226CA2616F
:104B60005B789B0721D5CC2323631EE0E16A091AF9
:104B700048424141C9B2EAE7002916D0236CA3613B
:104B8000F1E7012A34D1436CDBB24364CC2B03D070
:104B9000826BC36B9A4208DDE36C002B05D0A36BDC
:104BA000002B02DD2000FFF7ABFF236B21005E1E10
:104BB000B341E2692A31114E087812685B423340F2
:104BC0000F4E800018329B1912181360E0690978A3
:104BD000032200F025FE230028331978E0698122A2
:104BE00000F03AFE002334342B700333237073BD7E
:104BF000A3610C23B8E7C0460C5E000049F0FFFF3C
:104C0000E8130000F7B50400102202272500343510
:104C10002878C0B2092800D9CDE100F0C9FE0A0009
:104C200051001E00A000FC00180135017D01B701F4
:104C30009B01E3691B681A68230028331978102345
:104C40008B401A421DD02200002368322364137067
:104C5000FF22236301336266236622002832107824
:104C600010228240E3691B68196811400ED1236E3F
:104C7000002B03D0616E4B425941C9B22000FFF7AF
:104C800049FFFF22E3691B681A60F7BD21002A3142
:104C90000A78183392009B18C94A01261A6002222A
:104CA000E3691B685A605E6009789219E06900F058
:104CB000B7FD00232E706364A3656665E665E0E7D3
:104CC000230001222A331B78E6699A403168019358
:104CD0000868024023D12000283000782C31800061
:104CE00009180D68A16D08004430A8421ADA68312D
:104CF000A16544239C46A16D606D8C444700AC4582
:104D00000FDABC3398420CDC636C68311843E36DF6
:104D1000606458425841A165E0656765E9E7A84DC0
:104D2000E0E76765002AACD0236EE26D216C1A4083
:104D30002266172906DC626C481C20646254636E8C
:104D40005A40626602212200019B34328B4011706E
:104D500032681832D318D02252001A6091E7260028
:104D6000110028363078E36981401B681B680B40CE
:104D700002D000232B7049E7226B002A23D0A364C2
:104D8000682321002000E26929311268097818326D
:104D9000890052181360E2692A300178126889008C
:104DA000183223335218136001780322E06900F0AF
:104DB00037FD31788122E06900F04EFD0023236445
:104DC00004332B705DE7A26BE36B9A4202DD200097
:104DD000FFF796FEE26C002A00D1ECE068210F207C
:104DE00013781B079B0F01334B4351790140083166
:104DF000A164A16B0129C4D110781F3188431070C0
:104E0000A26CE06C013A8218107841401170A26BDC
:104E10000132A263B5E72000110028300078E36971
:104E200081401B681E680E4210D026002936367855
:104E30009868B60018339B191E680A3E864203D94B
:104E4000604818602F70E1E60523BAE71B68236B02
:104E5000002B10D0236B636480210123490063651C
:104E6000636D626CFF2B0DDC1A4201D04A40626414
:104E70005B006365F4E7236C5A1C2264E26CD31870
:104E80001B78E8E70123636580206826616C400099
:104E9000626D530063650A4203D0824201DC6836CA
:104EA000F6E70622682E00D007222A7080229200A0
:104EB00093420ADD236CA26C3936FF36934226DA20
:104EC000236B002B23D105332B7022002B78283243
:104ED0001178E0698122072B00D0802200F0BCFC11
:104EE0002200E36929321B6812782978183392006E
:104EF0009B1809290DD1334A1A602200E3692A322E
:104F00001B681278183392009B181E60B9E60923BB
:104F1000DAE73200233AEFE7E36921001B68283122
:104F20001A0009782C32890052181168220029329F
:104F30001278183392009B181A68453A8A4207D9AA
:104F4000204A1A602200012368322B70137098E601
:104F5000062336E72200E3692A321B6812781833E9
:104F600092009B18184A1A6023002833197881226E
:104F7000E06900F071FC236B002B03D00023236356
:104F800008231EE7A36B0133A363F9E72300160090
:104F900028331878E36986401B681968314208D0C5
:104FA00093212C33800018180368C9008B4200D865
:104FB00067E60323DEE62000FFF776FD61E6C046E4
:104FC00042040000FFFF00005014000010B5C36A47
:104FD0001B124B70C36AFF208B7000239CB2A2424D
:104FE00003D9CC5C01336040F8E7885410BD70B53C
:104FF00004000D00FFF7EAFF236D002BFDD1E36CE9
:10500000002B1DD1E56472B6230034331D78EDB258
:10501000002D13D103222000A5631A70E3692A3002
:1050200001781B68890018335B1801211960017829
:10503000E06900F0F5FBE3691B689D6062B670BD36
:105040002565E0E770B5050000F0A8FC0378441C76
:105050005B00C3189C4210D26278AA420BD100F0C8
:1050600097FC23785B00C31898785A7800021043A5
:1050700040BA80B270BD0234ECE70020FAE7FFFFCF
:10508000BC22084B10B51B6807481A710A12DA7166
:10509000E1225A72002219725A81191D0832FFF753
:1050A000A6FF10BDD85C000090010010024B1B68E9
:1050B000987C024BC0187047085E00006802001020
:1050C00010B50400FFF7F2FF032363430233C31854
:1050D00018785B789B0602D5024BC01810BD024BB6
:1050E000FBE7C046680200106C03001010B5040016
:1050F000FFF7DCFF03236343C01802790120052A70
:1051000003DD024B9B18063B187810BDFC5D0000C8
:1051100070B50500FFF7EAFF04002800FFF7D0FF95
:105120000219531E1878A41A1A19002A04DD013B2B
:105130001A7800021043F7E770BDFFFF10B50400B6
:10514000FFF7B4FF03236343C01802790020052A48
:1051500003DD024B9B18063B187810BDFC5D000078
:10516000044B1B689A7C044B9B185878034BC0185F
:105170007047C046085E0000680200106C03001013
:1051800070B504000D00FFF7EBFF002807D0E30720
:1051900000D52D016410001903781D43057070BD02
:1051A000F8B504000D001600FFF78AFF071E0ED0A9
:1051B0002000FFF79BFF3818C21B002A03DD3D705B
:1051C0002D0A0137F8E731002000FFF7D9FFF8BDBD
:1051D00070B505000C00FFF773FF06002800FFF70D
:1051E000ADFF021E09DD21003000083100F078FB20
:1051F00028000821FFF7C4FF70BD3F22E379134068
:105200003370F5E7F0B585B0019103920600FFF722
:105210004DFF029000F0C2FB07780500300000F05F
:105220009BFB0090002828DB6C1C7F00631B9F42C7
:1052300023DB2378009A934211D103234021607825
:10524000029A4343D318019ADB78403A8A4308D143
:1052500014321340934202D10399FFF7B9FF02348D
:10526000E4E7019A002AFAD10C3213409342F6D1B6
:105270000B3A310000F004F8F1E705B0F0BDFFFF94
:10528000F7B50E0004000192FFF71AFF0700200097
:10529000FFF754FF194B0F221C68BC2323713312F4
:1052A000E371431C1A4020235B42134363720023C3
:1052B000019AA372050026724033002A00D14033C0
:1052C000E372002D13D020002A000C30390000F0CA
:1052D00007FB0434300022008021FFF793FF2A00EF
:1052E000083292B221000648FFF781FEF7BD3F2148
:1052F0003A780A401343E372EBE7C046D85C0000FB
:1053000090010010F0B585B0FFF72AFF051E35D0DB
:10531000FFF7CCFE037802900393204B1C68039B9D
:105320009C4236DA61106B181A789C4601231700EC
:105330001C4200D0171103233B40032B27D1042626
:105340001900A000304081408A43614663430A70DF
:10535000029A20000332D35C0193FFF773FE011E13
:1053600015D0019B334212D03A00324008D02000C1
:10537000FFF786FE0120094B01341C6005B0F0BD2B
:10538000019B5B0603D52000FFF77AFFF2E70134AB
:10539000C5E70020014B1860F0E7C046640200102A
:1053A000F7B5FFF7DDFE041E21D0FFF77FFE03787F
:1053B000082701937F239C460E490868019B984269
:1053C00013DA4210A218137801261D003D40304226
:1053D00002D01D006646B543461C002D03D0AB43EA
:1053E00013700E60FEBD3000E8E700230B60012063
:1053F0004042F7E76002001010B500F021F9084BB9
:10540000C41800F01DF90138FF38A04205D303008D
:10541000FF331B78FF2BF6D010BD0020FCE7C04601
:1054200000F0FFFF10B5FFF7E7FF802201005200F8
:105430000548002905D000F073FB0022034B1A70C9
:1054400010BD00F0C1FBF8E768020010680300100F
:1054500070B51D4D2B78002B35D01C4BDA6C3433D6
:1054600019780029FCD1002AFAD172B6FFF7C4FFDF
:10547000040000F0E5F80138FF38844210D100F054
:10548000DFF8134BC01800F0D5F800F055F80028ED
:1054900001D000F031FA00F0D3F80D4BC01803E052
:1054A000002CF8D0601CFF300A4980220B00002439
:1054B000FF3352001C7000F08BF8A04201D000F0C6
:1054C0001BFA62B62C7070BD6803001090010010CA
:1054D00000F0FFFF68020010002303607047FFFF29
:1054E00010B5094B84681B688C4203D0036081604F
:1054F000406810BD01680029FAD09B1A5B1AF7D4E6
:10550000002344600360F3E77C04001010B572B61A
:10551000014B984762B610BDF11FFF1F322300B543
:105520008BB00190029005A968460093FFF7EEFF4B
:105530000598C0B20BB000BD10B58CB00400FFF7E9
:10554000EDFF079000281AD13423FA2102930E4B65
:10555000890018680394049400F034FA07A90590B0
:1055600002A8FFF7D3FF079B0193002B07D1353328
:1055700007A902A8029303940494FFF7C7FF0798B2
:10558000C0B20CB010BDC046000100100F2310B512
:105590000400C017184000198AB00011FFF7BEFFC1
:1055A000059000280ED13B23FA210093074B890078
:1055B00018680194029400F005FA05A90390684662
:1055C000FFF7A4FF0598C0B20AB010BD000100109B
:1055D00070B50400C0170005000D20188CB0001332
:1055E0000E001500FFF79AFF079000281CD1332307
:1055F000FA2102930E4B89001868039404960595CE
:1056000000F0E0F907A9069002A8FFF77FFF079BCB
:105610000193002B08D1383307A902A80293039401
:1056200004960595FFF772FF0798C0B20CB070BDE5
:1056300000010010C3171B051B0DC0180013704795
:1056400030B50C4D8BB02868002810D135230224CA
:10565000009305A9684601940294FFF757FF059B44
:10566000072B02D00234802CF3D1200328600BB02A
:1056700030BDC0467804001000231F2210B5401230
:10568000040014408C4201D118B210BD0133401106
:10569000042BF5D101204042F7E730BF7047FFFFF0
:1056A00037B5FA211F4B8900186800F08BF91E4BA3
:1056B000013898420DD8C0211C4A090650601C4888
:1056C000036A1B021B0A0B43036200239360073328
:1056D000136000220925174B1A60FDF7B5FE164B23
:1056E0001C68236820009B689847230030331B7890
:1056F000002B13D0114B1B680193FF335A782A40BB
:10570000082A0BD19B78012B08D10D4B1B68019304
:105710005B7BFF2B02D1FDF7FBFEE2E7FFF7BDFF4E
:10572000DFE7C04600010010FFFFFF0010E000E0CF
:1057300000ED00E07C040010D85C00000C5E00006E
:10574000085E0000F8B500251C4E0400825DAA42E8
:1057500014D08068FFF71AFFA84201D000F0CCF8FF
:1057600080222100520014316068FFF731FF0028C9
:1057700001D000F0C1F800230125A355104EA35D10
:10578000002B19D08527BF00E059FFF7FFFE002846
:1057900001D000F0B1F821008022E059153100025B
:1057A0005200FF31FFF714FF002801D000F0A4F8E9
:1057B0000023A35502331D432800F8BD2202000038
:1057C000210200000A4B70B50A490500186800F074
:1057D000F9F8023D084E6843B468002807DDB36855
:1057E000E41A01D57268A418001B1C00F5E770BD0F
:1057F0000001001040420F0010E000E00123027998
:10580000064907329340002210B5CC6F2343CB6783
:105810000368DA635A619A6210BDC046048004408E
:105820000368072070B5032406004C43A6401040CF
:10583000A04030245D694900B5435D615D69224047
:10584000284325008D408A405861D86BA843D8630F
:10585000D86B0243DA6370BD0323594310B594112A
:1058600009B22340D20701D50422134307248C40F8
:105870008B400268906AA0439062906A03439362EF
:1058800010BDFFFF024A1368013313607047C04622
:105890007C04001000220A4B1A710A4A1A60012285
:1058A000094B1A71094A1A600222094B1A71094AF6
:1058B0001A600322084B1A71084A1A607047C046E2
:1058C0008004001000C00040880400100000014067
:1058D0009004001000400140980400100080014036
:1058E00010B501398018002A04DD8C5C5342C45481
:1058F000013AF8E710BDFFFF13B5C0211148C901F7
:10590000FEF742FBC021104B104A11485A60026A50
:1059100009061202120A0A43026200229A60073242
:105920001A600C4A80201268802101921A0000043B
:105930008900936803405C426341019CDB01635032
:10594000F7E7C0460702050010E000E0FFFFFF0098
:1059500000ED00E0BC5D00000C4B30B51B681A0088
:105960001632111E00D0997D0412C2B201201933E3
:10597000814208DB1D78A54202D15D78954204D0B2
:1059800001300233F4E70120404230BD085E0000E0
:10599000014B186816307047085E0000024B1B6808
:1059A000587C024BC0187047085E00006802001067
:1059B00003B47146490840004900095A49008E4421
:1059C00003BC7047002243088B4274D303098B4207
:1059D0005FD3030A8B4244D3030B8B4228D3030CBF
:1059E0008B420DD3FF22090212BA030C8B4202D361
:1059F0001212090265D0030B8B4219D300E0090A89
:105A0000C30B8B4201D3CB03C01A5241830B8B4291
:105A100001D38B03C01A5241430B8B4201D34B037A
:105A2000C01A5241030B8B4201D30B03C01A5241DF
:105A3000C30A8B4201D3CB02C01A5241830A8B4264
:105A400001D38B02C01A5241430A8B4201D34B024D
:105A5000C01A5241030A8B4201D30B02C01A5241B1
:105A6000CDD2C3098B4201D3CB01C01A5241830965
:105A70008B4201D38B01C01A524143098B4201D39F
:105A80004B01C01A524103098B4201D30B01C01ACA
:105A90005241C3088B4201D3CB00C01A5241830844
:105AA0008B4201D38B00C01A524143088B4201D371
:105AB0004B00C01A5241411A00D2014652411046D1
:105AC0007047FFE701B5002000F006F802BDC046B0
:105AD0000029F7D076E770477047C04670B50C4D87
:105AE0000C4E761BB61005D0002408CD0134984723
:105AF000A642FAD100F08CF9074D084E761BB6107D
:105B000005D0002408CD01349847A642FAD170BDD3
:105B10001C5E00001C5E00001C5E0000345E000085
:105B2000F0B5C64600B50F2A43D90B000326034340
:105B30001E400C000300002E40D11500103D2D0921
:105B4000AC462D01A846804400E03B00676825680C
:105B50005F60E7681D60DF601F00A56810379D600B
:105B600010344345F1D165460F230C2401352D0136
:105B7000491913404519144223D08C59AC510436AD
:105B80009C1B032CF9D80324043B9B0801339B0086
:105B90002240ED18C918561E002A07D0002300E045
:105BA0002300CA5C5C1CEA549E42F9D104BC9046B6
:105BB000F0BD0500561E002AF0D1F7E7561E05007D
:105BC000ECE71A00F6E7C046F0B5050083074AD0B7
:105BD000541E002A44D0CEB20300032202E0013555
:105BE000013C3DD301332E701342F8D1032C2FD941
:105BF000FF220A40150215432A0415430F2C35D9FC
:105C00002700103F3F093E01B4461E001A0010361F
:105C10006644156055609560D5601032B242F8D187
:105C20000F260C2201373F012640DB1937002242A4
:105C300017D03E1FB608B400A4461A001C1D6444C9
:105C400020C2A242FCD103240136B6009B193C407D
:105C5000002C05D0C9B21C19197001339C42FBD12C
:105C6000F0BD3400F4E714000300BFE72700E0E7CD
:105C700010B5064C2378002B07D1054B002B02D022
:105C8000044800E000BF0123237010BDA0040010F1
:105C900000000000405E0000044B10B5002B03D054
:105CA0000349044800E000BF10BDC04600000000EA
:105CB000A4040010405E000065C2810064C2790047
:105CC00041C2740003020000448259004582010071
:105CD0002A83300C0B4110062C0100104242650053
:105CE000070205004A02000049C2010002C23A0050
:105CF00008023300094233004B823B00820000005F
:105D00000401000008020000100400002008000048
:105D100040100000802000000041000000820000D0
:105D20000004010000080200001004000020080028
:105D30000040100000802000000041000000000032
:105D4000000000002D3C0000553C000026C233003E
:105D50004782790061C2340F64C2790003000400F5
:105D600007000B000C000D001300140018001900B0
:105D70001A001D001E001F0020002400250028001E
:105D800029002A0005000E001B00260002000A0060
:105D90001700230010001100000008000900150082
:105DA00016001C002100220027002B000F0012000B
:105DB0000000000000000000000000000000005093
:105DC00000000150000002500000035000000000DD
:105DD00000000000C14600000D460000E94600003A
:105DE000F14100000000000000000000D147000069
:105DF000D9470000DD470000D94700000101020338
:105E00000406080A0E0FFFFF680200106C03001062
:105E1000F8B5C046F8BC08BC9E4670472134000067
:105E200041350000D1390000BD3E0000955800000A
:105E3000995C0000F8B5C046F8BC08BC9E467047A7
:045E4000006CDC0214
:105E44002141565021403A4F30382E3130202031F4
:045E54002E303000BC
:04000003000030EDDC
:00000001FF
